{
  "abi": [
    {
      "inputs": [
        {
          "internalType": "address",
          "name": "_sourceAddress",
          "type": "address"
        }
      ],
      "stateMutability": "nonpayable",
      "type": "constructor"
    },
    {
      "inputs": [],
      "name": "sourceAddress",
      "outputs": [
        {
          "internalType": "address",
          "name": "",
          "type": "address"
        }
      ],
      "stateMutability": "view",
      "type": "function"
    },
    {
      "inputs": [],
      "name": "spot",
      "outputs": [
        {
          "internalType": "uint256",
          "name": "",
          "type": "uint256"
        },
        {
          "internalType": "bool",
          "name": "",
          "type": "bool"
        }
      ],
      "stateMutability": "view",
      "type": "function"
    }
  ],
  "bytecode": {
    "object": "0x608060405234801561001057600080fd5b5060405161020b38038061020b83398101604081905261002f91610054565b600080546001600160a01b0319166001600160a01b0392909216919091179055610084565b60006020828403121561006657600080fd5b81516001600160a01b038116811461007d57600080fd5b9392505050565b610178806100936000396000f3fe608060405234801561001057600080fd5b50600436106100365760003560e01c80636f265b931461003b578063b0fa84441461005d575b600080fd5b610043610088565b604080519283529015156020830152015b60405180910390f35b600054610070906001600160a01b031681565b6040516001600160a01b039091168152602001610054565b60008060008060008054906101000a90046001600160a01b03166001600160a01b03166359e02dd76040518163ffffffff1660e01b81526004016040805180830381865afa1580156100de573d6000803e3d6000fd5b505050506040513d601f19601f82011682018060405250810190610102919061010d565b909590945092505050565b6000806040838503121561012057600080fd5b825191506020830151801515811461013757600080fd5b80915050925092905056fea2646970667358221220089ff7026018025349ab61e728a9cfe62d1f647165b3b6e405aafe8df2fcea4264736f6c634300080a0033",
    "linkReferences": {}
  }
}