{
  "abi": [
    {
      "inputs": [
        {
          "internalType": "uint256",
          "name": "_startValue",
          "type": "uint256"
        }
      ],
      "stateMutability": "nonpayable",
      "type": "constructor"
    },
    {
      "anonymous": false,
      "inputs": [
        {
          "indexed": false,
          "internalType": "uint256",
          "name": "value",
          "type": "uint256"
        },
        {
          "indexed": false,
          "internalType": "bool",
          "name": "hasValue",
          "type": "bool"
        }
      ],
      "name": "SetValue",
      "type": "event"
    },
    {
      "inputs": [],
      "name": "hasValue",
      "outputs": [
        {
          "internalType": "bool",
          "name": "",
          "type": "bool"
        }
      ],
      "stateMutability": "view",
      "type": "function"
    },
    {
      "inputs": [],
      "name": "peek",
      "outputs": [
        {
          "internalType": "uint256",
          "name": "_value",
          "type": "uint256"
        }
      ],
      "stateMutability": "view",
      "type": "function"
    },
    {
      "inputs": [
        {
          "internalType": "uint256",
          "name": "_value",
          "type": "uint256"
        },
        {
          "internalType": "bool",
          "name": "_hasValue",
          "type": "bool"
        }
      ],
      "name": "setValue",
      "outputs": [],
      "stateMutability": "nonpayable",
      "type": "function"
    },
    {
      "inputs": [],
      "name": "value",
      "outputs": [
        {
          "internalType": "uint256",
          "name": "",
          "type": "uint256"
        }
      ],
      "stateMutability": "view",
      "type": "function"
    }
  ],
  "bytecode": {
    "object": "0x608060405234801561001057600080fd5b5060405161021238038061021283398101604081905261002f91610080565b60008190556001805460ff1916811781556040805183815260208101929092527f045238474bff87710f76f89f501ea099825b53a538bb0c85d075db811fc2425f910160405180910390a150610099565b60006020828403121561009257600080fd5b5051919050565b61016a806100a86000396000f3fe608060405234801561001057600080fd5b506004361061004c5760003560e01c806315140bd1146100515780633fa4f2451461007357806359e02dd71461008a57806382e33e8214610092575b600080fd5b60015461005e9060ff1681565b60405190151581526020015b60405180910390f35b61007c60005481565b60405190815260200161006a565b60005461007c565b6100a56100a03660046100ff565b6100a7565b005b60008290556001805460ff19168215159081179091556040805184815260ff909216151560208301527f045238474bff87710f76f89f501ea099825b53a538bb0c85d075db811fc2425f910160405180910390a15050565b6000806040838503121561011257600080fd5b823591506020830135801515811461012957600080fd5b80915050925092905056fea26469706673582212203cd9cc83e1e2924fc7277e185dbbaef1092307c11ff5d5055599003a59f210b664736f6c634300080a0033",
    "linkReferences": {}
  }
}