{
  "abi": [
    {
      "inputs": [
        {
          "internalType": "uint256",
          "name": "_startValue",
          "type": "uint256"
        }
      ],
      "stateMutability": "nonpayable",
      "type": "constructor"
    },
    {
      "anonymous": false,
      "inputs": [
        {
          "indexed": false,
          "internalType": "uint256",
          "name": "value",
          "type": "uint256"
        }
      ],
      "name": "SetValue",
      "type": "event"
    },
    {
      "inputs": [],
      "name": "peek",
      "outputs": [
        {
          "internalType": "uint256",
          "name": "_value",
          "type": "uint256"
        }
      ],
      "stateMutability": "view",
      "type": "function"
    },
    {
      "inputs": [
        {
          "internalType": "uint256",
          "name": "_value",
          "type": "uint256"
        }
      ],
      "name": "setValue",
      "outputs": [],
      "stateMutability": "nonpayable",
      "type": "function"
    },
    {
      "inputs": [],
      "name": "value",
      "outputs": [
        {
          "internalType": "uint256",
          "name": "",
          "type": "uint256"
        }
      ],
      "stateMutability": "view",
      "type": "function"
    }
  ],
  "bytecode": {
    "object": "0x608060405234801561001057600080fd5b5060405161019038038061019083398101604081905261002f9161006d565b60008190556040518181527fed8b07065ef0737c0cfb1bf1e23ccc881d797ec9804f74230a360b84982938ab9060200160405180910390a150610086565b60006020828403121561007f57600080fd5b5051919050565b60fc806100946000396000f3fe6080604052348015600f57600080fd5b5060043610603c5760003560e01c80633fa4f2451460415780635524107714605b57806359e02dd714606c575b600080fd5b604960005481565b60405190815260200160405180910390f35b606a606636600460ae565b6073565b005b6000546049565b60008190556040518181527fed8b07065ef0737c0cfb1bf1e23ccc881d797ec9804f74230a360b84982938ab9060200160405180910390a150565b60006020828403121560bf57600080fd5b503591905056fea2646970667358221220cc2531c0c5dc159e6d68e07ae88019fb334db06c4e0c32f0f240994eedf7976964736f6c634300080a0033",
    "linkReferences": {}
  }
}