{
  "abi": [
    {
      "inputs": [],
      "name": "EpochClosed",
      "type": "error"
    },
    {
      "inputs": [],
      "name": "EpochIsOngoing",
      "type": "error"
    },
    {
      "inputs": [],
      "name": "EpochMustHaveStarted",
      "type": "error"
    },
    {
      "inputs": [],
      "name": "FailToDeposit",
      "type": "error"
    },
    {
      "inputs": [],
      "name": "InsufficientAmount",
      "type": "error"
    },
    {
      "inputs": [],
      "name": "NothingToWithdraw",
      "type": "error"
    },
    {
      "inputs": [],
      "name": "Unauthorized",
      "type": "error"
    },
    {
      "anonymous": false,
      "inputs": [
        {
          "indexed": false,
          "internalType": "uint256",
          "name": "betId",
          "type": "uint256"
        }
      ],
      "name": "BetClosed",
      "type": "event"
    },
    {
      "anonymous": false,
      "inputs": [
        {
          "components": [
            {
              "internalType": "uint256",
              "name": "betId",
              "type": "uint256"
            },
            {
              "internalType": "uint256",
              "name": "startTime",
              "type": "uint256"
            },
            {
              "internalType": "uint256",
              "name": "assetPrice",
              "type": "uint256"
            },
            {
              "internalType": "enum Contract.Status",
              "name": "status",
              "type": "uint8"
            }
          ],
          "indexed": false,
          "internalType": "struct Contract.Bet",
          "name": "bet",
          "type": "tuple"
        }
      ],
      "name": "BetCreated",
      "type": "event"
    },
    {
      "anonymous": false,
      "inputs": [
        {
          "indexed": true,
          "internalType": "address",
          "name": "depositor",
          "type": "address"
        },
        {
          "indexed": false,
          "internalType": "uint256",
          "name": "amount",
          "type": "uint256"
        },
        {
          "indexed": false,
          "internalType": "bool",
          "name": "isBullish",
          "type": "bool"
        }
      ],
      "name": "Deposit",
      "type": "event"
    },
    {
      "anonymous": false,
      "inputs": [],
      "name": "EpochSettle",
      "type": "event"
    },
    {
      "anonymous": false,
      "inputs": [
        {
          "indexed": true,
          "internalType": "address",
          "name": "previousOwner",
          "type": "address"
        },
        {
          "indexed": true,
          "internalType": "address",
          "name": "newOwner",
          "type": "address"
        }
      ],
      "name": "OwnershipTransferred",
      "type": "event"
    },
    {
      "anonymous": false,
      "inputs": [
        {
          "indexed": true,
          "internalType": "address",
          "name": "depositor",
          "type": "address"
        },
        {
          "indexed": false,
          "internalType": "uint256",
          "name": "amount",
          "type": "uint256"
        }
      ],
      "name": "Withdraw",
      "type": "event"
    },
    {
      "inputs": [],
      "name": "bearsAmount",
      "outputs": [
        {
          "internalType": "uint256",
          "name": "",
          "type": "uint256"
        }
      ],
      "stateMutability": "view",
      "type": "function"
    },
    {
      "inputs": [
        {
          "internalType": "uint256",
          "name": "",
          "type": "uint256"
        }
      ],
      "name": "bets",
      "outputs": [
        {
          "internalType": "uint256",
          "name": "betId",
          "type": "uint256"
        },
        {
          "internalType": "uint256",
          "name": "startTime",
          "type": "uint256"
        },
        {
          "internalType": "uint256",
          "name": "assetPrice",
          "type": "uint256"
        },
        {
          "internalType": "enum Contract.Status",
          "name": "status",
          "type": "uint8"
        }
      ],
      "stateMutability": "view",
      "type": "function"
    },
    {
      "inputs": [],
      "name": "bullsAmount",
      "outputs": [
        {
          "internalType": "uint256",
          "name": "",
          "type": "uint256"
        }
      ],
      "stateMutability": "view",
      "type": "function"
    },
    {
      "inputs": [
        {
          "internalType": "uint256",
          "name": "betId",
          "type": "uint256"
        }
      ],
      "name": "closeDeposit",
      "outputs": [],
      "stateMutability": "nonpayable",
      "type": "function"
    },
    {
      "inputs": [
        {
          "internalType": "address",
          "name": "_priceFeed",
          "type": "address"
        }
      ],
      "name": "createBet",
      "outputs": [
        {
          "internalType": "uint256",
          "name": "",
          "type": "uint256"
        }
      ],
      "stateMutability": "nonpayable",
      "type": "function"
    },
    {
      "inputs": [
        {
          "internalType": "uint256",
          "name": "betId",
          "type": "uint256"
        },
        {
          "internalType": "bool",
          "name": "isBullish",
          "type": "bool"
        }
      ],
      "name": "deposit",
      "outputs": [],
      "stateMutability": "payable",
      "type": "function"
    },
    {
      "inputs": [
        {
          "internalType": "address",
          "name": "",
          "type": "address"
        }
      ],
      "name": "depositorToAmount",
      "outputs": [
        {
          "internalType": "uint256",
          "name": "",
          "type": "uint256"
        }
      ],
      "stateMutability": "view",
      "type": "function"
    },
    {
      "inputs": [
        {
          "internalType": "address",
          "name": "",
          "type": "address"
        }
      ],
      "name": "depositorToIsBullish",
      "outputs": [
        {
          "internalType": "bool",
          "name": "",
          "type": "bool"
        }
      ],
      "stateMutability": "view",
      "type": "function"
    },
    {
      "inputs": [
        {
          "internalType": "address",
          "name": "",
          "type": "address"
        }
      ],
      "name": "depositors",
      "outputs": [
        {
          "internalType": "bool",
          "name": "",
          "type": "bool"
        }
      ],
      "stateMutability": "view",
      "type": "function"
    },
    {
      "inputs": [
        {
          "internalType": "uint256",
          "name": "",
          "type": "uint256"
        }
      ],
      "name": "idToDepositor",
      "outputs": [
        {
          "internalType": "address",
          "name": "",
          "type": "address"
        }
      ],
      "stateMutability": "view",
      "type": "function"
    },
    {
      "inputs": [],
      "name": "owner",
      "outputs": [
        {
          "internalType": "address",
          "name": "",
          "type": "address"
        }
      ],
      "stateMutability": "view",
      "type": "function"
    },
    {
      "inputs": [],
      "name": "renounceOwnership",
      "outputs": [],
      "stateMutability": "nonpayable",
      "type": "function"
    },
    {
      "inputs": [
        {
          "internalType": "uint256",
          "name": "betId",
          "type": "uint256"
        },
        {
          "internalType": "address",
          "name": "_priceFeed",
          "type": "address"
        }
      ],
      "name": "settleEpoch",
      "outputs": [],
      "stateMutability": "nonpayable",
      "type": "function"
    },
    {
      "inputs": [
        {
          "internalType": "address",
          "name": "newOwner",
          "type": "address"
        }
      ],
      "name": "transferOwnership",
      "outputs": [],
      "stateMutability": "nonpayable",
      "type": "function"
    },
    {
      "inputs": [
        {
          "internalType": "uint256",
          "name": "betId",
          "type": "uint256"
        }
      ],
      "name": "withdraw",
      "outputs": [],
      "stateMutability": "nonpayable",
      "type": "function"
    },
    {
      "stateMutability": "payable",
      "type": "receive"
    }
  ],
  "bytecode": {
    "object": "0x60806040526001805560016002556000600355600060045534801561002357600080fd5b5061002d33610032565b610082565b600080546001600160a01b038381166001600160a01b0319831681178455604051919092169283917f8be0079c531659141344cd1fd0a4f28419497f9722a3daafe3b4186f6b6457e09190a35050565b61116e806100916000396000f3fe6080604052600436106100ec5760003560e01c806378c6c1571161008a5780639a408321116100595780639a408321146102dc578063a4b47b14146102ef578063eed75f6d1461030f578063f2fde38b1461033f57600080fd5b806378c6c1571461023e57806383b24c521461025e5780638da5cb5b1461027e5780639060db551461029c57600080fd5b806322af00fa116100c657806322af00fa146101855780632e1a7d4d146101da57806358627162146101fc578063715018a61461022957600080fd5b806303a0e032146100f8578063060e7401146101215780631a8ef8c21461013757600080fd5b366100f357005b600080fd5b34801561010457600080fd5b5061010e60035481565b6040519081526020015b60405180910390f35b34801561012d57600080fd5b5061010e60045481565b34801561014357600080fd5b5061016d610152366004610f2d565b6008602052600090815260409020546001600160a01b031681565b6040516001600160a01b039091168152602001610118565b34801561019157600080fd5b506101ca6101a0366004610f2d565b60056020526000908152604090208054600182015460028301546003909301549192909160ff1684565b6040516101189493929190610f7e565b3480156101e657600080fd5b506101fa6101f5366004610f2d565b61035f565b005b34801561020857600080fd5b5061010e610217366004610fc0565b60096020526000908152604090205481565b34801561023557600080fd5b506101fa61043e565b34801561024a57600080fd5b506101fa610259366004610fdb565b61047d565b34801561026a57600080fd5b506101fa610279366004610f2d565b61070c565b34801561028a57600080fd5b506000546001600160a01b031661016d565b3480156102a857600080fd5b506102cc6102b7366004610fc0565b60066020526000908152604090205460ff1681565b6040519015158152602001610118565b6101fa6102ea366004611007565b6107c2565b3480156102fb57600080fd5b5061010e61030a366004610fc0565b6109ad565b34801561031b57600080fd5b506102cc61032a366004610fc0565b60076020526000908152604090205460ff1681565b34801561034b57600080fd5b506101fa61035a366004610fc0565b610aca565b600260008281526005602052604090206003015460ff16600281111561038757610387610f46565b146103a557604051637e2b277560e11b815260040160405180910390fd5b33600081815260096020526040902054806103d357604051630686827b60e51b815260040160405180910390fd5b6001600160a01b0382166000908152600960205260408120556103f68282610b65565b816001600160a01b03167f884edad9ce6fa2440d8a54cc123490eb96d2768479d49ff9c7366125a94243648260405161043191815260200190565b60405180910390a2505050565b6000546001600160a01b031633146104715760405162461bcd60e51b81526004016104689061103c565b60405180910390fd5b61047b6000610bbb565b565b6000546001600160a01b031633146104a75760405162461bcd60e51b81526004016104689061103c565b600082815260056020526040902060018101544290816104ca62093a8083611087565b11156104e957604051637e2b277560e11b815260040160405180910390fd5b600283015460006104f986610c0b565b90508181106105e45760015b6002548110156105de576000818152600860209081526040808320546001600160a01b0316808452600990925290912054806105425750506105ce565b6001600160a01b03821660009081526006602052604090205460ff16610580576001600160a01b0382166000908152600960205260408120556105cb565b600061058e82600354610c77565b905061059c81600454610cc0565b6001600160a01b038416600090815260096020526040812080549091906105c4908490611087565b9091555050505b50505b6105d78161109f565b9050610505565b506106c3565b60015b6002548110156106c1576000818152600860209081526040808320546001600160a01b0316808452600990925290912054806106245750506106b1565b6001600160a01b03821660009081526006602052604090205460ff1615610663576001600160a01b0382166000908152600960205260408120556106ae565b600061067182600454610c77565b905061067f81600354610cc0565b6001600160a01b038416600090815260096020526040812080549091906106a7908490611087565b9091555050505b50505b6106ba8161109f565b90506105e7565b505b6000600381815560048290558601805460ff191660021790556040517fb066eb84e90f0d010f4d59fde547951af64ef2f24fd6b125e6366e6fa03b40de9190a150505050505050565b6000546001600160a01b031633146107365760405162461bcd60e51b81526004016104689061103c565b600081815260056020526040812090600382015460ff16600281111561075e5761075e610f46565b1461077c57604051631e42390960e01b815260040160405180910390fd5b60038101805460ff191660011790556040518281527f0eece8d5a08d055ab5110a6ecddd40f483417a5ba1e85d80db5ec862ac8209d09060200160405180910390a15050565b600160008381526005602052604090206003015460ff1660028111156107ea576107ea610f46565b14156108095760405163b01c554960e01b815260040160405180910390fd5b336000818152600660209081526040808320805460ff19168615151790556009909152812080543492839291610840908490611087565b9091555050821561086857806003600082825461085d9190611087565b909155506108809050565b806004600082825461087a9190611087565b90915550505b6001600160a01b03821660009081526007602052604090205460ff166108f8576001600160a01b0382166000818152600760209081526040808320805460ff191660011790556002805484526008909252822080546001600160a01b031916909317909255815491906108f28361109f565b91905055505b604051600090309083908381818185875af1925050503d806000811461093a576040519150601f19603f3d011682016040523d82523d6000602084013e61093f565b606091505b50509050806109615760405163e1452b0960e01b815260040160405180910390fd5b6040805183815285151560208201526001600160a01b038516917f693c1828300d1cab0919b948d714897f817e305af51c026ad14233b6a8939adb910160405180910390a25050505050565b600080546001600160a01b031633146109d85760405162461bcd60e51b81526004016104689061103c565b6000604051806080016040528060015481526020014281526020016109fc85610c0b565b8152602001600081525090508060056000600154815260200190815260200160002060008201518160000155602082015181600101556040820151816002015560608201518160030160006101000a81548160ff02191690836002811115610a6657610a66610f46565b0217905550506001805491506000610a7d8361109f565b9190505550610a8a610d28565b7f76fcae05a8f6d87f57fc4819b1ddd1a7fb18657bb476d057b5e708a68cf592cc81604051610ab991906110ba565b60405180910390a15190505b919050565b6000546001600160a01b03163314610af45760405162461bcd60e51b81526004016104689061103c565b6001600160a01b038116610b595760405162461bcd60e51b815260206004820152602660248201527f4f776e61626c653a206e6577206f776e657220697320746865207a65726f206160448201526564647265737360d01b6064820152608401610468565b610b6281610bbb565b50565b600080600080600085875af1905080610bb65760405162461bcd60e51b815260206004820152601360248201527211551217d514905394d1915497d19052531151606a1b6044820152606401610468565b505050565b600080546001600160a01b038381166001600160a01b0319831681178455604051919092169283917f8be0079c531659141344cd1fd0a4f28419497f9722a3daafe3b4186f6b6457e09190a35050565b600080826001600160a01b03166359e02dd76040518163ffffffff1660e01b8152600401602060405180830381865afa158015610c4c573d6000803e3d6000fd5b505050506040513d601f19601f82011682018060405250810190610c7091906110f3565b9392505050565b600081610c8357600080fd5b6000610c8f8484610dcb565b90506f7fffffffffffffffffffffffffffffff6001600160801b0382161115610cb757600080fd5b90505b92915050565b600081610ccf57506000610cba565b600083600f0b1215610ce057600080fd5b600f83900b6001600160801b038316810260401c90608084901c026001600160c01b03811115610d0f57600080fd5b60401b8119811115610d2057600080fd5b019392505050565b60015b600254811015610b62576000818152600860209081526040808320546001600160a01b03168084526009909252909120548015610db8576001600160a01b03821660009081526006602052604090205460ff1615610da0578060036000828254610d959190611087565b90915550610db89050565b8060046000828254610db29190611087565b90915550505b505080610dc49061109f565b9050610d2b565b600081610dd757600080fd5b60006001600160c01b038411610e025782604085901b81610dfa57610dfa61110c565b049050610f19565b60c084811c6401000000008110610e1b576020918201911c5b620100008110610e2d576010918201911c5b6101008110610e3e576008918201911c5b60108110610e4e576004918201911c5b60048110610e5e576002918201911c5b60028110610e6d576001820191505b60bf820360018603901c6001018260ff0387901b81610e8e57610e8e61110c565b0492506001600160801b03831115610ea557600080fd5b608085901c83026001600160801b038616840260c088901c604089901b82811015610ed1576001820391505b608084901b92900382811015610ee8576001820391505b829003608084901c8214610efe57610efe611122565b888181610f0d57610f0d61110c565b04870196505050505050505b6001600160801b03811115610cb757600080fd5b600060208284031215610f3f57600080fd5b5035919050565b634e487b7160e01b600052602160045260246000fd5b60038110610f7a57634e487b7160e01b600052602160045260246000fd5b9052565b848152602081018490526040810183905260808101610fa06060830184610f5c565b95945050505050565b80356001600160a01b0381168114610ac557600080fd5b600060208284031215610fd257600080fd5b610c7082610fa9565b60008060408385031215610fee57600080fd5b82359150610ffe60208401610fa9565b90509250929050565b6000806040838503121561101a57600080fd5b823591506020830135801515811461103157600080fd5b809150509250929050565b6020808252818101527f4f776e61626c653a2063616c6c6572206973206e6f7420746865206f776e6572604082015260600190565b634e487b7160e01b600052601160045260246000fd5b6000821982111561109a5761109a611071565b500190565b60006000198214156110b3576110b3611071565b5060010190565b600060808201905082518252602083015160208301526040830151604083015260608301516110ec6060840182610f5c565b5092915050565b60006020828403121561110557600080fd5b5051919050565b634e487b7160e01b600052601260045260246000fd5b634e487b7160e01b600052600160045260246000fdfea264697066735822122030252f7faf4878a47f2ac45b98334522d848ec33bb703fb047b3cf4d2c36ef0864736f6c634300080a0033",
    "linkReferences": {}
  }
}