{
  "abi": [
    {
      "inputs": [],
      "name": "EpochClosed",
      "type": "error"
    },
    {
      "inputs": [],
      "name": "EpochIsOngoing",
      "type": "error"
    },
    {
      "inputs": [],
      "name": "EpochMustHaveStarted",
      "type": "error"
    },
    {
      "inputs": [],
      "name": "FailToDeposit",
      "type": "error"
    },
    {
      "inputs": [],
      "name": "InsufficientAmount",
      "type": "error"
    },
    {
      "inputs": [],
      "name": "NothingToWithdraw",
      "type": "error"
    },
    {
      "inputs": [],
      "name": "Unauthorized",
      "type": "error"
    },
    {
      "anonymous": false,
      "inputs": [
        {
          "indexed": false,
          "internalType": "uint256",
          "name": "betId",
          "type": "uint256"
        }
      ],
      "name": "BetClosed",
      "type": "event"
    },
    {
      "anonymous": false,
      "inputs": [
        {
          "components": [
            {
              "internalType": "uint256",
              "name": "betId",
              "type": "uint256"
            },
            {
              "internalType": "uint256",
              "name": "startTime",
              "type": "uint256"
            },
            {
              "internalType": "uint256",
              "name": "assetPrice",
              "type": "uint256"
            },
            {
              "internalType": "enum Contract.Status",
              "name": "status",
              "type": "uint8"
            }
          ],
          "indexed": false,
          "internalType": "struct Contract.Bet",
          "name": "bet",
          "type": "tuple"
        }
      ],
      "name": "BetCreated",
      "type": "event"
    },
    {
      "anonymous": false,
      "inputs": [
        {
          "indexed": true,
          "internalType": "address",
          "name": "depositor",
          "type": "address"
        },
        {
          "indexed": false,
          "internalType": "uint256",
          "name": "amount",
          "type": "uint256"
        },
        {
          "indexed": false,
          "internalType": "bool",
          "name": "isBullish",
          "type": "bool"
        }
      ],
      "name": "Deposit",
      "type": "event"
    },
    {
      "anonymous": false,
      "inputs": [
        {
          "indexed": true,
          "internalType": "address",
          "name": "previousOwner",
          "type": "address"
        },
        {
          "indexed": true,
          "internalType": "address",
          "name": "newOwner",
          "type": "address"
        }
      ],
      "name": "OwnershipTransferred",
      "type": "event"
    },
    {
      "anonymous": false,
      "inputs": [
        {
          "indexed": true,
          "internalType": "address",
          "name": "depositor",
          "type": "address"
        },
        {
          "indexed": false,
          "internalType": "uint256",
          "name": "amount",
          "type": "uint256"
        }
      ],
      "name": "Withdraw",
      "type": "event"
    },
    {
      "inputs": [
        {
          "internalType": "uint256",
          "name": "",
          "type": "uint256"
        }
      ],
      "name": "bets",
      "outputs": [
        {
          "internalType": "uint256",
          "name": "betId",
          "type": "uint256"
        },
        {
          "internalType": "uint256",
          "name": "startTime",
          "type": "uint256"
        },
        {
          "internalType": "uint256",
          "name": "assetPrice",
          "type": "uint256"
        },
        {
          "internalType": "enum Contract.Status",
          "name": "status",
          "type": "uint8"
        }
      ],
      "stateMutability": "view",
      "type": "function"
    },
    {
      "inputs": [
        {
          "internalType": "uint256",
          "name": "betId",
          "type": "uint256"
        }
      ],
      "name": "closeDeposit",
      "outputs": [],
      "stateMutability": "nonpayable",
      "type": "function"
    },
    {
      "inputs": [
        {
          "internalType": "address",
          "name": "_priceFeed",
          "type": "address"
        }
      ],
      "name": "createBet",
      "outputs": [
        {
          "internalType": "uint256",
          "name": "",
          "type": "uint256"
        }
      ],
      "stateMutability": "nonpayable",
      "type": "function"
    },
    {
      "inputs": [
        {
          "internalType": "uint256",
          "name": "betId",
          "type": "uint256"
        },
        {
          "internalType": "uint256",
          "name": "amount",
          "type": "uint256"
        },
        {
          "internalType": "bool",
          "name": "isBullish",
          "type": "bool"
        }
      ],
      "name": "deposit",
      "outputs": [],
      "stateMutability": "payable",
      "type": "function"
    },
    {
      "inputs": [
        {
          "internalType": "address",
          "name": "",
          "type": "address"
        }
      ],
      "name": "depositorToAmount",
      "outputs": [
        {
          "internalType": "uint256",
          "name": "",
          "type": "uint256"
        }
      ],
      "stateMutability": "view",
      "type": "function"
    },
    {
      "inputs": [
        {
          "internalType": "address",
          "name": "",
          "type": "address"
        }
      ],
      "name": "depositorToIsBullish",
      "outputs": [
        {
          "internalType": "bool",
          "name": "",
          "type": "bool"
        }
      ],
      "stateMutability": "view",
      "type": "function"
    },
    {
      "inputs": [
        {
          "internalType": "uint256",
          "name": "betId",
          "type": "uint256"
        }
      ],
      "name": "getBet",
      "outputs": [
        {
          "components": [
            {
              "internalType": "uint256",
              "name": "betId",
              "type": "uint256"
            },
            {
              "internalType": "uint256",
              "name": "startTime",
              "type": "uint256"
            },
            {
              "internalType": "uint256",
              "name": "assetPrice",
              "type": "uint256"
            },
            {
              "internalType": "enum Contract.Status",
              "name": "status",
              "type": "uint8"
            }
          ],
          "internalType": "struct Contract.Bet",
          "name": "",
          "type": "tuple"
        }
      ],
      "stateMutability": "view",
      "type": "function"
    },
    {
      "inputs": [
        {
          "internalType": "uint256",
          "name": "",
          "type": "uint256"
        }
      ],
      "name": "idToDepositor",
      "outputs": [
        {
          "internalType": "address",
          "name": "",
          "type": "address"
        }
      ],
      "stateMutability": "view",
      "type": "function"
    },
    {
      "inputs": [
        {
          "internalType": "bool",
          "name": "",
          "type": "bool"
        }
      ],
      "name": "isBullishToAmount",
      "outputs": [
        {
          "internalType": "uint256",
          "name": "",
          "type": "uint256"
        }
      ],
      "stateMutability": "view",
      "type": "function"
    },
    {
      "inputs": [],
      "name": "owner",
      "outputs": [
        {
          "internalType": "address",
          "name": "",
          "type": "address"
        }
      ],
      "stateMutability": "view",
      "type": "function"
    },
    {
      "inputs": [],
      "name": "renounceOwnership",
      "outputs": [],
      "stateMutability": "nonpayable",
      "type": "function"
    },
    {
      "inputs": [
        {
          "internalType": "uint256",
          "name": "betId",
          "type": "uint256"
        },
        {
          "internalType": "address",
          "name": "_priceFeed",
          "type": "address"
        }
      ],
      "name": "settleEpoch",
      "outputs": [],
      "stateMutability": "nonpayable",
      "type": "function"
    },
    {
      "inputs": [
        {
          "internalType": "address",
          "name": "newOwner",
          "type": "address"
        }
      ],
      "name": "transferOwnership",
      "outputs": [],
      "stateMutability": "nonpayable",
      "type": "function"
    },
    {
      "inputs": [
        {
          "internalType": "uint256",
          "name": "betId",
          "type": "uint256"
        }
      ],
      "name": "withdraw",
      "outputs": [],
      "stateMutability": "nonpayable",
      "type": "function"
    },
    {
      "stateMutability": "payable",
      "type": "receive"
    }
  ],
  "bytecode": {
    "object": "0x608060405260018055600160025534801561001957600080fd5b5061002333610028565b610078565b600080546001600160a01b038381166001600160a01b0319831681178455604051919092169283917f8be0079c531659141344cd1fd0a4f28419497f9722a3daafe3b4186f6b6457e09190a35050565b610f61806100876000396000f3fe6080604052600436106100e15760003560e01c8063715018a61161007f5780638da5cb5b116100595780638da5cb5b146102ba5780639060db55146102d8578063a4b47b1414610318578063f2fde38b1461033857600080fd5b8063715018a61461026557806378c6c1571461027a57806383b24c521461029a57600080fd5b80632e1a7d4d116100bb5780632e1a7d4d146101c85780633a6a3850146101ea57806343a0d06614610225578063586271621461023857600080fd5b8063061e494f146100ed5780631a8ef8c21461012357806322af00fa1461017157600080fd5b366100e857005b600080fd5b3480156100f957600080fd5b5061010d610108366004610ce0565b610358565b60405161011a9190610d31565b60405180910390f35b34801561012f57600080fd5b5061015961013e366004610ce0565b6007602052600090815260409020546001600160a01b031681565b6040516001600160a01b03909116815260200161011a565b34801561017d57600080fd5b506101b861018c366004610ce0565b600360208190526000918252604090912080546001820154600283015492909301549092919060ff1684565b60405161011a9493929190610d6a565b3480156101d457600080fd5b506101e86101e3366004610ce0565b6103da565b005b3480156101f657600080fd5b50610217610205366004610da5565b60066020526000908152604090205481565b60405190815260200161011a565b6101e8610233366004610dc0565b6104a1565b34801561024457600080fd5b50610217610253366004610e0c565b60056020526000908152604090205481565b34801561027157600080fd5b506101e8610666565b34801561028657600080fd5b506101e8610295366004610e27565b6106a5565b3480156102a657600080fd5b506101e86102b5366004610ce0565b610930565b3480156102c657600080fd5b506000546001600160a01b0316610159565b3480156102e457600080fd5b506103086102f3366004610e0c565b60046020526000908152604090205460ff1681565b604051901515815260200161011a565b34801561032457600080fd5b50610217610333366004610e0c565b6109e6565b34801561034457600080fd5b506101e8610353366004610e0c565b610afb565b610360610ca8565b600360008381526020019081526020016000206040518060800160405290816000820154815260200160018201548152602001600282015481526020016003820160009054906101000a900460ff1660028111156103c0576103c0610cf9565b60028111156103d1576103d1610cf9565b90525092915050565b60026000828152600360208190526040909120015460ff16600281111561040357610403610cf9565b1461042157604051637e2b277560e11b815260040160405180910390fd5b336000818152600560205260409020548061044f57604051630686827b60e51b815260040160405180910390fd5b6104598282610b96565b816001600160a01b03167f884edad9ce6fa2440d8a54cc123490eb96d2768479d49ff9c7366125a94243648260405161049491815260200190565b60405180910390a2505050565b60016000848152600360208190526040909120015460ff1660028111156104ca576104ca610cf9565b14156104e95760405163b01c554960e01b815260040160405180910390fd5b333483111561050b57604051632ca2f52b60e11b815260040160405180910390fd5b6001600160a01b0381166000908152600460209081526040808320805460ff1916861515179055600590915281208054859290610549908490610e69565b90915550508115156000908152600660205260408120805485929061056f908490610e69565b909155505060028054600090815260076020526040812080546001600160a01b0319166001600160a01b038516179055815491906105ac83610e81565b9091555050604051600090309085908381818185875af1925050503d80600081146105f3576040519150601f19603f3d011682016040523d82523d6000602084013e6105f8565b606091505b505090508061061a5760405163e1452b0960e01b815260040160405180910390fd5b6040805185815284151560208201526001600160a01b038416917f693c1828300d1cab0919b948d714897f817e305af51c026ad14233b6a8939adb910160405180910390a25050505050565b6000546001600160a01b031633146106995760405162461bcd60e51b815260040161069090610e9c565b60405180910390fd5b6106a36000610bec565b565b6000546001600160a01b031633146106cf5760405162461bcd60e51b815260040161069090610e9c565b600082815260036020526040902060018101544290816106f262093a8083610e69565b111561071157604051637e2b277560e11b815260040160405180910390fd5b6002830154600061072186610c3c565b60066020527f54cdd369e4e8a8515e52ca72ec816c2101831ad1f18bf44102ed171459c9b4f85460016000527f3e5fec24aa4dc4e5aee2e025e51e1392c72a2500577559fae9665c6d52bd6a3154919250908383106108495760005b600254811015610843576000818152600760209081526040808320546001600160a01b031680845260049092529091205460ff166107d3576001600160a01b038116600090815260056020526040812055610832565b6001600160a01b0381166000908152600560205260408120546107f7908590610ed1565b90506108038582610ef3565b6001600160a01b0383166000908152600560205260408120805490919061082b908490610e69565b9091555050505b5061083c81610e81565b905061077d565b50610915565b60005b600254811015610913576000818152600760209081526040808320546001600160a01b031680845260049092529091205460ff16156108a3576001600160a01b038116600090815260056020526040812055610902565b6001600160a01b0381166000908152600560205260408120546108c7908690610ed1565b90506108d38582610ef3565b6001600160a01b038316600090815260056020526040812080549091906108fb908490610e69565b9091555050505b5061090c81610e81565b905061084c565b505b50505050600392909201805460ff1916600217905550505050565b6000546001600160a01b0316331461095a5760405162461bcd60e51b815260040161069090610e9c565b600081815260036020526040812090600382015460ff16600281111561098257610982610cf9565b146109a057604051631e42390960e01b815260040160405180910390fd5b60038101805460ff191660011790556040518281527f0eece8d5a08d055ab5110a6ecddd40f483417a5ba1e85d80db5ec862ac8209d09060200160405180910390a15050565b600080546001600160a01b03163314610a115760405162461bcd60e51b815260040161069090610e9c565b600060405180608001604052806001548152602001428152602001610a3585610c3c565b8152602001600081525090508060036000600154815260200190815260200160002060008201518160000155602082015181600101556040820151816002015560608201518160030160006101000a81548160ff02191690836002811115610a9f57610a9f610cf9565b0217905550506001805491506000610ab683610e81565b91905055507f76fcae05a8f6d87f57fc4819b1ddd1a7fb18657bb476d057b5e708a68cf592cc81604051610aea9190610d31565b60405180910390a15190505b919050565b6000546001600160a01b03163314610b255760405162461bcd60e51b815260040161069090610e9c565b6001600160a01b038116610b8a5760405162461bcd60e51b815260206004820152602660248201527f4f776e61626c653a206e6577206f776e657220697320746865207a65726f206160448201526564647265737360d01b6064820152608401610690565b610b9381610bec565b50565b600080600080600085875af1905080610be75760405162461bcd60e51b815260206004820152601360248201527211551217d514905394d1915497d19052531151606a1b6044820152606401610690565b505050565b600080546001600160a01b038381166001600160a01b0319831681178455604051919092169283917f8be0079c531659141344cd1fd0a4f28419497f9722a3daafe3b4186f6b6457e09190a35050565b600080826001600160a01b03166359e02dd76040518163ffffffff1660e01b8152600401602060405180830381865afa158015610c7d573d6000803e3d6000fd5b505050506040513d601f19601f82011682018060405250810190610ca19190610f12565b9392505050565b604051806080016040528060008152602001600081526020016000815260200160006002811115610cdb57610cdb610cf9565b905290565b600060208284031215610cf257600080fd5b5035919050565b634e487b7160e01b600052602160045260246000fd5b60038110610d2d57634e487b7160e01b600052602160045260246000fd5b9052565b60006080820190508251825260208301516020830152604083015160408301526060830151610d636060840182610d0f565b5092915050565b848152602081018490526040810183905260808101610d8c6060830184610d0f565b95945050505050565b80358015158114610af657600080fd5b600060208284031215610db757600080fd5b610ca182610d95565b600080600060608486031215610dd557600080fd5b8335925060208401359150610dec60408501610d95565b90509250925092565b80356001600160a01b0381168114610af657600080fd5b600060208284031215610e1e57600080fd5b610ca182610df5565b60008060408385031215610e3a57600080fd5b82359150610e4a60208401610df5565b90509250929050565b634e487b7160e01b600052601160045260246000fd5b60008219821115610e7c57610e7c610e53565b500190565b6000600019821415610e9557610e95610e53565b5060010190565b6020808252818101527f4f776e61626c653a2063616c6c6572206973206e6f7420746865206f776e6572604082015260600190565b600082610eee57634e487b7160e01b600052601260045260246000fd5b500490565b6000816000190483118215151615610f0d57610f0d610e53565b500290565b600060208284031215610f2457600080fd5b505191905056fea264697066735822122095d13fd4f4dd7440d9343cd1d6be967e91982f30841a6c0dbad5ca224f28a29a64736f6c634300080a0033",
    "linkReferences": {}
  }
}