{
  "abi": [
    {
      "inputs": [],
      "name": "EpochEnded",
      "type": "error"
    },
    {
      "inputs": [],
      "name": "EpochIsOngoing",
      "type": "error"
    },
    {
      "inputs": [],
      "name": "FailToDeposit",
      "type": "error"
    },
    {
      "inputs": [],
      "name": "InsufficientAmount",
      "type": "error"
    },
    {
      "inputs": [],
      "name": "NothingToWithdraw",
      "type": "error"
    },
    {
      "inputs": [],
      "name": "Unauthorized",
      "type": "error"
    },
    {
      "anonymous": false,
      "inputs": [
        {
          "components": [
            {
              "internalType": "uint256",
              "name": "betId",
              "type": "uint256"
            },
            {
              "internalType": "uint256",
              "name": "startTime",
              "type": "uint256"
            },
            {
              "internalType": "uint256",
              "name": "assetPrice",
              "type": "uint256"
            }
          ],
          "indexed": false,
          "internalType": "struct Contract.Bet",
          "name": "bet",
          "type": "tuple"
        }
      ],
      "name": "BetCreated",
      "type": "event"
    },
    {
      "anonymous": false,
      "inputs": [
        {
          "indexed": true,
          "internalType": "address",
          "name": "depositor",
          "type": "address"
        },
        {
          "indexed": false,
          "internalType": "uint256",
          "name": "amount",
          "type": "uint256"
        },
        {
          "indexed": false,
          "internalType": "bool",
          "name": "isBullish",
          "type": "bool"
        }
      ],
      "name": "Deposited",
      "type": "event"
    },
    {
      "anonymous": false,
      "inputs": [
        {
          "indexed": true,
          "internalType": "address",
          "name": "previousOwner",
          "type": "address"
        },
        {
          "indexed": true,
          "internalType": "address",
          "name": "newOwner",
          "type": "address"
        }
      ],
      "name": "OwnershipTransferred",
      "type": "event"
    },
    {
      "anonymous": false,
      "inputs": [
        {
          "indexed": true,
          "internalType": "address",
          "name": "depositor",
          "type": "address"
        },
        {
          "indexed": false,
          "internalType": "uint256",
          "name": "amount",
          "type": "uint256"
        }
      ],
      "name": "Withdraw",
      "type": "event"
    },
    {
      "inputs": [
        {
          "internalType": "address",
          "name": "_priceFeed",
          "type": "address"
        }
      ],
      "name": "createBet",
      "outputs": [
        {
          "internalType": "uint256",
          "name": "",
          "type": "uint256"
        }
      ],
      "stateMutability": "nonpayable",
      "type": "function"
    },
    {
      "inputs": [
        {
          "internalType": "uint256",
          "name": "amount",
          "type": "uint256"
        },
        {
          "internalType": "bool",
          "name": "isBullish",
          "type": "bool"
        }
      ],
      "name": "deposit",
      "outputs": [],
      "stateMutability": "payable",
      "type": "function"
    },
    {
      "inputs": [
        {
          "internalType": "address",
          "name": "",
          "type": "address"
        }
      ],
      "name": "depositorToAmount",
      "outputs": [
        {
          "internalType": "uint256",
          "name": "",
          "type": "uint256"
        }
      ],
      "stateMutability": "view",
      "type": "function"
    },
    {
      "inputs": [
        {
          "internalType": "uint256",
          "name": "betId",
          "type": "uint256"
        }
      ],
      "name": "getBet",
      "outputs": [
        {
          "components": [
            {
              "internalType": "uint256",
              "name": "betId",
              "type": "uint256"
            },
            {
              "internalType": "uint256",
              "name": "startTime",
              "type": "uint256"
            },
            {
              "internalType": "uint256",
              "name": "assetPrice",
              "type": "uint256"
            }
          ],
          "internalType": "struct Contract.Bet",
          "name": "",
          "type": "tuple"
        }
      ],
      "stateMutability": "view",
      "type": "function"
    },
    {
      "inputs": [],
      "name": "owner",
      "outputs": [
        {
          "internalType": "address",
          "name": "",
          "type": "address"
        }
      ],
      "stateMutability": "view",
      "type": "function"
    },
    {
      "inputs": [],
      "name": "renounceOwnership",
      "outputs": [],
      "stateMutability": "nonpayable",
      "type": "function"
    },
    {
      "inputs": [
        {
          "internalType": "uint256",
          "name": "betId",
          "type": "uint256"
        },
        {
          "internalType": "address",
          "name": "_priceFeed",
          "type": "address"
        }
      ],
      "name": "settleEpoch",
      "outputs": [],
      "stateMutability": "nonpayable",
      "type": "function"
    },
    {
      "inputs": [
        {
          "internalType": "address",
          "name": "newOwner",
          "type": "address"
        }
      ],
      "name": "transferOwnership",
      "outputs": [],
      "stateMutability": "nonpayable",
      "type": "function"
    },
    {
      "inputs": [],
      "name": "withdraw",
      "outputs": [],
      "stateMutability": "nonpayable",
      "type": "function"
    },
    {
      "stateMutability": "payable",
      "type": "receive"
    }
  ],
  "bytecode": {
    "object": "0x608060405260018055600160025534801561001957600080fd5b5061002333610028565b610078565b600080546001600160a01b038381166001600160a01b0319831681178455604051919092169283917f8be0079c531659141344cd1fd0a4f28419497f9722a3daafe3b4186f6b6457e09190a35050565b610bf4806100876000396000f3fe60806040526004361061008a5760003560e01c806378c6c1571161005957806378c6c157146101445780638da5cb5b146101645780639a4083211461018c578063a4b47b141461019f578063f2fde38b146101bf57600080fd5b8063061e494f146100965780633ccfd60b146100dd57806358627162146100f4578063715018a61461012f57600080fd5b3661009157005b600080fd5b3480156100a257600080fd5b506100b66100b1366004610a24565b6101df565b60408051825181526020808401519082015291810151908201526060015b60405180910390f35b3480156100e957600080fd5b506100f261023c565b005b34801561010057600080fd5b5061012161010f366004610a54565b60066020526000908152604090205481565b6040519081526020016100d4565b34801561013b57600080fd5b506100f26102f2565b34801561015057600080fd5b506100f261015f366004610a6f565b610331565b34801561017057600080fd5b506000546040516001600160a01b0390911681526020016100d4565b6100f261019a366004610a9b565b6105dc565b3480156101ab57600080fd5b506101216101ba366004610a54565b610790565b3480156101cb57600080fd5b506100f26101da366004610a54565b610877565b61020360405180606001604052806000815260200160008152602001600081525090565b50600090815260046020908152604091829020825160608101845281548152600182015492810192909252600201549181019190915290565b600160035460ff16600181111561025557610255610ad0565b1461027357604051637e2b277560e11b815260040160405180910390fd5b33600081815260066020526040902054806102a157604051630686827b60e51b815260040160405180910390fd5b6102ab8282610912565b816001600160a01b03167f884edad9ce6fa2440d8a54cc123490eb96d2768479d49ff9c7366125a9424364826040516102e691815260200190565b60405180910390a25050565b6000546001600160a01b031633146103255760405162461bcd60e51b815260040161031c90610ae6565b60405180910390fd5b61032f6000610968565b565b6000546001600160a01b0316331461035b5760405162461bcd60e51b815260040161031c90610ae6565b6000828152600460209081526040918290208251606081018452815481526001820154928101839052600290910154928101929092524290816103a162093a8083610b31565b10156103c057604051637e2b277560e11b815260040160405180910390fd5b604083015160006103d0866109b8565b60076020527f6d5257204ebe7d88fd91ae87941cb2dd9d8062b64ae5a2bd2d28ec40b9fbf6df5460016000527fb39221ace053465ec3453ce2b36430bd138b997ecea25c1043da0c366812b82854919250908383106104f85760005b6002548110156104f2576000818152600860209081526040808320546001600160a01b031680845260059092529091205460ff16610482576001600160a01b0381166000908152600660205260408120556104e1565b6001600160a01b0381166000908152600660205260408120546104a6908590610b49565b90506104b28582610b6b565b6001600160a01b038316600090815260066020526040812080549091906104da908490610b31565b9091555050505b506104eb81610b8a565b905061042c565b506105c4565b60005b6002548110156105c2576000818152600860209081526040808320546001600160a01b031680845260059092529091205460ff1615610552576001600160a01b0381166000908152600660205260408120556105b1565b6001600160a01b038116600090815260066020526040812054610576908690610b49565b90506105828582610b6b565b6001600160a01b038316600090815260066020526040812080549091906105aa908490610b31565b9091555050505b506105bb81610b8a565b90506104fb565b505b50506003805460ff1916600117905550505050505050565b600160035460ff1660018111156105f5576105f5610ad0565b141561061457604051636bec07d760e11b815260040160405180910390fd5b333483111561063657604051632ca2f52b60e11b815260040160405180910390fd5b6001600160a01b0381166000908152600560209081526040808320805460ff1916861515179055600690915281208054859290610674908490610b31565b90915550508115156000908152600760205260408120805485929061069a908490610b31565b909155505060028054600090815260086020526040812080546001600160a01b0319166001600160a01b038516179055815491906106d783610b8a565b9091555050604051600090309085908381818185875af1925050503d806000811461071e576040519150601f19603f3d011682016040523d82523d6000602084013e610723565b606091505b50509050806107455760405163e1452b0960e01b815260040160405180910390fd5b6040805185815284151560208201526001600160a01b038416917f35dbbfd0d3585577ae3feb7437be44befd94c36d05e086795fa0016e0d22d496910160405180910390a250505050565b600080546001600160a01b031633146107bb5760405162461bcd60e51b815260040161031c90610ae6565b6000604051806060016040528060015481526020014281526020016107df856109b8565b9052600180546000908152600460209081526040808320855181559185015182850155840151600290910155815492935061081983610b8a565b90915550506003805460ff19169055604080518251815260208084015190820152828201518183015290517f33552bc7117d0f403c7cf4ea5a1697573df4d94768eee2bab39ad62214f734559181900360600190a15190505b919050565b6000546001600160a01b031633146108a15760405162461bcd60e51b815260040161031c90610ae6565b6001600160a01b0381166109065760405162461bcd60e51b815260206004820152602660248201527f4f776e61626c653a206e6577206f776e657220697320746865207a65726f206160448201526564647265737360d01b606482015260840161031c565b61090f81610968565b50565b600080600080600085875af19050806109635760405162461bcd60e51b815260206004820152601360248201527211551217d514905394d1915497d19052531151606a1b604482015260640161031c565b505050565b600080546001600160a01b038381166001600160a01b0319831681178455604051919092169283917f8be0079c531659141344cd1fd0a4f28419497f9722a3daafe3b4186f6b6457e09190a35050565b600080826001600160a01b03166359e02dd76040518163ffffffff1660e01b8152600401602060405180830381865afa1580156109f9573d6000803e3d6000fd5b505050506040513d601f19601f82011682018060405250810190610a1d9190610ba5565b9392505050565b600060208284031215610a3657600080fd5b5035919050565b80356001600160a01b038116811461087257600080fd5b600060208284031215610a6657600080fd5b610a1d82610a3d565b60008060408385031215610a8257600080fd5b82359150610a9260208401610a3d565b90509250929050565b60008060408385031215610aae57600080fd5b8235915060208301358015158114610ac557600080fd5b809150509250929050565b634e487b7160e01b600052602160045260246000fd5b6020808252818101527f4f776e61626c653a2063616c6c6572206973206e6f7420746865206f776e6572604082015260600190565b634e487b7160e01b600052601160045260246000fd5b60008219821115610b4457610b44610b1b565b500190565b600082610b6657634e487b7160e01b600052601260045260246000fd5b500490565b6000816000190483118215151615610b8557610b85610b1b565b500290565b6000600019821415610b9e57610b9e610b1b565b5060010190565b600060208284031215610bb757600080fd5b505191905056fea26469706673582212203e546d5cc5746fe980801d827ffde9a827a40210d225ad00bef633c7caa9519d64736f6c634300080a0033",
    "linkReferences": {}
  }
}