{
  "abi": [
    {
      "inputs": [],
      "name": "EpochEnded",
      "type": "error"
    },
    {
      "inputs": [],
      "name": "EpochIsOngoing",
      "type": "error"
    },
    {
      "inputs": [],
      "name": "FailToDeposit",
      "type": "error"
    },
    {
      "inputs": [],
      "name": "InsufficientAmount",
      "type": "error"
    },
    {
      "inputs": [],
      "name": "NothingToWithdraw",
      "type": "error"
    },
    {
      "inputs": [],
      "name": "Unauthorized",
      "type": "error"
    },
    {
      "anonymous": false,
      "inputs": [
        {
          "components": [
            {
              "internalType": "uint256",
              "name": "betId",
              "type": "uint256"
            },
            {
              "internalType": "uint256",
              "name": "startTime",
              "type": "uint256"
            },
            {
              "internalType": "uint256",
              "name": "assetPrice",
              "type": "uint256"
            }
          ],
          "indexed": false,
          "internalType": "struct Contract.Bet",
          "name": "bet",
          "type": "tuple"
        }
      ],
      "name": "BetCreated",
      "type": "event"
    },
    {
      "anonymous": false,
      "inputs": [
        {
          "indexed": true,
          "internalType": "address",
          "name": "depositor",
          "type": "address"
        },
        {
          "indexed": false,
          "internalType": "uint256",
          "name": "amount",
          "type": "uint256"
        },
        {
          "indexed": false,
          "internalType": "bool",
          "name": "isBullish",
          "type": "bool"
        }
      ],
      "name": "Deposited",
      "type": "event"
    },
    {
      "anonymous": false,
      "inputs": [
        {
          "indexed": true,
          "internalType": "address",
          "name": "previousOwner",
          "type": "address"
        },
        {
          "indexed": true,
          "internalType": "address",
          "name": "newOwner",
          "type": "address"
        }
      ],
      "name": "OwnershipTransferred",
      "type": "event"
    },
    {
      "anonymous": false,
      "inputs": [
        {
          "indexed": true,
          "internalType": "address",
          "name": "depositor",
          "type": "address"
        },
        {
          "indexed": false,
          "internalType": "uint256",
          "name": "amount",
          "type": "uint256"
        }
      ],
      "name": "Withdraw",
      "type": "event"
    },
    {
      "inputs": [],
      "name": "createBet",
      "outputs": [],
      "stateMutability": "nonpayable",
      "type": "function"
    },
    {
      "inputs": [
        {
          "internalType": "uint256",
          "name": "amount",
          "type": "uint256"
        },
        {
          "internalType": "bool",
          "name": "isBullish",
          "type": "bool"
        }
      ],
      "name": "deposit",
      "outputs": [],
      "stateMutability": "payable",
      "type": "function"
    },
    {
      "inputs": [],
      "name": "owner",
      "outputs": [
        {
          "internalType": "address",
          "name": "",
          "type": "address"
        }
      ],
      "stateMutability": "view",
      "type": "function"
    },
    {
      "inputs": [],
      "name": "renounceOwnership",
      "outputs": [],
      "stateMutability": "nonpayable",
      "type": "function"
    },
    {
      "inputs": [
        {
          "internalType": "uint256",
          "name": "betId",
          "type": "uint256"
        }
      ],
      "name": "settleEpoch",
      "outputs": [],
      "stateMutability": "nonpayable",
      "type": "function"
    },
    {
      "inputs": [
        {
          "internalType": "address",
          "name": "newOwner",
          "type": "address"
        }
      ],
      "name": "transferOwnership",
      "outputs": [],
      "stateMutability": "nonpayable",
      "type": "function"
    },
    {
      "inputs": [],
      "name": "withdraw",
      "outputs": [],
      "stateMutability": "nonpayable",
      "type": "function"
    },
    {
      "stateMutability": "payable",
      "type": "receive"
    }
  ],
  "bytecode": {
    "object": "0x608060405260018055600160025534801561001957600080fd5b5061002333610028565b610078565b600080546001600160a01b038381166001600160a01b0319831681178455604051919092169283917f8be0079c531659141344cd1fd0a4f28419497f9722a3daafe3b4186f6b6457e09190a35050565b610a32806100876000396000f3fe6080604052600436106100745760003560e01c80638da5cb5b1161004e5780638da5cb5b146100cc5780639a408321146100f8578063dec9ba441461010b578063f2fde38b1461012057600080fd5b80633ccfd60b146100805780634d35fa7e14610097578063715018a6146100b757600080fd5b3661007b57005b600080fd5b34801561008c57600080fd5b50610095610140565b005b3480156100a357600080fd5b506100956100b23660046108a9565b6101f6565b3480156100c357600080fd5b5061009561049f565b3480156100d857600080fd5b50600054604080516001600160a01b039092168252519081900360200190f35b6100956101063660046108c2565b6104d5565b34801561011757600080fd5b50610095610689565b34801561012c57600080fd5b5061009561013b3660046108f7565b610768565b600160035460ff16600181111561015957610159610927565b1461017757604051637e2b277560e11b815260040160405180910390fd5b33600081815260066020526040902054806101a557604051630686827b60e51b815260040160405180910390fd5b6101af8282610803565b816001600160a01b03167f884edad9ce6fa2440d8a54cc123490eb96d2768479d49ff9c7366125a9424364826040516101ea91815260200190565b60405180910390a25050565b6000546001600160a01b031633146102295760405162461bcd60e51b81526004016102209061093d565b60405180910390fd5b60008181526004602090815260409182902082516060810184528154815260018201549281018390526002909101549281019290925242908161026f62093a8083610988565b101561028e57604051637e2b277560e11b815260040160405180910390fd5b604083015160076020527f6d5257204ebe7d88fd91ae87941cb2dd9d8062b64ae5a2bd2d28ec40b9fbf6df54600160008190527fb39221ace053465ec3453ce2b36430bd138b997ecea25c1043da0c366812b828549091908383106103bc5760005b6002548110156103b6576000818152600860209081526040808320546001600160a01b031680845260059092529091205460ff16610346576001600160a01b0381166000908152600660205260408120556103a5565b6001600160a01b03811660009081526006602052604081205461036a9085906109a0565b905061037685826109c2565b6001600160a01b0383166000908152600660205260408120805490919061039e908490610988565b9091555050505b506103af816109e1565b90506102f0565b50610488565b60005b600254811015610486576000818152600860209081526040808320546001600160a01b031680845260059092529091205460ff1615610416576001600160a01b038116600090815260066020526040812055610475565b6001600160a01b03811660009081526006602052604081205461043a9086906109a0565b905061044685826109c2565b6001600160a01b0383166000908152600660205260408120805490919061046e908490610988565b9091555050505b5061047f816109e1565b90506103bf565b505b50506003805460ff19166001179055505050505050565b6000546001600160a01b031633146104c95760405162461bcd60e51b81526004016102209061093d565b6104d36000610859565b565b600160035460ff1660018111156104ee576104ee610927565b141561050d57604051636bec07d760e11b815260040160405180910390fd5b333483111561052f57604051632ca2f52b60e11b815260040160405180910390fd5b6001600160a01b0381166000908152600560209081526040808320805460ff191686151517905560069091528120805485929061056d908490610988565b909155505081151560009081526007602052604081208054859290610593908490610988565b909155505060028054600090815260086020526040812080546001600160a01b0319166001600160a01b038516179055815491906105d0836109e1565b9091555050604051600090309085908381818185875af1925050503d8060008114610617576040519150601f19603f3d011682016040523d82523d6000602084013e61061c565b606091505b505090508061063e5760405163e1452b0960e01b815260040160405180910390fd5b6040805185815284151560208201526001600160a01b038416917f35dbbfd0d3585577ae3feb7437be44befd94c36d05e086795fa0016e0d22d496910160405180910390a250505050565b6000546001600160a01b031633146106b35760405162461bcd60e51b81526004016102209061093d565b6000604051806060016040528060015481526020014281526020016106d6600190565b90526001805460009081526004602090815260408083208551815591850151828501558401516002909101558154929350610710836109e1565b90915550506003805460ff19169055604080518251815260208084015190820152828201518183015290517f33552bc7117d0f403c7cf4ea5a1697573df4d94768eee2bab39ad62214f734559181900360600190a150565b6000546001600160a01b031633146107925760405162461bcd60e51b81526004016102209061093d565b6001600160a01b0381166107f75760405162461bcd60e51b815260206004820152602660248201527f4f776e61626c653a206e6577206f776e657220697320746865207a65726f206160448201526564647265737360d01b6064820152608401610220565b61080081610859565b50565b600080600080600085875af19050806108545760405162461bcd60e51b815260206004820152601360248201527211551217d514905394d1915497d19052531151606a1b6044820152606401610220565b505050565b600080546001600160a01b038381166001600160a01b0319831681178455604051919092169283917f8be0079c531659141344cd1fd0a4f28419497f9722a3daafe3b4186f6b6457e09190a35050565b6000602082840312156108bb57600080fd5b5035919050565b600080604083850312156108d557600080fd5b82359150602083013580151581146108ec57600080fd5b809150509250929050565b60006020828403121561090957600080fd5b81356001600160a01b038116811461092057600080fd5b9392505050565b634e487b7160e01b600052602160045260246000fd5b6020808252818101527f4f776e61626c653a2063616c6c6572206973206e6f7420746865206f776e6572604082015260600190565b634e487b7160e01b600052601160045260246000fd5b6000821982111561099b5761099b610972565b500190565b6000826109bd57634e487b7160e01b600052601260045260246000fd5b500490565b60008160001904831182151516156109dc576109dc610972565b500290565b60006000198214156109f5576109f5610972565b506001019056fea264697066735822122025c84e9061fe71a5ef2b381ee8da01c93d2110b3baf834c71501b9a6dc91712a64736f6c634300080a0033",
    "linkReferences": {}
  }
}