{
  "abi": [
    {
      "inputs": [],
      "name": "EpochClosed",
      "type": "error"
    },
    {
      "inputs": [],
      "name": "EpochIsOngoing",
      "type": "error"
    },
    {
      "inputs": [],
      "name": "EpochMustHaveStarted",
      "type": "error"
    },
    {
      "inputs": [],
      "name": "FailToDeposit",
      "type": "error"
    },
    {
      "inputs": [],
      "name": "InsufficientAmount",
      "type": "error"
    },
    {
      "inputs": [],
      "name": "NothingToWithdraw",
      "type": "error"
    },
    {
      "inputs": [],
      "name": "Unauthorized",
      "type": "error"
    },
    {
      "anonymous": false,
      "inputs": [
        {
          "indexed": false,
          "internalType": "uint256",
          "name": "betId",
          "type": "uint256"
        }
      ],
      "name": "BetClosed",
      "type": "event"
    },
    {
      "anonymous": false,
      "inputs": [
        {
          "components": [
            {
              "internalType": "uint256",
              "name": "betId",
              "type": "uint256"
            },
            {
              "internalType": "uint256",
              "name": "startTime",
              "type": "uint256"
            },
            {
              "internalType": "uint256",
              "name": "assetPrice",
              "type": "uint256"
            },
            {
              "internalType": "enum Contract.Status",
              "name": "status",
              "type": "uint8"
            }
          ],
          "indexed": false,
          "internalType": "struct Contract.Bet",
          "name": "bet",
          "type": "tuple"
        }
      ],
      "name": "BetCreated",
      "type": "event"
    },
    {
      "anonymous": false,
      "inputs": [
        {
          "indexed": true,
          "internalType": "address",
          "name": "depositor",
          "type": "address"
        },
        {
          "indexed": false,
          "internalType": "uint256",
          "name": "amount",
          "type": "uint256"
        },
        {
          "indexed": false,
          "internalType": "bool",
          "name": "isBullish",
          "type": "bool"
        }
      ],
      "name": "Deposit",
      "type": "event"
    },
    {
      "anonymous": false,
      "inputs": [],
      "name": "EpochSettle",
      "type": "event"
    },
    {
      "anonymous": false,
      "inputs": [
        {
          "indexed": true,
          "internalType": "address",
          "name": "previousOwner",
          "type": "address"
        },
        {
          "indexed": true,
          "internalType": "address",
          "name": "newOwner",
          "type": "address"
        }
      ],
      "name": "OwnershipTransferred",
      "type": "event"
    },
    {
      "anonymous": false,
      "inputs": [
        {
          "indexed": true,
          "internalType": "address",
          "name": "depositor",
          "type": "address"
        },
        {
          "indexed": false,
          "internalType": "uint256",
          "name": "amount",
          "type": "uint256"
        }
      ],
      "name": "Withdraw",
      "type": "event"
    },
    {
      "inputs": [],
      "name": "bearsAmount",
      "outputs": [
        {
          "internalType": "uint256",
          "name": "",
          "type": "uint256"
        }
      ],
      "stateMutability": "view",
      "type": "function"
    },
    {
      "inputs": [
        {
          "internalType": "uint256",
          "name": "",
          "type": "uint256"
        }
      ],
      "name": "bets",
      "outputs": [
        {
          "internalType": "uint256",
          "name": "betId",
          "type": "uint256"
        },
        {
          "internalType": "uint256",
          "name": "startTime",
          "type": "uint256"
        },
        {
          "internalType": "uint256",
          "name": "assetPrice",
          "type": "uint256"
        },
        {
          "internalType": "enum Contract.Status",
          "name": "status",
          "type": "uint8"
        }
      ],
      "stateMutability": "view",
      "type": "function"
    },
    {
      "inputs": [],
      "name": "bullsAmount",
      "outputs": [
        {
          "internalType": "uint256",
          "name": "",
          "type": "uint256"
        }
      ],
      "stateMutability": "view",
      "type": "function"
    },
    {
      "inputs": [
        {
          "internalType": "uint256",
          "name": "betId",
          "type": "uint256"
        }
      ],
      "name": "closeDeposit",
      "outputs": [],
      "stateMutability": "nonpayable",
      "type": "function"
    },
    {
      "inputs": [
        {
          "internalType": "address",
          "name": "_priceFeed",
          "type": "address"
        }
      ],
      "name": "createBet",
      "outputs": [
        {
          "internalType": "uint256",
          "name": "",
          "type": "uint256"
        }
      ],
      "stateMutability": "nonpayable",
      "type": "function"
    },
    {
      "inputs": [
        {
          "internalType": "uint256",
          "name": "betId",
          "type": "uint256"
        },
        {
          "internalType": "bool",
          "name": "isBullish",
          "type": "bool"
        }
      ],
      "name": "deposit",
      "outputs": [],
      "stateMutability": "payable",
      "type": "function"
    },
    {
      "inputs": [
        {
          "internalType": "address",
          "name": "",
          "type": "address"
        }
      ],
      "name": "depositorToAmount",
      "outputs": [
        {
          "internalType": "uint256",
          "name": "",
          "type": "uint256"
        }
      ],
      "stateMutability": "view",
      "type": "function"
    },
    {
      "inputs": [
        {
          "internalType": "address",
          "name": "",
          "type": "address"
        }
      ],
      "name": "depositorToIsBullish",
      "outputs": [
        {
          "internalType": "bool",
          "name": "",
          "type": "bool"
        }
      ],
      "stateMutability": "view",
      "type": "function"
    },
    {
      "inputs": [
        {
          "internalType": "address",
          "name": "",
          "type": "address"
        }
      ],
      "name": "depositors",
      "outputs": [
        {
          "internalType": "bool",
          "name": "",
          "type": "bool"
        }
      ],
      "stateMutability": "view",
      "type": "function"
    },
    {
      "inputs": [],
      "name": "owner",
      "outputs": [
        {
          "internalType": "address",
          "name": "",
          "type": "address"
        }
      ],
      "stateMutability": "view",
      "type": "function"
    },
    {
      "inputs": [],
      "name": "renounceOwnership",
      "outputs": [],
      "stateMutability": "nonpayable",
      "type": "function"
    },
    {
      "inputs": [
        {
          "internalType": "uint256",
          "name": "betId",
          "type": "uint256"
        },
        {
          "internalType": "address",
          "name": "_priceFeed",
          "type": "address"
        }
      ],
      "name": "settleEpoch",
      "outputs": [],
      "stateMutability": "nonpayable",
      "type": "function"
    },
    {
      "inputs": [
        {
          "internalType": "address",
          "name": "newOwner",
          "type": "address"
        }
      ],
      "name": "transferOwnership",
      "outputs": [],
      "stateMutability": "nonpayable",
      "type": "function"
    },
    {
      "inputs": [
        {
          "internalType": "uint256",
          "name": "betId",
          "type": "uint256"
        }
      ],
      "name": "withdraw",
      "outputs": [],
      "stateMutability": "nonpayable",
      "type": "function"
    },
    {
      "stateMutability": "payable",
      "type": "receive"
    }
  ],
  "bytecode": {
    "object": "0x60806040526001805560016002556000600355600060045534801561002357600080fd5b5061002d33610032565b610082565b600080546001600160a01b038381166001600160a01b0319831681178455604051919092169283917f8be0079c531659141344cd1fd0a4f28419497f9722a3daafe3b4186f6b6457e09190a35050565b611230806100916000396000f3fe6080604052600436106100e15760003560e01c806383b24c521161007f5780639a408321116100595780639a4083211461028d578063a4b47b14146102a0578063eed75f6d146102c0578063f2fde38b146102f057600080fd5b806383b24c52146102055780638da5cb5b146102255780639060db551461024d57600080fd5b80632e1a7d4d116100bb5780632e1a7d4d1461018157806358627162146101a3578063715018a6146101d057806378c6c157146101e557600080fd5b806303a0e032146100ed578063060e74011461011657806322af00fa1461012c57600080fd5b366100e857005b600080fd5b3480156100f957600080fd5b5061010360035481565b6040519081526020015b60405180910390f35b34801561012257600080fd5b5061010360045481565b34801561013857600080fd5b50610171610147366004610fd9565b60076020526000908152604090208054600182015460028301546003909301549192909160ff1684565b60405161010d949392919061102a565b34801561018d57600080fd5b506101a161019c366004610fd9565b610310565b005b3480156101af57600080fd5b506101036101be36600461106c565b600a6020526000908152604090205481565b3480156101dc57600080fd5b506101a16103ef565b3480156101f157600080fd5b506101a1610200366004611087565b61042e565b34801561021157600080fd5b506101a1610220366004610fd9565b610727565b34801561023157600080fd5b506000546040516001600160a01b03909116815260200161010d565b34801561025957600080fd5b5061027d61026836600461106c565b60086020526000908152604090205460ff1681565b604051901515815260200161010d565b6101a161029b3660046110b3565b6107dd565b3480156102ac57600080fd5b506101036102bb36600461106c565b6109e5565b3480156102cc57600080fd5b5061027d6102db36600461106c565b60096020526000908152604090205460ff1681565b3480156102fc57600080fd5b506101a161030b36600461106c565b610b02565b600260008281526007602052604090206003015460ff16600281111561033857610338610ff2565b1461035657604051637e2b277560e11b815260040160405180910390fd5b336000818152600a60205260409020548061038457604051630686827b60e51b815260040160405180910390fd5b6001600160a01b0382166000908152600a60205260408120556103a78282610b9d565b816001600160a01b03167f884edad9ce6fa2440d8a54cc123490eb96d2768479d49ff9c7366125a9424364826040516103e291815260200190565b60405180910390a2505050565b6000546001600160a01b031633146104225760405162461bcd60e51b8152600401610419906110e8565b60405180910390fd5b61042c6000610bf3565b565b6000546001600160a01b031633146104585760405162461bcd60e51b8152600401610419906110e8565b6000828152600760205260409020600181015442908161047b62093a8083611133565b111561049a57604051637e2b277560e11b815260040160405180910390fd5b600283015460006104aa86610c43565b90508181106105cb5760005b60055481101561055d576000600582815481106104d5576104d561114b565b60009182526020808320909101546001600160a01b0316808352600a9091526040822054600354919350919061050c908390610caf565b905061051a81600454610cf8565b6001600160a01b0384166000908152600a602052604081208054909190610542908490611133565b925050819055505050508061055690611161565b90506104b6565b5060005b6006548110156105b9576000600a6000600684815481106105845761058461114b565b60009182526020808320909101546001600160a01b031683528201929092526040019020556105b281611161565b9050610561565b506105c660066000610fa7565b6106de565b60005b600654811015610675576000600682815481106105ed576105ed61114b565b60009182526020808320909101546001600160a01b0316808352600a90915260408220546004549193509190610624908390610caf565b905061063281600354610cf8565b6001600160a01b0384166000908152600a60205260408120805490919061065a908490611133565b925050819055505050508061066e90611161565b90506105ce565b5060005b6005548110156106d1576000600a60006005848154811061069c5761069c61114b565b60009182526020808320909101546001600160a01b031683528201929092526040019020556106ca81611161565b9050610679565b506106de60056000610fa7565b6000600381815560048290558601805460ff191660021790556040517fb066eb84e90f0d010f4d59fde547951af64ef2f24fd6b125e6366e6fa03b40de9190a150505050505050565b6000546001600160a01b031633146107515760405162461bcd60e51b8152600401610419906110e8565b600081815260076020526040812090600382015460ff16600281111561077957610779610ff2565b1461079757604051631e42390960e01b815260040160405180910390fd5b60038101805460ff191660011790556040518281527f0eece8d5a08d055ab5110a6ecddd40f483417a5ba1e85d80db5ec862ac8209d09060200160405180910390a15050565b600160008381526007602052604090206003015460ff16600281111561080557610805610ff2565b14156108245760405163b01c554960e01b815260040160405180910390fd5b336000818152600860209081526040808320805460ff1916861515179055600a90915281208054349283929161085b908490611133565b909155505082156108cd5780600360008282546108789190611133565b9091555050600580546001810182556000919091527f036b6384b5eca791c62761152d0c79bb0604c104a5fb6f4eb0703f3154bb3db00180546001600160a01b0319166001600160a01b038416179055610930565b80600460008282546108df9190611133565b9091555050600680546001810182556000919091527ff652222313e28459528d920b65115c16c04f3efc82aaedc97be59f3f377c0d3f0180546001600160a01b0319166001600160a01b0384161790555b604051600090309083908381818185875af1925050503d8060008114610972576040519150601f19603f3d011682016040523d82523d6000602084013e610977565b606091505b50509050806109995760405163e1452b0960e01b815260040160405180910390fd5b6040805183815285151560208201526001600160a01b038516917f693c1828300d1cab0919b948d714897f817e305af51c026ad14233b6a8939adb910160405180910390a25050505050565b600080546001600160a01b03163314610a105760405162461bcd60e51b8152600401610419906110e8565b600060405180608001604052806001548152602001428152602001610a3485610c43565b8152602001600081525090508060076000600154815260200190815260200160002060008201518160000155602082015181600101556040820151816002015560608201518160030160006101000a81548160ff02191690836002811115610a9e57610a9e610ff2565b0217905550506001805491506000610ab583611161565b9190505550610ac2610d60565b7f76fcae05a8f6d87f57fc4819b1ddd1a7fb18657bb476d057b5e708a68cf592cc81604051610af1919061117c565b60405180910390a15190505b919050565b6000546001600160a01b03163314610b2c5760405162461bcd60e51b8152600401610419906110e8565b6001600160a01b038116610b915760405162461bcd60e51b815260206004820152602660248201527f4f776e61626c653a206e6577206f776e657220697320746865207a65726f206160448201526564647265737360d01b6064820152608401610419565b610b9a81610bf3565b50565b600080600080600085875af1905080610bee5760405162461bcd60e51b815260206004820152601360248201527211551217d514905394d1915497d19052531151606a1b6044820152606401610419565b505050565b600080546001600160a01b038381166001600160a01b0319831681178455604051919092169283917f8be0079c531659141344cd1fd0a4f28419497f9722a3daafe3b4186f6b6457e09190a35050565b600080826001600160a01b03166359e02dd76040518163ffffffff1660e01b8152600401602060405180830381865afa158015610c84573d6000803e3d6000fd5b505050506040513d601f19601f82011682018060405250810190610ca891906111b5565b9392505050565b600081610cbb57600080fd5b6000610cc78484610e45565b90506f7fffffffffffffffffffffffffffffff6001600160801b0382161115610cef57600080fd5b90505b92915050565b600081610d0757506000610cf2565b600083600f0b1215610d1857600080fd5b600f83900b6001600160801b038316810260401c90608084901c026001600160c01b03811115610d4757600080fd5b60401b8119811115610d5857600080fd5b019392505050565b60005b600554811015610dd257600a600060058381548110610d8457610d8461114b565b60009182526020808320909101546001600160a01b031683528201929092526040018120546003805491929091610dbc908490611133565b90915550610dcb905081611161565b9050610d63565b5060005b600654811015610b9a57600a600060068381548110610df757610df761114b565b60009182526020808320909101546001600160a01b031683528201929092526040018120546004805491929091610e2f908490611133565b90915550610e3e905081611161565b9050610dd6565b600081610e5157600080fd5b60006001600160c01b038411610e7c5782604085901b81610e7457610e746111ce565b049050610f93565b60c084811c6401000000008110610e95576020918201911c5b620100008110610ea7576010918201911c5b6101008110610eb8576008918201911c5b60108110610ec8576004918201911c5b60048110610ed8576002918201911c5b60028110610ee7576001820191505b60bf820360018603901c6001018260ff0387901b81610f0857610f086111ce565b0492506001600160801b03831115610f1f57600080fd5b608085901c83026001600160801b038616840260c088901c604089901b82811015610f4b576001820391505b608084901b92900382811015610f62576001820391505b829003608084901c8214610f7857610f786111e4565b888181610f8757610f876111ce565b04870196505050505050505b6001600160801b03811115610cef57600080fd5b5080546000825590600052602060002090810190610b9a91905b80821115610fd55760008155600101610fc1565b5090565b600060208284031215610feb57600080fd5b5035919050565b634e487b7160e01b600052602160045260246000fd5b6003811061102657634e487b7160e01b600052602160045260246000fd5b9052565b84815260208101849052604081018390526080810161104c6060830184611008565b95945050505050565b80356001600160a01b0381168114610afd57600080fd5b60006020828403121561107e57600080fd5b610ca882611055565b6000806040838503121561109a57600080fd5b823591506110aa60208401611055565b90509250929050565b600080604083850312156110c657600080fd5b82359150602083013580151581146110dd57600080fd5b809150509250929050565b6020808252818101527f4f776e61626c653a2063616c6c6572206973206e6f7420746865206f776e6572604082015260600190565b634e487b7160e01b600052601160045260246000fd5b600082198211156111465761114661111d565b500190565b634e487b7160e01b600052603260045260246000fd5b60006000198214156111755761117561111d565b5060010190565b600060808201905082518252602083015160208301526040830151604083015260608301516111ae6060840182611008565b5092915050565b6000602082840312156111c757600080fd5b5051919050565b634e487b7160e01b600052601260045260246000fd5b634e487b7160e01b600052600160045260246000fdfea2646970667358221220c76036c4cffe2eb653fae8a98f01b2df4ff147af63b30a525a5c56da3282fbcc64736f6c634300080a0033",
    "linkReferences": {}
  }
}