{
  "abi": [
    {
      "inputs": [],
      "name": "EpochClosed",
      "type": "error"
    },
    {
      "inputs": [],
      "name": "EpochIsOngoing",
      "type": "error"
    },
    {
      "inputs": [],
      "name": "EpochMustHaveStarted",
      "type": "error"
    },
    {
      "inputs": [],
      "name": "FailToDeposit",
      "type": "error"
    },
    {
      "inputs": [],
      "name": "InsufficientAmount",
      "type": "error"
    },
    {
      "inputs": [],
      "name": "NothingToWithdraw",
      "type": "error"
    },
    {
      "inputs": [],
      "name": "Unauthorized",
      "type": "error"
    },
    {
      "anonymous": false,
      "inputs": [
        {
          "indexed": false,
          "internalType": "uint256",
          "name": "betId",
          "type": "uint256"
        }
      ],
      "name": "BetClosed",
      "type": "event"
    },
    {
      "anonymous": false,
      "inputs": [
        {
          "components": [
            {
              "internalType": "uint256",
              "name": "betId",
              "type": "uint256"
            },
            {
              "internalType": "uint256",
              "name": "startTime",
              "type": "uint256"
            },
            {
              "internalType": "uint256",
              "name": "assetPrice",
              "type": "uint256"
            },
            {
              "internalType": "enum Contract.Status",
              "name": "status",
              "type": "uint8"
            }
          ],
          "indexed": false,
          "internalType": "struct Contract.Bet",
          "name": "bet",
          "type": "tuple"
        }
      ],
      "name": "BetCreated",
      "type": "event"
    },
    {
      "anonymous": false,
      "inputs": [
        {
          "indexed": true,
          "internalType": "address",
          "name": "depositor",
          "type": "address"
        },
        {
          "indexed": false,
          "internalType": "uint256",
          "name": "amount",
          "type": "uint256"
        },
        {
          "indexed": false,
          "internalType": "bool",
          "name": "isBullish",
          "type": "bool"
        }
      ],
      "name": "Deposit",
      "type": "event"
    },
    {
      "anonymous": false,
      "inputs": [],
      "name": "EpochSettle",
      "type": "event"
    },
    {
      "anonymous": false,
      "inputs": [
        {
          "indexed": true,
          "internalType": "address",
          "name": "previousOwner",
          "type": "address"
        },
        {
          "indexed": true,
          "internalType": "address",
          "name": "newOwner",
          "type": "address"
        }
      ],
      "name": "OwnershipTransferred",
      "type": "event"
    },
    {
      "anonymous": false,
      "inputs": [
        {
          "indexed": true,
          "internalType": "address",
          "name": "depositor",
          "type": "address"
        },
        {
          "indexed": false,
          "internalType": "uint256",
          "name": "amount",
          "type": "uint256"
        }
      ],
      "name": "Withdraw",
      "type": "event"
    },
    {
      "inputs": [
        {
          "internalType": "uint256",
          "name": "",
          "type": "uint256"
        }
      ],
      "name": "bets",
      "outputs": [
        {
          "internalType": "uint256",
          "name": "betId",
          "type": "uint256"
        },
        {
          "internalType": "uint256",
          "name": "startTime",
          "type": "uint256"
        },
        {
          "internalType": "uint256",
          "name": "assetPrice",
          "type": "uint256"
        },
        {
          "internalType": "enum Contract.Status",
          "name": "status",
          "type": "uint8"
        }
      ],
      "stateMutability": "view",
      "type": "function"
    },
    {
      "inputs": [
        {
          "internalType": "uint256",
          "name": "betId",
          "type": "uint256"
        }
      ],
      "name": "closeDeposit",
      "outputs": [],
      "stateMutability": "nonpayable",
      "type": "function"
    },
    {
      "inputs": [
        {
          "internalType": "address",
          "name": "_priceFeed",
          "type": "address"
        }
      ],
      "name": "createBet",
      "outputs": [
        {
          "internalType": "uint256",
          "name": "",
          "type": "uint256"
        }
      ],
      "stateMutability": "nonpayable",
      "type": "function"
    },
    {
      "inputs": [
        {
          "internalType": "uint256",
          "name": "betId",
          "type": "uint256"
        },
        {
          "internalType": "bool",
          "name": "isBullish",
          "type": "bool"
        }
      ],
      "name": "deposit",
      "outputs": [],
      "stateMutability": "payable",
      "type": "function"
    },
    {
      "inputs": [
        {
          "internalType": "address",
          "name": "",
          "type": "address"
        }
      ],
      "name": "depositorToAmount",
      "outputs": [
        {
          "internalType": "uint256",
          "name": "",
          "type": "uint256"
        }
      ],
      "stateMutability": "view",
      "type": "function"
    },
    {
      "inputs": [
        {
          "internalType": "address",
          "name": "",
          "type": "address"
        }
      ],
      "name": "depositorToIsBullish",
      "outputs": [
        {
          "internalType": "bool",
          "name": "",
          "type": "bool"
        }
      ],
      "stateMutability": "view",
      "type": "function"
    },
    {
      "inputs": [
        {
          "internalType": "address",
          "name": "",
          "type": "address"
        }
      ],
      "name": "depositors",
      "outputs": [
        {
          "internalType": "bool",
          "name": "",
          "type": "bool"
        }
      ],
      "stateMutability": "view",
      "type": "function"
    },
    {
      "inputs": [
        {
          "internalType": "uint256",
          "name": "",
          "type": "uint256"
        }
      ],
      "name": "idToDepositor",
      "outputs": [
        {
          "internalType": "address",
          "name": "",
          "type": "address"
        }
      ],
      "stateMutability": "view",
      "type": "function"
    },
    {
      "inputs": [
        {
          "internalType": "bool",
          "name": "",
          "type": "bool"
        }
      ],
      "name": "isBullishToAmount",
      "outputs": [
        {
          "internalType": "uint256",
          "name": "",
          "type": "uint256"
        }
      ],
      "stateMutability": "view",
      "type": "function"
    },
    {
      "inputs": [],
      "name": "owner",
      "outputs": [
        {
          "internalType": "address",
          "name": "",
          "type": "address"
        }
      ],
      "stateMutability": "view",
      "type": "function"
    },
    {
      "inputs": [],
      "name": "renounceOwnership",
      "outputs": [],
      "stateMutability": "nonpayable",
      "type": "function"
    },
    {
      "inputs": [
        {
          "internalType": "uint256",
          "name": "betId",
          "type": "uint256"
        },
        {
          "internalType": "address",
          "name": "_priceFeed",
          "type": "address"
        }
      ],
      "name": "settleEpoch",
      "outputs": [],
      "stateMutability": "nonpayable",
      "type": "function"
    },
    {
      "inputs": [
        {
          "internalType": "address",
          "name": "newOwner",
          "type": "address"
        }
      ],
      "name": "transferOwnership",
      "outputs": [],
      "stateMutability": "nonpayable",
      "type": "function"
    },
    {
      "inputs": [
        {
          "internalType": "uint256",
          "name": "betId",
          "type": "uint256"
        }
      ],
      "name": "withdraw",
      "outputs": [],
      "stateMutability": "nonpayable",
      "type": "function"
    },
    {
      "stateMutability": "payable",
      "type": "receive"
    }
  ],
  "bytecode": {
    "object": "0x608060405260018055600160025534801561001957600080fd5b5061002333610028565b610078565b600080546001600160a01b038381166001600160a01b0319831681178455604051919092169283917f8be0079c531659141344cd1fd0a4f28419497f9722a3daafe3b4186f6b6457e09190a35050565b611204806100876000396000f3fe6080604052600436106100e15760003560e01c806383b24c521161007f5780639a408321116100595780639a408321146102d4578063a4b47b14146102e7578063eed75f6d14610307578063f2fde38b1461033757600080fd5b806383b24c52146102565780638da5cb5b146102765780639060db551461029457600080fd5b80633a6a3850116100bb5780633a6a3850146101b957806358627162146101f4578063715018a61461022157806378c6c1571461023657600080fd5b80631a8ef8c2146100ed57806322af00fa146101405780632e1a7d4d1461019757600080fd5b366100e857005b600080fd5b3480156100f957600080fd5b50610123610108366004610faa565b6008602052600090815260409020546001600160a01b031681565b6040516001600160a01b0390911681526020015b60405180910390f35b34801561014c57600080fd5b5061018761015b366004610faa565b600360208190526000918252604090912080546001820154600283015492909301549092919060ff1684565b6040516101379493929190610ffb565b3480156101a357600080fd5b506101b76101b2366004610faa565b610357565b005b3480156101c557600080fd5b506101e66101d4366004611036565b60076020526000908152604090205481565b604051908152602001610137565b34801561020057600080fd5b506101e661020f366004611068565b60066020526000908152604090205481565b34801561022d57600080fd5b506101b7610453565b34801561024257600080fd5b506101b7610251366004611083565b610492565b34801561026257600080fd5b506101b7610271366004610faa565b6107b3565b34801561028257600080fd5b506000546001600160a01b0316610123565b3480156102a057600080fd5b506102c46102af366004611068565b60046020526000908152604090205460ff1681565b6040519015158152602001610137565b6101b76102e23660046110af565b610869565b3480156102f357600080fd5b506101e6610302366004611068565b610a40565b34801561031357600080fd5b506102c4610322366004611068565b60056020526000908152604090205460ff1681565b34801561034357600080fd5b506101b7610352366004611068565b610b5d565b60026000828152600360208190526040909120015460ff16600281111561038057610380610fc3565b1461039e57604051637e2b277560e11b815260040160405180910390fd5b33600081815260066020526040902054806103cc57604051630686827b60e51b815260040160405180910390fd5b6001600160a01b0382166000908152600660209081526040808320839055600482528083205460ff1615158352600790915281205561040b8282610bf8565b816001600160a01b03167f884edad9ce6fa2440d8a54cc123490eb96d2768479d49ff9c7366125a94243648260405161044691815260200190565b60405180910390a2505050565b6000546001600160a01b031633146104865760405162461bcd60e51b815260040161047d906110d2565b60405180910390fd5b6104906000610c4e565b565b6000546001600160a01b031633146104bc5760405162461bcd60e51b815260040161047d906110d2565b600082815260036020526040902060018101544290816104df62093a808361111d565b11156104fe57604051637e2b277560e11b815260040160405180910390fd5b6002830154600061050e86610c9e565b60076020527fb39221ace053465ec3453ce2b36430bd138b997ecea25c1043da0c366812b82854600080527f6d5257204ebe7d88fd91ae87941cb2dd9d8062b64ae5a2bd2d28ec40b9fbf6df54919250908383106106445760015b60025481101561063e576000818152600860209081526040808320546001600160a01b0316808452600690925290912054806105a657505061062e565b6001600160a01b03821660009081526004602052604090205460ff166105e4576001600160a01b03821660009081526006602052604081205561062b565b60006105f08287610d0a565b90506105fc8186610d53565b6001600160a01b0384166000908152600660205260408120805490919061062490849061111d565b9091555050505b50505b61063781611135565b9050610569565b5061071f565b60015b60025481101561071d576000818152600860209081526040808320546001600160a01b03168084526006909252909120548061068457505061070d565b6001600160a01b03821660009081526004602052604090205460ff16156106c3576001600160a01b03821660009081526006602052604081205561070a565b60006106cf8286610d0a565b90506106db8187610d53565b6001600160a01b0384166000908152600660205260408120805490919061070390849061111d565b9091555050505b50505b61071681611135565b9050610647565b505b600760205260007f6d5257204ebe7d88fd91ae87941cb2dd9d8062b64ae5a2bd2d28ec40b9fbf6df819055600181527fb39221ace053465ec3453ce2b36430bd138b997ecea25c1043da0c366812b82881905560038801805460ff191660021790556040517fb066eb84e90f0d010f4d59fde547951af64ef2f24fd6b125e6366e6fa03b40de9190a1505050505050505050565b6000546001600160a01b031633146107dd5760405162461bcd60e51b815260040161047d906110d2565b600081815260036020526040812090600382015460ff16600281111561080557610805610fc3565b1461082357604051631e42390960e01b815260040160405180910390fd5b60038101805460ff191660011790556040518281527f0eece8d5a08d055ab5110a6ecddd40f483417a5ba1e85d80db5ec862ac8209d09060200160405180910390a15050565b60016000838152600360208190526040909120015460ff16600281111561089257610892610fc3565b14156108b15760405163b01c554960e01b815260040160405180910390fd5b336000818152600460209081526040808320805460ff191686151517905560069091528120805434928392916108e890849061111d565b90915550508215156000908152600760205260408120805483929061090e90849061111d565b90915550506001600160a01b03821660009081526005602052604090205460ff1661098b576001600160a01b0382166000818152600560209081526040808320805460ff191660011790556002805484526008909252822080546001600160a01b0319169093179092558154919061098583611135565b91905055505b604051600090309083908381818185875af1925050503d80600081146109cd576040519150601f19603f3d011682016040523d82523d6000602084013e6109d2565b606091505b50509050806109f45760405163e1452b0960e01b815260040160405180910390fd5b6040805183815285151560208201526001600160a01b038516917f693c1828300d1cab0919b948d714897f817e305af51c026ad14233b6a8939adb910160405180910390a25050505050565b600080546001600160a01b03163314610a6b5760405162461bcd60e51b815260040161047d906110d2565b600060405180608001604052806001548152602001428152602001610a8f85610c9e565b8152602001600081525090508060036000600154815260200190815260200160002060008201518160000155602082015181600101556040820151816002015560608201518160030160006101000a81548160ff02191690836002811115610af957610af9610fc3565b0217905550506001805491506000610b1083611135565b9190505550610b1d610dbb565b7f76fcae05a8f6d87f57fc4819b1ddd1a7fb18657bb476d057b5e708a68cf592cc81604051610b4c9190611150565b60405180910390a15190505b919050565b6000546001600160a01b03163314610b875760405162461bcd60e51b815260040161047d906110d2565b6001600160a01b038116610bec5760405162461bcd60e51b815260206004820152602660248201527f4f776e61626c653a206e6577206f776e657220697320746865207a65726f206160448201526564647265737360d01b606482015260840161047d565b610bf581610c4e565b50565b600080600080600085875af1905080610c495760405162461bcd60e51b815260206004820152601360248201527211551217d514905394d1915497d19052531151606a1b604482015260640161047d565b505050565b600080546001600160a01b038381166001600160a01b0319831681178455604051919092169283917f8be0079c531659141344cd1fd0a4f28419497f9722a3daafe3b4186f6b6457e09190a35050565b600080826001600160a01b03166359e02dd76040518163ffffffff1660e01b8152600401602060405180830381865afa158015610cdf573d6000803e3d6000fd5b505050506040513d601f19601f82011682018060405250810190610d039190611189565b9392505050565b600081610d1657600080fd5b6000610d228484610e48565b90506f7fffffffffffffffffffffffffffffff6001600160801b0382161115610d4a57600080fd5b90505b92915050565b600081610d6257506000610d4d565b600083600f0b1215610d7357600080fd5b600f83900b6001600160801b038316810260401c90608084901c026001600160c01b03811115610da257600080fd5b60401b8119811115610db357600080fd5b019392505050565b60015b600254811015610bf5576000818152600860209081526040808320546001600160a01b03168084526006909252909120548015610e35576001600160a01b03821660009081526004602090815260408083205460ff1615158352600790915281208054839290610e2f90849061111d565b90915550505b505080610e4190611135565b9050610dbe565b600081610e5457600080fd5b60006001600160c01b038411610e7f5782604085901b81610e7757610e776111a2565b049050610f96565b60c084811c6401000000008110610e98576020918201911c5b620100008110610eaa576010918201911c5b6101008110610ebb576008918201911c5b60108110610ecb576004918201911c5b60048110610edb576002918201911c5b60028110610eea576001820191505b60bf820360018603901c6001018260ff0387901b81610f0b57610f0b6111a2565b0492506001600160801b03831115610f2257600080fd5b608085901c83026001600160801b038616840260c088901c604089901b82811015610f4e576001820391505b608084901b92900382811015610f65576001820391505b829003608084901c8214610f7b57610f7b6111b8565b888181610f8a57610f8a6111a2565b04870196505050505050505b6001600160801b03811115610d4a57600080fd5b600060208284031215610fbc57600080fd5b5035919050565b634e487b7160e01b600052602160045260246000fd5b60038110610ff757634e487b7160e01b600052602160045260246000fd5b9052565b84815260208101849052604081018390526080810161101d6060830184610fd9565b95945050505050565b80358015158114610b5857600080fd5b60006020828403121561104857600080fd5b610d0382611026565b80356001600160a01b0381168114610b5857600080fd5b60006020828403121561107a57600080fd5b610d0382611051565b6000806040838503121561109657600080fd5b823591506110a660208401611051565b90509250929050565b600080604083850312156110c257600080fd5b823591506110a660208401611026565b6020808252818101527f4f776e61626c653a2063616c6c6572206973206e6f7420746865206f776e6572604082015260600190565b634e487b7160e01b600052601160045260246000fd5b6000821982111561113057611130611107565b500190565b600060001982141561114957611149611107565b5060010190565b600060808201905082518252602083015160208301526040830151604083015260608301516111826060840182610fd9565b5092915050565b60006020828403121561119b57600080fd5b5051919050565b634e487b7160e01b600052601260045260246000fd5b634e487b7160e01b600052600160045260246000fdfea264697066735822122055f84337274d2ea823e0c0cd68d82f6bdd37719e6f0bab8deaa3e5d166f8531f64736f6c634300080a0033",
    "linkReferences": {}
  }
}