{
  "abi": [
    {
      "inputs": [],
      "name": "EpochEnded",
      "type": "error"
    },
    {
      "inputs": [],
      "name": "EpochIsOngoing",
      "type": "error"
    },
    {
      "inputs": [],
      "name": "FailToDeposit",
      "type": "error"
    },
    {
      "inputs": [],
      "name": "InsufficientAmount",
      "type": "error"
    },
    {
      "inputs": [],
      "name": "NothingToWithdraw",
      "type": "error"
    },
    {
      "inputs": [],
      "name": "Unauthorized",
      "type": "error"
    },
    {
      "anonymous": false,
      "inputs": [
        {
          "components": [
            {
              "internalType": "uint256",
              "name": "betId",
              "type": "uint256"
            },
            {
              "internalType": "uint256",
              "name": "startTime",
              "type": "uint256"
            },
            {
              "internalType": "uint256",
              "name": "assetPrice",
              "type": "uint256"
            }
          ],
          "indexed": false,
          "internalType": "struct Contract.Bet",
          "name": "bet",
          "type": "tuple"
        }
      ],
      "name": "BetCreated",
      "type": "event"
    },
    {
      "anonymous": false,
      "inputs": [
        {
          "indexed": true,
          "internalType": "address",
          "name": "depositor",
          "type": "address"
        },
        {
          "indexed": false,
          "internalType": "uint256",
          "name": "amount",
          "type": "uint256"
        },
        {
          "indexed": false,
          "internalType": "bool",
          "name": "isBullish",
          "type": "bool"
        }
      ],
      "name": "Deposited",
      "type": "event"
    },
    {
      "anonymous": false,
      "inputs": [
        {
          "indexed": true,
          "internalType": "address",
          "name": "previousOwner",
          "type": "address"
        },
        {
          "indexed": true,
          "internalType": "address",
          "name": "newOwner",
          "type": "address"
        }
      ],
      "name": "OwnershipTransferred",
      "type": "event"
    },
    {
      "anonymous": false,
      "inputs": [
        {
          "indexed": true,
          "internalType": "address",
          "name": "depositor",
          "type": "address"
        },
        {
          "indexed": false,
          "internalType": "uint256",
          "name": "amount",
          "type": "uint256"
        }
      ],
      "name": "Withdraw",
      "type": "event"
    },
    {
      "inputs": [
        {
          "internalType": "uint256",
          "name": "",
          "type": "uint256"
        }
      ],
      "name": "bets",
      "outputs": [
        {
          "internalType": "uint256",
          "name": "betId",
          "type": "uint256"
        },
        {
          "internalType": "uint256",
          "name": "startTime",
          "type": "uint256"
        },
        {
          "internalType": "uint256",
          "name": "assetPrice",
          "type": "uint256"
        }
      ],
      "stateMutability": "view",
      "type": "function"
    },
    {
      "inputs": [],
      "name": "createBet",
      "outputs": [
        {
          "internalType": "uint256",
          "name": "",
          "type": "uint256"
        }
      ],
      "stateMutability": "nonpayable",
      "type": "function"
    },
    {
      "inputs": [
        {
          "internalType": "uint256",
          "name": "amount",
          "type": "uint256"
        },
        {
          "internalType": "bool",
          "name": "isBullish",
          "type": "bool"
        }
      ],
      "name": "deposit",
      "outputs": [],
      "stateMutability": "payable",
      "type": "function"
    },
    {
      "inputs": [
        {
          "internalType": "address",
          "name": "",
          "type": "address"
        }
      ],
      "name": "depositorToAmount",
      "outputs": [
        {
          "internalType": "uint256",
          "name": "",
          "type": "uint256"
        }
      ],
      "stateMutability": "view",
      "type": "function"
    },
    {
      "inputs": [],
      "name": "owner",
      "outputs": [
        {
          "internalType": "address",
          "name": "",
          "type": "address"
        }
      ],
      "stateMutability": "view",
      "type": "function"
    },
    {
      "inputs": [],
      "name": "renounceOwnership",
      "outputs": [],
      "stateMutability": "nonpayable",
      "type": "function"
    },
    {
      "inputs": [
        {
          "internalType": "uint256",
          "name": "betId",
          "type": "uint256"
        }
      ],
      "name": "settleEpoch",
      "outputs": [],
      "stateMutability": "nonpayable",
      "type": "function"
    },
    {
      "inputs": [
        {
          "internalType": "address",
          "name": "newOwner",
          "type": "address"
        }
      ],
      "name": "transferOwnership",
      "outputs": [],
      "stateMutability": "nonpayable",
      "type": "function"
    },
    {
      "inputs": [],
      "name": "withdraw",
      "outputs": [],
      "stateMutability": "nonpayable",
      "type": "function"
    },
    {
      "stateMutability": "payable",
      "type": "receive"
    }
  ],
  "bytecode": {
    "object": "0x608060405260018055600160025534801561001957600080fd5b5061002333610028565b610078565b600080546001600160a01b038381166001600160a01b0319831681178455604051919092169283917f8be0079c531659141344cd1fd0a4f28419497f9722a3daafe3b4186f6b6457e09190a35050565b610adf806100876000396000f3fe60806040526004361061008a5760003560e01c8063715018a611610059578063715018a6146101645780638da5cb5b146101795780639a408321146101a1578063dec9ba44146101b4578063f2fde38b146101c957600080fd5b806322af00fa146100965780633ccfd60b146100f25780634d35fa7e14610109578063586271621461012957600080fd5b3661009157005b600080fd5b3480156100a257600080fd5b506100d26100b1366004610956565b60046020526000908152604090208054600182015460029092015490919083565b604080519384526020840192909252908201526060015b60405180910390f35b3480156100fe57600080fd5b506101076101e9565b005b34801561011557600080fd5b50610107610124366004610956565b61029f565b34801561013557600080fd5b5061015661014436600461096f565b60066020526000908152604090205481565b6040519081526020016100e9565b34801561017057600080fd5b50610107610548565b34801561018557600080fd5b506000546040516001600160a01b0390911681526020016100e9565b6101076101af36600461099f565b61057e565b3480156101c057600080fd5b50610156610732565b3480156101d557600080fd5b506101076101e436600461096f565b610815565b600160035460ff166001811115610202576102026109d4565b1461022057604051637e2b277560e11b815260040160405180910390fd5b336000818152600660205260409020548061024e57604051630686827b60e51b815260040160405180910390fd5b61025882826108b0565b816001600160a01b03167f884edad9ce6fa2440d8a54cc123490eb96d2768479d49ff9c7366125a94243648260405161029391815260200190565b60405180910390a25050565b6000546001600160a01b031633146102d25760405162461bcd60e51b81526004016102c9906109ea565b60405180910390fd5b60008181526004602090815260409182902082516060810184528154815260018201549281018390526002909101549281019290925242908161031862093a8083610a35565b101561033757604051637e2b277560e11b815260040160405180910390fd5b604083015160076020527f6d5257204ebe7d88fd91ae87941cb2dd9d8062b64ae5a2bd2d28ec40b9fbf6df54600160008190527fb39221ace053465ec3453ce2b36430bd138b997ecea25c1043da0c366812b828549091908383106104655760005b60025481101561045f576000818152600860209081526040808320546001600160a01b031680845260059092529091205460ff166103ef576001600160a01b03811660009081526006602052604081205561044e565b6001600160a01b038116600090815260066020526040812054610413908590610a4d565b905061041f8582610a6f565b6001600160a01b03831660009081526006602052604081208054909190610447908490610a35565b9091555050505b5061045881610a8e565b9050610399565b50610531565b60005b60025481101561052f576000818152600860209081526040808320546001600160a01b031680845260059092529091205460ff16156104bf576001600160a01b03811660009081526006602052604081205561051e565b6001600160a01b0381166000908152600660205260408120546104e3908690610a4d565b90506104ef8582610a6f565b6001600160a01b03831660009081526006602052604081208054909190610517908490610a35565b9091555050505b5061052881610a8e565b9050610468565b505b50506003805460ff19166001179055505050505050565b6000546001600160a01b031633146105725760405162461bcd60e51b81526004016102c9906109ea565b61057c6000610906565b565b600160035460ff166001811115610597576105976109d4565b14156105b657604051636bec07d760e11b815260040160405180910390fd5b33348311156105d857604051632ca2f52b60e11b815260040160405180910390fd5b6001600160a01b0381166000908152600560209081526040808320805460ff1916861515179055600690915281208054859290610616908490610a35565b90915550508115156000908152600760205260408120805485929061063c908490610a35565b909155505060028054600090815260086020526040812080546001600160a01b0319166001600160a01b0385161790558154919061067983610a8e565b9091555050604051600090309085908381818185875af1925050503d80600081146106c0576040519150601f19603f3d011682016040523d82523d6000602084013e6106c5565b606091505b50509050806106e75760405163e1452b0960e01b815260040160405180910390fd5b6040805185815284151560208201526001600160a01b038416917f35dbbfd0d3585577ae3feb7437be44befd94c36d05e086795fa0016e0d22d496910160405180910390a250505050565b600080546001600160a01b0316331461075d5760405162461bcd60e51b81526004016102c9906109ea565b600060405180606001604052806001548152602001428152602001610780600190565b905260018054600090815260046020908152604080832085518155918501518285015584015160029091015581549293506107ba83610a8e565b90915550506003805460ff19169055604080518251815260208084015190820152828201518183015290517f33552bc7117d0f403c7cf4ea5a1697573df4d94768eee2bab39ad62214f734559181900360600190a151905090565b6000546001600160a01b0316331461083f5760405162461bcd60e51b81526004016102c9906109ea565b6001600160a01b0381166108a45760405162461bcd60e51b815260206004820152602660248201527f4f776e61626c653a206e6577206f776e657220697320746865207a65726f206160448201526564647265737360d01b60648201526084016102c9565b6108ad81610906565b50565b600080600080600085875af19050806109015760405162461bcd60e51b815260206004820152601360248201527211551217d514905394d1915497d19052531151606a1b60448201526064016102c9565b505050565b600080546001600160a01b038381166001600160a01b0319831681178455604051919092169283917f8be0079c531659141344cd1fd0a4f28419497f9722a3daafe3b4186f6b6457e09190a35050565b60006020828403121561096857600080fd5b5035919050565b60006020828403121561098157600080fd5b81356001600160a01b038116811461099857600080fd5b9392505050565b600080604083850312156109b257600080fd5b82359150602083013580151581146109c957600080fd5b809150509250929050565b634e487b7160e01b600052602160045260246000fd5b6020808252818101527f4f776e61626c653a2063616c6c6572206973206e6f7420746865206f776e6572604082015260600190565b634e487b7160e01b600052601160045260246000fd5b60008219821115610a4857610a48610a1f565b500190565b600082610a6a57634e487b7160e01b600052601260045260246000fd5b500490565b6000816000190483118215151615610a8957610a89610a1f565b500290565b6000600019821415610aa257610aa2610a1f565b506001019056fea264697066735822122081495dc2814588370fe489a6cb34e1411cc615a5bfb1d77da9ee8d9367a4fd5564736f6c634300080a0033",
    "linkReferences": {}
  }
}