{
  "abi": [
    {
      "inputs": [],
      "name": "EpochEnded",
      "type": "error"
    },
    {
      "inputs": [],
      "name": "EpochIsOngoing",
      "type": "error"
    },
    {
      "inputs": [],
      "name": "FailToDeposit",
      "type": "error"
    },
    {
      "inputs": [],
      "name": "InsufficientAmount",
      "type": "error"
    },
    {
      "inputs": [],
      "name": "NothingToWithdraw",
      "type": "error"
    },
    {
      "inputs": [],
      "name": "Unauthorized",
      "type": "error"
    },
    {
      "anonymous": false,
      "inputs": [
        {
          "components": [
            {
              "internalType": "uint256",
              "name": "betId",
              "type": "uint256"
            },
            {
              "internalType": "uint256",
              "name": "startTime",
              "type": "uint256"
            },
            {
              "internalType": "uint256",
              "name": "assetPrice",
              "type": "uint256"
            }
          ],
          "indexed": false,
          "internalType": "struct Contract.Bet",
          "name": "bet",
          "type": "tuple"
        }
      ],
      "name": "BetCreated",
      "type": "event"
    },
    {
      "anonymous": false,
      "inputs": [
        {
          "indexed": true,
          "internalType": "address",
          "name": "depositor",
          "type": "address"
        },
        {
          "indexed": false,
          "internalType": "uint256",
          "name": "amount",
          "type": "uint256"
        },
        {
          "indexed": false,
          "internalType": "bool",
          "name": "isBullish",
          "type": "bool"
        }
      ],
      "name": "Deposited",
      "type": "event"
    },
    {
      "anonymous": false,
      "inputs": [
        {
          "indexed": true,
          "internalType": "address",
          "name": "previousOwner",
          "type": "address"
        },
        {
          "indexed": true,
          "internalType": "address",
          "name": "newOwner",
          "type": "address"
        }
      ],
      "name": "OwnershipTransferred",
      "type": "event"
    },
    {
      "anonymous": false,
      "inputs": [
        {
          "indexed": true,
          "internalType": "address",
          "name": "depositor",
          "type": "address"
        },
        {
          "indexed": false,
          "internalType": "uint256",
          "name": "amount",
          "type": "uint256"
        }
      ],
      "name": "Withdraw",
      "type": "event"
    },
    {
      "inputs": [
        {
          "internalType": "uint256",
          "name": "",
          "type": "uint256"
        }
      ],
      "name": "bets",
      "outputs": [
        {
          "internalType": "uint256",
          "name": "betId",
          "type": "uint256"
        },
        {
          "internalType": "uint256",
          "name": "startTime",
          "type": "uint256"
        },
        {
          "internalType": "uint256",
          "name": "assetPrice",
          "type": "uint256"
        }
      ],
      "stateMutability": "view",
      "type": "function"
    },
    {
      "inputs": [
        {
          "internalType": "address",
          "name": "_priceFeed",
          "type": "address"
        }
      ],
      "name": "createBet",
      "outputs": [
        {
          "internalType": "uint256",
          "name": "",
          "type": "uint256"
        }
      ],
      "stateMutability": "nonpayable",
      "type": "function"
    },
    {
      "inputs": [
        {
          "internalType": "uint256",
          "name": "amount",
          "type": "uint256"
        },
        {
          "internalType": "bool",
          "name": "isBullish",
          "type": "bool"
        }
      ],
      "name": "deposit",
      "outputs": [],
      "stateMutability": "payable",
      "type": "function"
    },
    {
      "inputs": [
        {
          "internalType": "address",
          "name": "",
          "type": "address"
        }
      ],
      "name": "depositorToAmount",
      "outputs": [
        {
          "internalType": "uint256",
          "name": "",
          "type": "uint256"
        }
      ],
      "stateMutability": "view",
      "type": "function"
    },
    {
      "inputs": [],
      "name": "owner",
      "outputs": [
        {
          "internalType": "address",
          "name": "",
          "type": "address"
        }
      ],
      "stateMutability": "view",
      "type": "function"
    },
    {
      "inputs": [],
      "name": "renounceOwnership",
      "outputs": [],
      "stateMutability": "nonpayable",
      "type": "function"
    },
    {
      "inputs": [
        {
          "internalType": "uint256",
          "name": "betId",
          "type": "uint256"
        },
        {
          "internalType": "address",
          "name": "_priceFeed",
          "type": "address"
        }
      ],
      "name": "settleEpoch",
      "outputs": [],
      "stateMutability": "nonpayable",
      "type": "function"
    },
    {
      "inputs": [
        {
          "internalType": "address",
          "name": "newOwner",
          "type": "address"
        }
      ],
      "name": "transferOwnership",
      "outputs": [],
      "stateMutability": "nonpayable",
      "type": "function"
    },
    {
      "inputs": [],
      "name": "withdraw",
      "outputs": [],
      "stateMutability": "nonpayable",
      "type": "function"
    },
    {
      "stateMutability": "payable",
      "type": "receive"
    }
  ],
  "bytecode": {
    "object": "0x608060405260018055600160025534801561001957600080fd5b5061002333610028565b610078565b600080546001600160a01b038381166001600160a01b0319831681178455604051919092169283917f8be0079c531659141344cd1fd0a4f28419497f9722a3daafe3b4186f6b6457e09190a35050565b610bac806100876000396000f3fe60806040526004361061008a5760003560e01c806378c6c1571161005957806378c6c157146101595780638da5cb5b146101795780639a408321146101a1578063a4b47b14146101b4578063f2fde38b146101d457600080fd5b806322af00fa146100965780633ccfd60b146100f25780635862716214610109578063715018a61461014457600080fd5b3661009157005b600080fd5b3480156100a257600080fd5b506100d26100b13660046109dc565b60046020526000908152604090208054600182015460029092015490919083565b604080519384526020840192909252908201526060015b60405180910390f35b3480156100fe57600080fd5b506101076101f4565b005b34801561011557600080fd5b50610136610124366004610a0c565b60066020526000908152604090205481565b6040519081526020016100e9565b34801561015057600080fd5b506101076102aa565b34801561016557600080fd5b50610107610174366004610a27565b6102e9565b34801561018557600080fd5b506000546040516001600160a01b0390911681526020016100e9565b6101076101af366004610a53565b610594565b3480156101c057600080fd5b506101366101cf366004610a0c565b610748565b3480156101e057600080fd5b506101076101ef366004610a0c565b61082f565b600160035460ff16600181111561020d5761020d610a88565b1461022b57604051637e2b277560e11b815260040160405180910390fd5b336000818152600660205260409020548061025957604051630686827b60e51b815260040160405180910390fd5b61026382826108ca565b816001600160a01b03167f884edad9ce6fa2440d8a54cc123490eb96d2768479d49ff9c7366125a94243648260405161029e91815260200190565b60405180910390a25050565b6000546001600160a01b031633146102dd5760405162461bcd60e51b81526004016102d490610a9e565b60405180910390fd5b6102e76000610920565b565b6000546001600160a01b031633146103135760405162461bcd60e51b81526004016102d490610a9e565b60008281526004602090815260409182902082516060810184528154815260018201549281018390526002909101549281019290925242908161035962093a8083610ae9565b101561037857604051637e2b277560e11b815260040160405180910390fd5b6040830151600061038886610970565b60076020527f6d5257204ebe7d88fd91ae87941cb2dd9d8062b64ae5a2bd2d28ec40b9fbf6df5460016000527fb39221ace053465ec3453ce2b36430bd138b997ecea25c1043da0c366812b82854919250908383106104b05760005b6002548110156104aa576000818152600860209081526040808320546001600160a01b031680845260059092529091205460ff1661043a576001600160a01b038116600090815260066020526040812055610499565b6001600160a01b03811660009081526006602052604081205461045e908590610b01565b905061046a8582610b23565b6001600160a01b03831660009081526006602052604081208054909190610492908490610ae9565b9091555050505b506104a381610b42565b90506103e4565b5061057c565b60005b60025481101561057a576000818152600860209081526040808320546001600160a01b031680845260059092529091205460ff161561050a576001600160a01b038116600090815260066020526040812055610569565b6001600160a01b03811660009081526006602052604081205461052e908690610b01565b905061053a8582610b23565b6001600160a01b03831660009081526006602052604081208054909190610562908490610ae9565b9091555050505b5061057381610b42565b90506104b3565b505b50506003805460ff1916600117905550505050505050565b600160035460ff1660018111156105ad576105ad610a88565b14156105cc57604051636bec07d760e11b815260040160405180910390fd5b33348311156105ee57604051632ca2f52b60e11b815260040160405180910390fd5b6001600160a01b0381166000908152600560209081526040808320805460ff191686151517905560069091528120805485929061062c908490610ae9565b909155505081151560009081526007602052604081208054859290610652908490610ae9565b909155505060028054600090815260086020526040812080546001600160a01b0319166001600160a01b0385161790558154919061068f83610b42565b9091555050604051600090309085908381818185875af1925050503d80600081146106d6576040519150601f19603f3d011682016040523d82523d6000602084013e6106db565b606091505b50509050806106fd5760405163e1452b0960e01b815260040160405180910390fd5b6040805185815284151560208201526001600160a01b038416917f35dbbfd0d3585577ae3feb7437be44befd94c36d05e086795fa0016e0d22d496910160405180910390a250505050565b600080546001600160a01b031633146107735760405162461bcd60e51b81526004016102d490610a9e565b60006040518060600160405280600154815260200142815260200161079785610970565b905260018054600090815260046020908152604080832085518155918501518285015584015160029091015581549293506107d183610b42565b90915550506003805460ff19169055604080518251815260208084015190820152828201518183015290517f33552bc7117d0f403c7cf4ea5a1697573df4d94768eee2bab39ad62214f734559181900360600190a15190505b919050565b6000546001600160a01b031633146108595760405162461bcd60e51b81526004016102d490610a9e565b6001600160a01b0381166108be5760405162461bcd60e51b815260206004820152602660248201527f4f776e61626c653a206e6577206f776e657220697320746865207a65726f206160448201526564647265737360d01b60648201526084016102d4565b6108c781610920565b50565b600080600080600085875af190508061091b5760405162461bcd60e51b815260206004820152601360248201527211551217d514905394d1915497d19052531151606a1b60448201526064016102d4565b505050565b600080546001600160a01b038381166001600160a01b0319831681178455604051919092169283917f8be0079c531659141344cd1fd0a4f28419497f9722a3daafe3b4186f6b6457e09190a35050565b600080826001600160a01b03166359e02dd76040518163ffffffff1660e01b8152600401602060405180830381865afa1580156109b1573d6000803e3d6000fd5b505050506040513d601f19601f820116820180604052508101906109d59190610b5d565b9392505050565b6000602082840312156109ee57600080fd5b5035919050565b80356001600160a01b038116811461082a57600080fd5b600060208284031215610a1e57600080fd5b6109d5826109f5565b60008060408385031215610a3a57600080fd5b82359150610a4a602084016109f5565b90509250929050565b60008060408385031215610a6657600080fd5b8235915060208301358015158114610a7d57600080fd5b809150509250929050565b634e487b7160e01b600052602160045260246000fd5b6020808252818101527f4f776e61626c653a2063616c6c6572206973206e6f7420746865206f776e6572604082015260600190565b634e487b7160e01b600052601160045260246000fd5b60008219821115610afc57610afc610ad3565b500190565b600082610b1e57634e487b7160e01b600052601260045260246000fd5b500490565b6000816000190483118215151615610b3d57610b3d610ad3565b500290565b6000600019821415610b5657610b56610ad3565b5060010190565b600060208284031215610b6f57600080fd5b505191905056fea26469706673582212201c62ac5eec4d6f3409bc5b1d9e37b9f2e88372988defd2a059662f4d46fdbf4c64736f6c634300080a0033",
    "linkReferences": {}
  }
}