{
  "abi": [
    {
      "inputs": [],
      "name": "EpochClosed",
      "type": "error"
    },
    {
      "inputs": [],
      "name": "EpochIsOngoing",
      "type": "error"
    },
    {
      "inputs": [],
      "name": "EpochMustHaveStarted",
      "type": "error"
    },
    {
      "inputs": [],
      "name": "FailToDeposit",
      "type": "error"
    },
    {
      "inputs": [],
      "name": "InsufficientAmount",
      "type": "error"
    },
    {
      "inputs": [],
      "name": "NothingToWithdraw",
      "type": "error"
    },
    {
      "inputs": [],
      "name": "Unauthorized",
      "type": "error"
    },
    {
      "anonymous": false,
      "inputs": [
        {
          "indexed": false,
          "internalType": "uint256",
          "name": "betId",
          "type": "uint256"
        }
      ],
      "name": "BetClosed",
      "type": "event"
    },
    {
      "anonymous": false,
      "inputs": [
        {
          "components": [
            {
              "internalType": "uint256",
              "name": "betId",
              "type": "uint256"
            },
            {
              "internalType": "uint256",
              "name": "startTime",
              "type": "uint256"
            },
            {
              "internalType": "uint256",
              "name": "assetPrice",
              "type": "uint256"
            },
            {
              "internalType": "enum Contract.Status",
              "name": "status",
              "type": "uint8"
            }
          ],
          "indexed": false,
          "internalType": "struct Contract.Bet",
          "name": "bet",
          "type": "tuple"
        }
      ],
      "name": "BetCreated",
      "type": "event"
    },
    {
      "anonymous": false,
      "inputs": [
        {
          "indexed": true,
          "internalType": "address",
          "name": "depositor",
          "type": "address"
        },
        {
          "indexed": false,
          "internalType": "uint256",
          "name": "amount",
          "type": "uint256"
        },
        {
          "indexed": false,
          "internalType": "bool",
          "name": "isBullish",
          "type": "bool"
        }
      ],
      "name": "Deposit",
      "type": "event"
    },
    {
      "anonymous": false,
      "inputs": [],
      "name": "EpochSettle",
      "type": "event"
    },
    {
      "anonymous": false,
      "inputs": [
        {
          "indexed": true,
          "internalType": "address",
          "name": "previousOwner",
          "type": "address"
        },
        {
          "indexed": true,
          "internalType": "address",
          "name": "newOwner",
          "type": "address"
        }
      ],
      "name": "OwnershipTransferred",
      "type": "event"
    },
    {
      "anonymous": false,
      "inputs": [
        {
          "indexed": true,
          "internalType": "address",
          "name": "depositor",
          "type": "address"
        },
        {
          "indexed": false,
          "internalType": "uint256",
          "name": "amount",
          "type": "uint256"
        }
      ],
      "name": "Withdraw",
      "type": "event"
    },
    {
      "inputs": [],
      "name": "bearsAmount",
      "outputs": [
        {
          "internalType": "uint256",
          "name": "",
          "type": "uint256"
        }
      ],
      "stateMutability": "view",
      "type": "function"
    },
    {
      "inputs": [
        {
          "internalType": "uint256",
          "name": "",
          "type": "uint256"
        }
      ],
      "name": "bets",
      "outputs": [
        {
          "internalType": "uint256",
          "name": "betId",
          "type": "uint256"
        },
        {
          "internalType": "uint256",
          "name": "startTime",
          "type": "uint256"
        },
        {
          "internalType": "uint256",
          "name": "assetPrice",
          "type": "uint256"
        },
        {
          "internalType": "enum Contract.Status",
          "name": "status",
          "type": "uint8"
        }
      ],
      "stateMutability": "view",
      "type": "function"
    },
    {
      "inputs": [],
      "name": "bullsAmount",
      "outputs": [
        {
          "internalType": "uint256",
          "name": "",
          "type": "uint256"
        }
      ],
      "stateMutability": "view",
      "type": "function"
    },
    {
      "inputs": [
        {
          "internalType": "uint256",
          "name": "betId",
          "type": "uint256"
        }
      ],
      "name": "closeDeposit",
      "outputs": [],
      "stateMutability": "nonpayable",
      "type": "function"
    },
    {
      "inputs": [
        {
          "internalType": "address",
          "name": "_priceFeed",
          "type": "address"
        }
      ],
      "name": "createBet",
      "outputs": [
        {
          "internalType": "uint256",
          "name": "",
          "type": "uint256"
        }
      ],
      "stateMutability": "nonpayable",
      "type": "function"
    },
    {
      "inputs": [
        {
          "internalType": "uint256",
          "name": "betId",
          "type": "uint256"
        },
        {
          "internalType": "bool",
          "name": "isBullish",
          "type": "bool"
        }
      ],
      "name": "deposit",
      "outputs": [],
      "stateMutability": "payable",
      "type": "function"
    },
    {
      "inputs": [
        {
          "internalType": "address",
          "name": "",
          "type": "address"
        }
      ],
      "name": "depositorToAmount",
      "outputs": [
        {
          "internalType": "uint256",
          "name": "",
          "type": "uint256"
        }
      ],
      "stateMutability": "view",
      "type": "function"
    },
    {
      "inputs": [
        {
          "internalType": "address",
          "name": "",
          "type": "address"
        }
      ],
      "name": "depositors",
      "outputs": [
        {
          "internalType": "bool",
          "name": "",
          "type": "bool"
        }
      ],
      "stateMutability": "view",
      "type": "function"
    },
    {
      "inputs": [],
      "name": "owner",
      "outputs": [
        {
          "internalType": "address",
          "name": "",
          "type": "address"
        }
      ],
      "stateMutability": "view",
      "type": "function"
    },
    {
      "inputs": [],
      "name": "renounceOwnership",
      "outputs": [],
      "stateMutability": "nonpayable",
      "type": "function"
    },
    {
      "inputs": [
        {
          "internalType": "uint256",
          "name": "betId",
          "type": "uint256"
        },
        {
          "internalType": "address",
          "name": "_priceFeed",
          "type": "address"
        }
      ],
      "name": "settleEpoch",
      "outputs": [],
      "stateMutability": "nonpayable",
      "type": "function"
    },
    {
      "inputs": [
        {
          "internalType": "address",
          "name": "newOwner",
          "type": "address"
        }
      ],
      "name": "transferOwnership",
      "outputs": [],
      "stateMutability": "nonpayable",
      "type": "function"
    },
    {
      "inputs": [
        {
          "internalType": "uint256",
          "name": "betId",
          "type": "uint256"
        }
      ],
      "name": "withdraw",
      "outputs": [],
      "stateMutability": "nonpayable",
      "type": "function"
    },
    {
      "stateMutability": "payable",
      "type": "receive"
    }
  ],
  "bytecode": {
    "object": "0x60806040526001805560016002556000600355600060045534801561002357600080fd5b5061002d33610032565b610082565b600080546001600160a01b038381166001600160a01b0319831681178455604051919092169283917f8be0079c531659141344cd1fd0a4f28419497f9722a3daafe3b4186f6b6457e09190a35050565b6111cf806100916000396000f3fe6080604052600436106100c65760003560e01c806378c6c1571161007f5780639a408321116100595780639a40832114610232578063a4b47b1414610245578063eed75f6d14610265578063f2fde38b146102a557600080fd5b806378c6c157146101ca57806383b24c52146101ea5780638da5cb5b1461020a57600080fd5b806303a0e032146100d2578063060e7401146100fb57806322af00fa146101115780632e1a7d4d146101665780635862716214610188578063715018a6146101b557600080fd5b366100cd57005b600080fd5b3480156100de57600080fd5b506100e860035481565b6040519081526020015b60405180910390f35b34801561010757600080fd5b506100e860045481565b34801561011d57600080fd5b5061015661012c366004610f78565b60076020526000908152604090208054600182015460028301546003909301549192909160ff1684565b6040516100f29493929190610fc9565b34801561017257600080fd5b50610186610181366004610f78565b6102c5565b005b34801561019457600080fd5b506100e86101a336600461100b565b60096020526000908152604090205481565b3480156101c157600080fd5b506101866103a4565b3480156101d657600080fd5b506101866101e5366004611026565b6103e3565b3480156101f657600080fd5b50610186610205366004610f78565b6106dc565b34801561021657600080fd5b506000546040516001600160a01b0390911681526020016100f2565b610186610240366004611052565b610792565b34801561025157600080fd5b506100e861026036600461100b565b610984565b34801561027157600080fd5b5061029561028036600461100b565b60086020526000908152604090205460ff1681565b60405190151581526020016100f2565b3480156102b157600080fd5b506101866102c036600461100b565b610aa1565b600260008281526007602052604090206003015460ff1660028111156102ed576102ed610f91565b1461030b57604051637e2b277560e11b815260040160405180910390fd5b336000818152600960205260409020548061033957604051630686827b60e51b815260040160405180910390fd5b6001600160a01b03821660009081526009602052604081205561035c8282610b3c565b816001600160a01b03167f884edad9ce6fa2440d8a54cc123490eb96d2768479d49ff9c7366125a94243648260405161039791815260200190565b60405180910390a2505050565b6000546001600160a01b031633146103d75760405162461bcd60e51b81526004016103ce90611087565b60405180910390fd5b6103e16000610b92565b565b6000546001600160a01b0316331461040d5760405162461bcd60e51b81526004016103ce90611087565b6000828152600760205260409020600181015442908161043062093a80836110d2565b111561044f57604051637e2b277560e11b815260040160405180910390fd5b6002830154600061045f86610be2565b90508181106105805760005b6005548110156105125760006005828154811061048a5761048a6110ea565b60009182526020808320909101546001600160a01b03168083526009909152604082205460035491935091906104c1908390610c4e565b90506104cf81600454610c97565b6001600160a01b038416600090815260096020526040812080549091906104f79084906110d2565b925050819055505050508061050b90611100565b905061046b565b5060005b60065481101561056e5760006009600060068481548110610539576105396110ea565b60009182526020808320909101546001600160a01b0316835282019290925260400190205561056781611100565b9050610516565b5061057b60066000610f46565b610693565b60005b60065481101561062a576000600682815481106105a2576105a26110ea565b60009182526020808320909101546001600160a01b03168083526009909152604082205460045491935091906105d9908390610c4e565b90506105e781600354610c97565b6001600160a01b0384166000908152600960205260408120805490919061060f9084906110d2565b925050819055505050508061062390611100565b9050610583565b5060005b6005548110156106865760006009600060058481548110610651576106516110ea565b60009182526020808320909101546001600160a01b0316835282019290925260400190205561067f81611100565b905061062e565b5061069360056000610f46565b6000600381815560048290558601805460ff191660021790556040517fb066eb84e90f0d010f4d59fde547951af64ef2f24fd6b125e6366e6fa03b40de9190a150505050505050565b6000546001600160a01b031633146107065760405162461bcd60e51b81526004016103ce90611087565b600081815260076020526040812090600382015460ff16600281111561072e5761072e610f91565b1461074c57604051631e42390960e01b815260040160405180910390fd5b60038101805460ff191660011790556040518281527f0eece8d5a08d055ab5110a6ecddd40f483417a5ba1e85d80db5ec862ac8209d09060200160405180910390a15050565b600160008381526007602052604090206003015460ff1660028111156107ba576107ba610f91565b14156107d95760405163b01c554960e01b815260040160405180910390fd5b336000818152600960205260408120805434928392916107fa9084906110d2565b9091555050821561086c57806003600082825461081791906110d2565b9091555050600580546001810182556000919091527f036b6384b5eca791c62761152d0c79bb0604c104a5fb6f4eb0703f3154bb3db00180546001600160a01b0319166001600160a01b0384161790556108cf565b806004600082825461087e91906110d2565b9091555050600680546001810182556000919091527ff652222313e28459528d920b65115c16c04f3efc82aaedc97be59f3f377c0d3f0180546001600160a01b0319166001600160a01b0384161790555b604051600090309083908381818185875af1925050503d8060008114610911576040519150601f19603f3d011682016040523d82523d6000602084013e610916565b606091505b50509050806109385760405163e1452b0960e01b815260040160405180910390fd5b6040805183815285151560208201526001600160a01b038516917f693c1828300d1cab0919b948d714897f817e305af51c026ad14233b6a8939adb910160405180910390a25050505050565b600080546001600160a01b031633146109af5760405162461bcd60e51b81526004016103ce90611087565b6000604051806080016040528060015481526020014281526020016109d385610be2565b8152602001600081525090508060076000600154815260200190815260200160002060008201518160000155602082015181600101556040820151816002015560608201518160030160006101000a81548160ff02191690836002811115610a3d57610a3d610f91565b0217905550506001805491506000610a5483611100565b9190505550610a61610cff565b7f76fcae05a8f6d87f57fc4819b1ddd1a7fb18657bb476d057b5e708a68cf592cc81604051610a90919061111b565b60405180910390a15190505b919050565b6000546001600160a01b03163314610acb5760405162461bcd60e51b81526004016103ce90611087565b6001600160a01b038116610b305760405162461bcd60e51b815260206004820152602660248201527f4f776e61626c653a206e6577206f776e657220697320746865207a65726f206160448201526564647265737360d01b60648201526084016103ce565b610b3981610b92565b50565b600080600080600085875af1905080610b8d5760405162461bcd60e51b815260206004820152601360248201527211551217d514905394d1915497d19052531151606a1b60448201526064016103ce565b505050565b600080546001600160a01b038381166001600160a01b0319831681178455604051919092169283917f8be0079c531659141344cd1fd0a4f28419497f9722a3daafe3b4186f6b6457e09190a35050565b600080826001600160a01b03166359e02dd76040518163ffffffff1660e01b8152600401602060405180830381865afa158015610c23573d6000803e3d6000fd5b505050506040513d601f19601f82011682018060405250810190610c479190611154565b9392505050565b600081610c5a57600080fd5b6000610c668484610de4565b90506f7fffffffffffffffffffffffffffffff6001600160801b0382161115610c8e57600080fd5b90505b92915050565b600081610ca657506000610c91565b600083600f0b1215610cb757600080fd5b600f83900b6001600160801b038316810260401c90608084901c026001600160c01b03811115610ce657600080fd5b60401b8119811115610cf757600080fd5b019392505050565b60005b600554811015610d71576009600060058381548110610d2357610d236110ea565b60009182526020808320909101546001600160a01b031683528201929092526040018120546003805491929091610d5b9084906110d2565b90915550610d6a905081611100565b9050610d02565b5060005b600654811015610b39576009600060068381548110610d9657610d966110ea565b60009182526020808320909101546001600160a01b031683528201929092526040018120546004805491929091610dce9084906110d2565b90915550610ddd905081611100565b9050610d75565b600081610df057600080fd5b60006001600160c01b038411610e1b5782604085901b81610e1357610e1361116d565b049050610f32565b60c084811c6401000000008110610e34576020918201911c5b620100008110610e46576010918201911c5b6101008110610e57576008918201911c5b60108110610e67576004918201911c5b60048110610e77576002918201911c5b60028110610e86576001820191505b60bf820360018603901c6001018260ff0387901b81610ea757610ea761116d565b0492506001600160801b03831115610ebe57600080fd5b608085901c83026001600160801b038616840260c088901c604089901b82811015610eea576001820391505b608084901b92900382811015610f01576001820391505b829003608084901c8214610f1757610f17611183565b888181610f2657610f2661116d565b04870196505050505050505b6001600160801b03811115610c8e57600080fd5b5080546000825590600052602060002090810190610b3991905b80821115610f745760008155600101610f60565b5090565b600060208284031215610f8a57600080fd5b5035919050565b634e487b7160e01b600052602160045260246000fd5b60038110610fc557634e487b7160e01b600052602160045260246000fd5b9052565b848152602081018490526040810183905260808101610feb6060830184610fa7565b95945050505050565b80356001600160a01b0381168114610a9c57600080fd5b60006020828403121561101d57600080fd5b610c4782610ff4565b6000806040838503121561103957600080fd5b8235915061104960208401610ff4565b90509250929050565b6000806040838503121561106557600080fd5b823591506020830135801515811461107c57600080fd5b809150509250929050565b6020808252818101527f4f776e61626c653a2063616c6c6572206973206e6f7420746865206f776e6572604082015260600190565b634e487b7160e01b600052601160045260246000fd5b600082198211156110e5576110e56110bc565b500190565b634e487b7160e01b600052603260045260246000fd5b6000600019821415611114576111146110bc565b5060010190565b6000608082019050825182526020830151602083015260408301516040830152606083015161114d6060840182610fa7565b5092915050565b60006020828403121561116657600080fd5b5051919050565b634e487b7160e01b600052601260045260246000fd5b634e487b7160e01b600052600160045260246000fdfea26469706673582212208ca29eb7597bb30fc1737be2518c7454c0662e994b315b3d600b14fe27e367ec64736f6c634300080a0033",
    "linkReferences": {}
  }
}