{
  "abi": [
    {
      "inputs": [
        {
          "internalType": "address",
          "name": "aggregatorAddress",
          "type": "address"
        }
      ],
      "stateMutability": "nonpayable",
      "type": "constructor"
    },
    {
      "inputs": [],
      "name": "EpochEnded",
      "type": "error"
    },
    {
      "inputs": [],
      "name": "EpochIsOngoing",
      "type": "error"
    },
    {
      "inputs": [],
      "name": "FailToDeposit",
      "type": "error"
    },
    {
      "inputs": [],
      "name": "InsufficientAmount",
      "type": "error"
    },
    {
      "inputs": [],
      "name": "NothingToWithdraw",
      "type": "error"
    },
    {
      "inputs": [],
      "name": "Unauthorized",
      "type": "error"
    },
    {
      "anonymous": false,
      "inputs": [
        {
          "components": [
            {
              "internalType": "uint256",
              "name": "betId",
              "type": "uint256"
            },
            {
              "internalType": "uint256",
              "name": "startTime",
              "type": "uint256"
            },
            {
              "internalType": "uint256",
              "name": "assetPrice",
              "type": "uint256"
            }
          ],
          "indexed": false,
          "internalType": "struct Contract.Bet",
          "name": "bet",
          "type": "tuple"
        }
      ],
      "name": "BetCreated",
      "type": "event"
    },
    {
      "anonymous": false,
      "inputs": [
        {
          "indexed": true,
          "internalType": "address",
          "name": "depositor",
          "type": "address"
        },
        {
          "indexed": false,
          "internalType": "uint256",
          "name": "amount",
          "type": "uint256"
        },
        {
          "indexed": false,
          "internalType": "bool",
          "name": "isBullish",
          "type": "bool"
        }
      ],
      "name": "Deposited",
      "type": "event"
    },
    {
      "anonymous": false,
      "inputs": [
        {
          "indexed": true,
          "internalType": "address",
          "name": "previousOwner",
          "type": "address"
        },
        {
          "indexed": true,
          "internalType": "address",
          "name": "newOwner",
          "type": "address"
        }
      ],
      "name": "OwnershipTransferred",
      "type": "event"
    },
    {
      "anonymous": false,
      "inputs": [
        {
          "indexed": true,
          "internalType": "address",
          "name": "depositor",
          "type": "address"
        },
        {
          "indexed": false,
          "internalType": "uint256",
          "name": "amount",
          "type": "uint256"
        }
      ],
      "name": "Withdraw",
      "type": "event"
    },
    {
      "inputs": [
        {
          "internalType": "uint256",
          "name": "",
          "type": "uint256"
        }
      ],
      "name": "bets",
      "outputs": [
        {
          "internalType": "uint256",
          "name": "betId",
          "type": "uint256"
        },
        {
          "internalType": "uint256",
          "name": "startTime",
          "type": "uint256"
        },
        {
          "internalType": "uint256",
          "name": "assetPrice",
          "type": "uint256"
        }
      ],
      "stateMutability": "view",
      "type": "function"
    },
    {
      "inputs": [],
      "name": "createBet",
      "outputs": [
        {
          "internalType": "uint256",
          "name": "",
          "type": "uint256"
        }
      ],
      "stateMutability": "nonpayable",
      "type": "function"
    },
    {
      "inputs": [
        {
          "internalType": "uint256",
          "name": "amount",
          "type": "uint256"
        },
        {
          "internalType": "bool",
          "name": "isBullish",
          "type": "bool"
        }
      ],
      "name": "deposit",
      "outputs": [],
      "stateMutability": "payable",
      "type": "function"
    },
    {
      "inputs": [
        {
          "internalType": "address",
          "name": "",
          "type": "address"
        }
      ],
      "name": "depositorToAmount",
      "outputs": [
        {
          "internalType": "uint256",
          "name": "",
          "type": "uint256"
        }
      ],
      "stateMutability": "view",
      "type": "function"
    },
    {
      "inputs": [],
      "name": "owner",
      "outputs": [
        {
          "internalType": "address",
          "name": "",
          "type": "address"
        }
      ],
      "stateMutability": "view",
      "type": "function"
    },
    {
      "inputs": [],
      "name": "renounceOwnership",
      "outputs": [],
      "stateMutability": "nonpayable",
      "type": "function"
    },
    {
      "inputs": [
        {
          "internalType": "uint256",
          "name": "betId",
          "type": "uint256"
        }
      ],
      "name": "settleEpoch",
      "outputs": [],
      "stateMutability": "nonpayable",
      "type": "function"
    },
    {
      "inputs": [
        {
          "internalType": "address",
          "name": "newOwner",
          "type": "address"
        }
      ],
      "name": "transferOwnership",
      "outputs": [],
      "stateMutability": "nonpayable",
      "type": "function"
    },
    {
      "inputs": [],
      "name": "withdraw",
      "outputs": [],
      "stateMutability": "nonpayable",
      "type": "function"
    },
    {
      "stateMutability": "payable",
      "type": "receive"
    }
  ],
  "bytecode": {
    "object": "0x608060405260018055600160025534801561001957600080fd5b50604051610cd7380380610cd7833981016040819052610038916100bc565b6100413361006c565b600380546001600160a01b0390921661010002610100600160a81b03199092169190911790556100ec565b600080546001600160a01b038381166001600160a01b0319831681178455604051919092169283917f8be0079c531659141344cd1fd0a4f28419497f9722a3daafe3b4186f6b6457e09190a35050565b6000602082840312156100ce57600080fd5b81516001600160a01b03811681146100e557600080fd5b9392505050565b610bdc806100fb6000396000f3fe60806040526004361061008a5760003560e01c8063715018a611610059578063715018a6146101645780638da5cb5b146101795780639a408321146101a1578063dec9ba44146101b4578063f2fde38b146101c957600080fd5b806322af00fa146100965780633ccfd60b146100f25780634d35fa7e14610109578063586271621461012957600080fd5b3661009157005b600080fd5b3480156100a257600080fd5b506100d26100b13660046109e4565b60046020526000908152604090208054600182015460029092015490919083565b604080519384526020840192909252908201526060015b60405180910390f35b3480156100fe57600080fd5b506101076101e9565b005b34801561011557600080fd5b506101076101243660046109e4565b61029f565b34801561013557600080fd5b506101566101443660046109fd565b60066020526000908152604090205481565b6040519081526020016100e9565b34801561017057600080fd5b50610107610551565b34801561018557600080fd5b506000546040516001600160a01b0390911681526020016100e9565b6101076101af366004610a2d565b610587565b3480156101c057600080fd5b5061015661073b565b3480156101d557600080fd5b506101076101e43660046109fd565b61081e565b600160035460ff16600181111561020257610202610a62565b1461022057604051637e2b277560e11b815260040160405180910390fd5b336000818152600660205260409020548061024e57604051630686827b60e51b815260040160405180910390fd5b61025882826108b9565b816001600160a01b03167f884edad9ce6fa2440d8a54cc123490eb96d2768479d49ff9c7366125a94243648260405161029391815260200190565b60405180910390a25050565b6000546001600160a01b031633146102d25760405162461bcd60e51b81526004016102c990610a78565b60405180910390fd5b60008181526004602090815260409182902082516060810184528154815260018201549281018390526002909101549281019290925242908161031862093a8083610ac3565b101561033757604051637e2b277560e11b815260040160405180910390fd5b6040830151600061034661090f565b60076020527f6d5257204ebe7d88fd91ae87941cb2dd9d8062b64ae5a2bd2d28ec40b9fbf6df5460016000527fb39221ace053465ec3453ce2b36430bd138b997ecea25c1043da0c366812b828549192509083831061046e5760005b600254811015610468576000818152600860209081526040808320546001600160a01b031680845260059092529091205460ff166103f8576001600160a01b038116600090815260066020526040812055610457565b6001600160a01b03811660009081526006602052604081205461041c908590610adb565b90506104288582610afd565b6001600160a01b03831660009081526006602052604081208054909190610450908490610ac3565b9091555050505b5061046181610b1c565b90506103a2565b5061053a565b60005b600254811015610538576000818152600860209081526040808320546001600160a01b031680845260059092529091205460ff16156104c8576001600160a01b038116600090815260066020526040812055610527565b6001600160a01b0381166000908152600660205260408120546104ec908690610adb565b90506104f88582610afd565b6001600160a01b03831660009081526006602052604081208054909190610520908490610ac3565b9091555050505b5061053181610b1c565b9050610471565b505b50506003805460ff19166001179055505050505050565b6000546001600160a01b0316331461057b5760405162461bcd60e51b81526004016102c990610a78565b6105856000610994565b565b600160035460ff1660018111156105a0576105a0610a62565b14156105bf57604051636bec07d760e11b815260040160405180910390fd5b33348311156105e157604051632ca2f52b60e11b815260040160405180910390fd5b6001600160a01b0381166000908152600560209081526040808320805460ff191686151517905560069091528120805485929061061f908490610ac3565b909155505081151560009081526007602052604081208054859290610645908490610ac3565b909155505060028054600090815260086020526040812080546001600160a01b0319166001600160a01b0385161790558154919061068283610b1c565b9091555050604051600090309085908381818185875af1925050503d80600081146106c9576040519150601f19603f3d011682016040523d82523d6000602084013e6106ce565b606091505b50509050806106f05760405163e1452b0960e01b815260040160405180910390fd5b6040805185815284151560208201526001600160a01b038416917f35dbbfd0d3585577ae3feb7437be44befd94c36d05e086795fa0016e0d22d496910160405180910390a250505050565b600080546001600160a01b031633146107665760405162461bcd60e51b81526004016102c990610a78565b60006040518060600160405280600154815260200142815260200161078961090f565b905260018054600090815260046020908152604080832085518155918501518285015584015160029091015581549293506107c383610b1c565b90915550506003805460ff19169055604080518251815260208084015190820152828201518183015290517f33552bc7117d0f403c7cf4ea5a1697573df4d94768eee2bab39ad62214f734559181900360600190a151905090565b6000546001600160a01b031633146108485760405162461bcd60e51b81526004016102c990610a78565b6001600160a01b0381166108ad5760405162461bcd60e51b815260206004820152602660248201527f4f776e61626c653a206e6577206f776e657220697320746865207a65726f206160448201526564647265737360d01b60648201526084016102c9565b6108b681610994565b50565b600080600080600085875af190508061090a5760405162461bcd60e51b815260206004820152601360248201527211551217d514905394d1915497d19052531151606a1b60448201526064016102c9565b505050565b600080600360019054906101000a90046001600160a01b03166001600160a01b031663feaf968c6040518163ffffffff1660e01b815260040160a060405180830381865afa158015610965573d6000803e3d6000fd5b505050506040513d601f19601f820116820180604052508101906109899190610b56565b509195945050505050565b600080546001600160a01b038381166001600160a01b0319831681178455604051919092169283917f8be0079c531659141344cd1fd0a4f28419497f9722a3daafe3b4186f6b6457e09190a35050565b6000602082840312156109f657600080fd5b5035919050565b600060208284031215610a0f57600080fd5b81356001600160a01b0381168114610a2657600080fd5b9392505050565b60008060408385031215610a4057600080fd5b8235915060208301358015158114610a5757600080fd5b809150509250929050565b634e487b7160e01b600052602160045260246000fd5b6020808252818101527f4f776e61626c653a2063616c6c6572206973206e6f7420746865206f776e6572604082015260600190565b634e487b7160e01b600052601160045260246000fd5b60008219821115610ad657610ad6610aad565b500190565b600082610af857634e487b7160e01b600052601260045260246000fd5b500490565b6000816000190483118215151615610b1757610b17610aad565b500290565b6000600019821415610b3057610b30610aad565b5060010190565b805169ffffffffffffffffffff81168114610b5157600080fd5b919050565b600080600080600060a08688031215610b6e57600080fd5b610b7786610b37565b9450602086015193506040860151925060608601519150610b9a60808701610b37565b9050929550929590935056fea26469706673582212202034308b731837a9ee9e03b59ceca47ceeaf6b14d2408b05b6e658f5e01ca1f364736f6c634300080a0033",
    "linkReferences": {}
  }
}