{
  "abi": [
    {
      "inputs": [],
      "name": "EpochClosed",
      "type": "error"
    },
    {
      "inputs": [],
      "name": "EpochIsOngoing",
      "type": "error"
    },
    {
      "inputs": [],
      "name": "EpochMustHaveStarted",
      "type": "error"
    },
    {
      "inputs": [],
      "name": "FailToDeposit",
      "type": "error"
    },
    {
      "inputs": [],
      "name": "InsufficientAmount",
      "type": "error"
    },
    {
      "inputs": [],
      "name": "NothingToWithdraw",
      "type": "error"
    },
    {
      "inputs": [],
      "name": "Unauthorized",
      "type": "error"
    },
    {
      "anonymous": false,
      "inputs": [
        {
          "indexed": false,
          "internalType": "uint256",
          "name": "betId",
          "type": "uint256"
        }
      ],
      "name": "BetClosed",
      "type": "event"
    },
    {
      "anonymous": false,
      "inputs": [
        {
          "components": [
            {
              "internalType": "uint256",
              "name": "betId",
              "type": "uint256"
            },
            {
              "internalType": "uint256",
              "name": "startTime",
              "type": "uint256"
            },
            {
              "internalType": "uint256",
              "name": "assetPrice",
              "type": "uint256"
            },
            {
              "internalType": "enum Contract.Status",
              "name": "status",
              "type": "uint8"
            }
          ],
          "indexed": false,
          "internalType": "struct Contract.Bet",
          "name": "bet",
          "type": "tuple"
        }
      ],
      "name": "BetCreated",
      "type": "event"
    },
    {
      "anonymous": false,
      "inputs": [
        {
          "indexed": true,
          "internalType": "address",
          "name": "depositor",
          "type": "address"
        },
        {
          "indexed": false,
          "internalType": "uint256",
          "name": "amount",
          "type": "uint256"
        },
        {
          "indexed": false,
          "internalType": "bool",
          "name": "isBullish",
          "type": "bool"
        }
      ],
      "name": "Deposit",
      "type": "event"
    },
    {
      "anonymous": false,
      "inputs": [],
      "name": "EpochSettle",
      "type": "event"
    },
    {
      "anonymous": false,
      "inputs": [
        {
          "indexed": true,
          "internalType": "address",
          "name": "previousOwner",
          "type": "address"
        },
        {
          "indexed": true,
          "internalType": "address",
          "name": "newOwner",
          "type": "address"
        }
      ],
      "name": "OwnershipTransferred",
      "type": "event"
    },
    {
      "anonymous": false,
      "inputs": [
        {
          "indexed": true,
          "internalType": "address",
          "name": "depositor",
          "type": "address"
        },
        {
          "indexed": false,
          "internalType": "uint256",
          "name": "amount",
          "type": "uint256"
        }
      ],
      "name": "Withdraw",
      "type": "event"
    },
    {
      "inputs": [
        {
          "internalType": "uint256",
          "name": "",
          "type": "uint256"
        }
      ],
      "name": "bets",
      "outputs": [
        {
          "internalType": "uint256",
          "name": "betId",
          "type": "uint256"
        },
        {
          "internalType": "uint256",
          "name": "startTime",
          "type": "uint256"
        },
        {
          "internalType": "uint256",
          "name": "assetPrice",
          "type": "uint256"
        },
        {
          "internalType": "enum Contract.Status",
          "name": "status",
          "type": "uint8"
        }
      ],
      "stateMutability": "view",
      "type": "function"
    },
    {
      "inputs": [
        {
          "internalType": "uint256",
          "name": "betId",
          "type": "uint256"
        }
      ],
      "name": "closeDeposit",
      "outputs": [],
      "stateMutability": "nonpayable",
      "type": "function"
    },
    {
      "inputs": [
        {
          "internalType": "address",
          "name": "_priceFeed",
          "type": "address"
        }
      ],
      "name": "createBet",
      "outputs": [
        {
          "internalType": "uint256",
          "name": "",
          "type": "uint256"
        }
      ],
      "stateMutability": "nonpayable",
      "type": "function"
    },
    {
      "inputs": [
        {
          "internalType": "uint256",
          "name": "betId",
          "type": "uint256"
        },
        {
          "internalType": "bool",
          "name": "isBullish",
          "type": "bool"
        }
      ],
      "name": "deposit",
      "outputs": [],
      "stateMutability": "payable",
      "type": "function"
    },
    {
      "inputs": [
        {
          "internalType": "address",
          "name": "",
          "type": "address"
        }
      ],
      "name": "depositorToAmount",
      "outputs": [
        {
          "internalType": "uint256",
          "name": "",
          "type": "uint256"
        }
      ],
      "stateMutability": "view",
      "type": "function"
    },
    {
      "inputs": [
        {
          "internalType": "address",
          "name": "",
          "type": "address"
        }
      ],
      "name": "depositorToIsBullish",
      "outputs": [
        {
          "internalType": "bool",
          "name": "",
          "type": "bool"
        }
      ],
      "stateMutability": "view",
      "type": "function"
    },
    {
      "inputs": [
        {
          "internalType": "address",
          "name": "",
          "type": "address"
        }
      ],
      "name": "depositors",
      "outputs": [
        {
          "internalType": "bool",
          "name": "",
          "type": "bool"
        }
      ],
      "stateMutability": "view",
      "type": "function"
    },
    {
      "inputs": [
        {
          "internalType": "uint256",
          "name": "",
          "type": "uint256"
        }
      ],
      "name": "idToDepositor",
      "outputs": [
        {
          "internalType": "address",
          "name": "",
          "type": "address"
        }
      ],
      "stateMutability": "view",
      "type": "function"
    },
    {
      "inputs": [
        {
          "internalType": "bool",
          "name": "",
          "type": "bool"
        }
      ],
      "name": "isBullishToAmount",
      "outputs": [
        {
          "internalType": "uint256",
          "name": "",
          "type": "uint256"
        }
      ],
      "stateMutability": "view",
      "type": "function"
    },
    {
      "inputs": [],
      "name": "owner",
      "outputs": [
        {
          "internalType": "address",
          "name": "",
          "type": "address"
        }
      ],
      "stateMutability": "view",
      "type": "function"
    },
    {
      "inputs": [],
      "name": "renounceOwnership",
      "outputs": [],
      "stateMutability": "nonpayable",
      "type": "function"
    },
    {
      "inputs": [
        {
          "internalType": "uint256",
          "name": "betId",
          "type": "uint256"
        },
        {
          "internalType": "address",
          "name": "_priceFeed",
          "type": "address"
        }
      ],
      "name": "settleEpoch",
      "outputs": [],
      "stateMutability": "nonpayable",
      "type": "function"
    },
    {
      "inputs": [
        {
          "internalType": "address",
          "name": "newOwner",
          "type": "address"
        }
      ],
      "name": "transferOwnership",
      "outputs": [],
      "stateMutability": "nonpayable",
      "type": "function"
    },
    {
      "inputs": [
        {
          "internalType": "uint256",
          "name": "betId",
          "type": "uint256"
        }
      ],
      "name": "withdraw",
      "outputs": [],
      "stateMutability": "nonpayable",
      "type": "function"
    },
    {
      "stateMutability": "payable",
      "type": "receive"
    }
  ],
  "bytecode": {
    "object": "0x608060405260018055600160025534801561001957600080fd5b5061002333610028565b610078565b600080546001600160a01b038381166001600160a01b0319831681178455604051919092169283917f8be0079c531659141344cd1fd0a4f28419497f9722a3daafe3b4186f6b6457e09190a35050565b611053806100876000396000f3fe6080604052600436106100e15760003560e01c806383b24c521161007f5780639a408321116100595780639a408321146102d4578063a4b47b14146102e7578063eed75f6d14610307578063f2fde38b1461033757600080fd5b806383b24c52146102565780638da5cb5b146102765780639060db551461029457600080fd5b80633a6a3850116100bb5780633a6a3850146101b957806358627162146101f4578063715018a61461022157806378c6c1571461023657600080fd5b80631a8ef8c2146100ed57806322af00fa146101405780632e1a7d4d1461019757600080fd5b366100e857005b600080fd5b3480156100f957600080fd5b50610123610108366004610de4565b6008602052600090815260409020546001600160a01b031681565b6040516001600160a01b0390911681526020015b60405180910390f35b34801561014c57600080fd5b5061018761015b366004610de4565b600360208190526000918252604090912080546001820154600283015492909301549092919060ff1684565b6040516101379493929190610e35565b3480156101a357600080fd5b506101b76101b2366004610de4565b610357565b005b3480156101c557600080fd5b506101e66101d4366004610e70565b60076020526000908152604090205481565b604051908152602001610137565b34801561020057600080fd5b506101e661020f366004610ea2565b60066020526000908152604090205481565b34801561022d57600080fd5b506101b7610453565b34801561024257600080fd5b506101b7610251366004610ebd565b610492565b34801561026257600080fd5b506101b7610271366004610de4565b610800565b34801561028257600080fd5b506000546001600160a01b0316610123565b3480156102a057600080fd5b506102c46102af366004610ea2565b60046020526000908152604090205460ff1681565b6040519015158152602001610137565b6101b76102e2366004610ee9565b6108b6565b3480156102f357600080fd5b506101e6610302366004610ea2565b610a8d565b34801561031357600080fd5b506102c4610322366004610ea2565b60056020526000908152604090205460ff1681565b34801561034357600080fd5b506101b7610352366004610ea2565b610baa565b60026000828152600360208190526040909120015460ff16600281111561038057610380610dfd565b1461039e57604051637e2b277560e11b815260040160405180910390fd5b33600081815260066020526040902054806103cc57604051630686827b60e51b815260040160405180910390fd5b6001600160a01b0382166000908152600660209081526040808320839055600482528083205460ff1615158352600790915281205561040b8282610c45565b816001600160a01b03167f884edad9ce6fa2440d8a54cc123490eb96d2768479d49ff9c7366125a94243648260405161044691815260200190565b60405180910390a2505050565b6000546001600160a01b031633146104865760405162461bcd60e51b815260040161047d90610f0c565b60405180910390fd5b6104906000610c9b565b565b6000546001600160a01b031633146104bc5760405162461bcd60e51b815260040161047d90610f0c565b600082815260036020526040902060018101544290816104df62093a8083610f57565b11156104fe57604051637e2b277560e11b815260040160405180910390fd5b6002830154600061050e86610ceb565b60076020527fb39221ace053465ec3453ce2b36430bd138b997ecea25c1043da0c366812b82854600080527f6d5257204ebe7d88fd91ae87941cb2dd9d8062b64ae5a2bd2d28ec40b9fbf6df549192509083831061065e5760015b600254811015610658576000818152600860209081526040808320546001600160a01b0316808452600690925290912054806105a6575050610648565b6001600160a01b03821660009081526004602052604090205460ff166105e4576001600160a01b038216600090815260066020526040812055610645565b6000856105f36103e884610f6f565b6105fd9190610f8e565b90506103e861060c8683610f6f565b6106169190610f8e565b6001600160a01b0384166000908152600660205260408120805490919061063e908490610f57565b9091555050505b50505b61065181610fb0565b9050610569565b5061076c565b60015b60025481101561076a576000818152600860209081526040808320546001600160a01b03168084526006909252909120548061069e57505061075a565b6001600160a01b03821660009081526004602052604090205460ff16156106dd576001600160a01b038216600090815260066020526040812055610757565b6001600160a01b0382166000908152600660205260408120548590610705906103e890610f6f565b61070f9190610f8e565b90506103e861071e8783610f6f565b6107289190610f8e565b6001600160a01b03841660009081526006602052604081208054909190610750908490610f57565b9091555050505b50505b61076381610fb0565b9050610661565b505b600760205260007f6d5257204ebe7d88fd91ae87941cb2dd9d8062b64ae5a2bd2d28ec40b9fbf6df819055600181527fb39221ace053465ec3453ce2b36430bd138b997ecea25c1043da0c366812b82881905560038801805460ff191660021790556040517fb066eb84e90f0d010f4d59fde547951af64ef2f24fd6b125e6366e6fa03b40de9190a1505050505050505050565b6000546001600160a01b0316331461082a5760405162461bcd60e51b815260040161047d90610f0c565b600081815260036020526040812090600382015460ff16600281111561085257610852610dfd565b1461087057604051631e42390960e01b815260040160405180910390fd5b60038101805460ff191660011790556040518281527f0eece8d5a08d055ab5110a6ecddd40f483417a5ba1e85d80db5ec862ac8209d09060200160405180910390a15050565b60016000838152600360208190526040909120015460ff1660028111156108df576108df610dfd565b14156108fe5760405163b01c554960e01b815260040160405180910390fd5b336000818152600460209081526040808320805460ff19168615151790556006909152812080543492839291610935908490610f57565b90915550508215156000908152600760205260408120805483929061095b908490610f57565b90915550506001600160a01b03821660009081526005602052604090205460ff166109d8576001600160a01b0382166000818152600560209081526040808320805460ff191660011790556002805484526008909252822080546001600160a01b031916909317909255815491906109d283610fb0565b91905055505b604051600090309083908381818185875af1925050503d8060008114610a1a576040519150601f19603f3d011682016040523d82523d6000602084013e610a1f565b606091505b5050905080610a415760405163e1452b0960e01b815260040160405180910390fd5b6040805183815285151560208201526001600160a01b038516917f693c1828300d1cab0919b948d714897f817e305af51c026ad14233b6a8939adb910160405180910390a25050505050565b600080546001600160a01b03163314610ab85760405162461bcd60e51b815260040161047d90610f0c565b600060405180608001604052806001548152602001428152602001610adc85610ceb565b8152602001600081525090508060036000600154815260200190815260200160002060008201518160000155602082015181600101556040820151816002015560608201518160030160006101000a81548160ff02191690836002811115610b4657610b46610dfd565b0217905550506001805491506000610b5d83610fb0565b9190505550610b6a610d57565b7f76fcae05a8f6d87f57fc4819b1ddd1a7fb18657bb476d057b5e708a68cf592cc81604051610b999190610fcb565b60405180910390a15190505b919050565b6000546001600160a01b03163314610bd45760405162461bcd60e51b815260040161047d90610f0c565b6001600160a01b038116610c395760405162461bcd60e51b815260206004820152602660248201527f4f776e61626c653a206e6577206f776e657220697320746865207a65726f206160448201526564647265737360d01b606482015260840161047d565b610c4281610c9b565b50565b600080600080600085875af1905080610c965760405162461bcd60e51b815260206004820152601360248201527211551217d514905394d1915497d19052531151606a1b604482015260640161047d565b505050565b600080546001600160a01b038381166001600160a01b0319831681178455604051919092169283917f8be0079c531659141344cd1fd0a4f28419497f9722a3daafe3b4186f6b6457e09190a35050565b600080826001600160a01b03166359e02dd76040518163ffffffff1660e01b8152600401602060405180830381865afa158015610d2c573d6000803e3d6000fd5b505050506040513d601f19601f82011682018060405250810190610d509190611004565b9392505050565b60015b600254811015610c42576000818152600860209081526040808320546001600160a01b03168084526006909252909120548015610dd1576001600160a01b03821660009081526004602090815260408083205460ff1615158352600790915281208054839290610dcb908490610f57565b90915550505b505080610ddd90610fb0565b9050610d5a565b600060208284031215610df657600080fd5b5035919050565b634e487b7160e01b600052602160045260246000fd5b60038110610e3157634e487b7160e01b600052602160045260246000fd5b9052565b848152602081018490526040810183905260808101610e576060830184610e13565b95945050505050565b80358015158114610ba557600080fd5b600060208284031215610e8257600080fd5b610d5082610e60565b80356001600160a01b0381168114610ba557600080fd5b600060208284031215610eb457600080fd5b610d5082610e8b565b60008060408385031215610ed057600080fd5b82359150610ee060208401610e8b565b90509250929050565b60008060408385031215610efc57600080fd5b82359150610ee060208401610e60565b6020808252818101527f4f776e61626c653a2063616c6c6572206973206e6f7420746865206f776e6572604082015260600190565b634e487b7160e01b600052601160045260246000fd5b60008219821115610f6a57610f6a610f41565b500190565b6000816000190483118215151615610f8957610f89610f41565b500290565b600082610fab57634e487b7160e01b600052601260045260246000fd5b500490565b6000600019821415610fc457610fc4610f41565b5060010190565b60006080820190508251825260208301516020830152604083015160408301526060830151610ffd6060840182610e13565b5092915050565b60006020828403121561101657600080fd5b505191905056fea2646970667358221220a04504b910780cc5e0c5936451b0c79ed8f65640fe4ac69b2069da313943836b64736f6c634300080a0033",
    "linkReferences": {}
  }
}