{
  "abi": [
    {
      "inputs": [],
      "name": "EpochEnded",
      "type": "error"
    },
    {
      "inputs": [],
      "name": "EpochIsOngoing",
      "type": "error"
    },
    {
      "inputs": [],
      "name": "FailToDeposit",
      "type": "error"
    },
    {
      "inputs": [],
      "name": "InsufficientAmount",
      "type": "error"
    },
    {
      "inputs": [],
      "name": "NothingToWithdraw",
      "type": "error"
    },
    {
      "inputs": [],
      "name": "Unauthorized",
      "type": "error"
    },
    {
      "anonymous": false,
      "inputs": [
        {
          "components": [
            {
              "internalType": "uint256",
              "name": "betId",
              "type": "uint256"
            },
            {
              "internalType": "uint256",
              "name": "startTime",
              "type": "uint256"
            },
            {
              "internalType": "uint256",
              "name": "assetPrice",
              "type": "uint256"
            }
          ],
          "indexed": false,
          "internalType": "struct Contract.Bet",
          "name": "bet",
          "type": "tuple"
        }
      ],
      "name": "BetCreated",
      "type": "event"
    },
    {
      "anonymous": false,
      "inputs": [
        {
          "indexed": true,
          "internalType": "address",
          "name": "depositor",
          "type": "address"
        },
        {
          "indexed": false,
          "internalType": "uint256",
          "name": "amount",
          "type": "uint256"
        },
        {
          "indexed": false,
          "internalType": "bool",
          "name": "isBullish",
          "type": "bool"
        }
      ],
      "name": "Deposited",
      "type": "event"
    },
    {
      "anonymous": false,
      "inputs": [
        {
          "indexed": true,
          "internalType": "address",
          "name": "previousOwner",
          "type": "address"
        },
        {
          "indexed": true,
          "internalType": "address",
          "name": "newOwner",
          "type": "address"
        }
      ],
      "name": "OwnershipTransferred",
      "type": "event"
    },
    {
      "anonymous": false,
      "inputs": [
        {
          "indexed": true,
          "internalType": "address",
          "name": "depositor",
          "type": "address"
        },
        {
          "indexed": false,
          "internalType": "uint256",
          "name": "amount",
          "type": "uint256"
        }
      ],
      "name": "Withdraw",
      "type": "event"
    },
    {
      "inputs": [
        {
          "internalType": "address",
          "name": "_priceFeed",
          "type": "address"
        }
      ],
      "name": "createBet",
      "outputs": [
        {
          "internalType": "uint256",
          "name": "",
          "type": "uint256"
        }
      ],
      "stateMutability": "nonpayable",
      "type": "function"
    },
    {
      "inputs": [
        {
          "internalType": "uint256",
          "name": "amount",
          "type": "uint256"
        },
        {
          "internalType": "bool",
          "name": "isBullish",
          "type": "bool"
        }
      ],
      "name": "deposit",
      "outputs": [],
      "stateMutability": "payable",
      "type": "function"
    },
    {
      "inputs": [
        {
          "internalType": "address",
          "name": "",
          "type": "address"
        }
      ],
      "name": "depositorToAmount",
      "outputs": [
        {
          "internalType": "uint256",
          "name": "",
          "type": "uint256"
        }
      ],
      "stateMutability": "view",
      "type": "function"
    },
    {
      "inputs": [
        {
          "internalType": "uint256",
          "name": "betId",
          "type": "uint256"
        }
      ],
      "name": "getBet",
      "outputs": [
        {
          "components": [
            {
              "internalType": "uint256",
              "name": "betId",
              "type": "uint256"
            },
            {
              "internalType": "uint256",
              "name": "startTime",
              "type": "uint256"
            },
            {
              "internalType": "uint256",
              "name": "assetPrice",
              "type": "uint256"
            }
          ],
          "internalType": "struct Contract.Bet",
          "name": "",
          "type": "tuple"
        }
      ],
      "stateMutability": "view",
      "type": "function"
    },
    {
      "inputs": [],
      "name": "owner",
      "outputs": [
        {
          "internalType": "address",
          "name": "",
          "type": "address"
        }
      ],
      "stateMutability": "view",
      "type": "function"
    },
    {
      "inputs": [],
      "name": "renounceOwnership",
      "outputs": [],
      "stateMutability": "nonpayable",
      "type": "function"
    },
    {
      "inputs": [
        {
          "internalType": "uint256",
          "name": "betId",
          "type": "uint256"
        },
        {
          "internalType": "address",
          "name": "_priceFeed",
          "type": "address"
        }
      ],
      "name": "settleEpoch",
      "outputs": [],
      "stateMutability": "nonpayable",
      "type": "function"
    },
    {
      "inputs": [],
      "name": "status",
      "outputs": [
        {
          "internalType": "enum Contract.Status",
          "name": "",
          "type": "uint8"
        }
      ],
      "stateMutability": "view",
      "type": "function"
    },
    {
      "inputs": [
        {
          "internalType": "address",
          "name": "newOwner",
          "type": "address"
        }
      ],
      "name": "transferOwnership",
      "outputs": [],
      "stateMutability": "nonpayable",
      "type": "function"
    },
    {
      "inputs": [],
      "name": "withdraw",
      "outputs": [],
      "stateMutability": "nonpayable",
      "type": "function"
    },
    {
      "stateMutability": "payable",
      "type": "receive"
    }
  ],
  "bytecode": {
    "object": "0x608060405260018055600160025534801561001957600080fd5b5061002333610028565b610078565b600080546001600160a01b038381166001600160a01b0319831681178455604051919092169283917f8be0079c531659141344cd1fd0a4f28419497f9722a3daafe3b4186f6b6457e09190a35050565b610c4e806100876000396000f3fe6080604052600436106100955760003560e01c806378c6c1571161005957806378c6c157146101765780638da5cb5b146101965780639a408321146101be578063a4b47b14146101d1578063f2fde38b146101f157600080fd5b8063061e494f146100a1578063200d2ed2146100e85780633ccfd60b1461010f5780635862716214610126578063715018a61461016157600080fd5b3661009c57005b600080fd5b3480156100ad57600080fd5b506100c16100bc366004610a56565b610211565b60408051825181526020808401519082015291810151908201526060015b60405180910390f35b3480156100f457600080fd5b506003546101029060ff1681565b6040516100df9190610a85565b34801561011b57600080fd5b5061012461026e565b005b34801561013257600080fd5b50610153610141366004610ac4565b60066020526000908152604090205481565b6040519081526020016100df565b34801561016d57600080fd5b50610124610324565b34801561018257600080fd5b50610124610191366004610adf565b610363565b3480156101a257600080fd5b506000546040516001600160a01b0390911681526020016100df565b6101246101cc366004610b0b565b61060e565b3480156101dd57600080fd5b506101536101ec366004610ac4565b6107c2565b3480156101fd57600080fd5b5061012461020c366004610ac4565b6108a9565b61023560405180606001604052806000815260200160008152602001600081525090565b50600090815260046020908152604091829020825160608101845281548152600182015492810192909252600201549181019190915290565b600160035460ff16600181111561028757610287610a6f565b146102a557604051637e2b277560e11b815260040160405180910390fd5b33600081815260066020526040902054806102d357604051630686827b60e51b815260040160405180910390fd5b6102dd8282610944565b816001600160a01b03167f884edad9ce6fa2440d8a54cc123490eb96d2768479d49ff9c7366125a94243648260405161031891815260200190565b60405180910390a25050565b6000546001600160a01b031633146103575760405162461bcd60e51b815260040161034e90610b40565b60405180910390fd5b610361600061099a565b565b6000546001600160a01b0316331461038d5760405162461bcd60e51b815260040161034e90610b40565b6000828152600460209081526040918290208251606081018452815481526001820154928101839052600290910154928101929092524290816103d362093a8083610b8b565b11156103f257604051637e2b277560e11b815260040160405180910390fd5b60408301516000610402866109ea565b60076020527f6d5257204ebe7d88fd91ae87941cb2dd9d8062b64ae5a2bd2d28ec40b9fbf6df5460016000527fb39221ace053465ec3453ce2b36430bd138b997ecea25c1043da0c366812b828549192509083831061052a5760005b600254811015610524576000818152600860209081526040808320546001600160a01b031680845260059092529091205460ff166104b4576001600160a01b038116600090815260066020526040812055610513565b6001600160a01b0381166000908152600660205260408120546104d8908590610ba3565b90506104e48582610bc5565b6001600160a01b0383166000908152600660205260408120805490919061050c908490610b8b565b9091555050505b5061051d81610be4565b905061045e565b506105f6565b60005b6002548110156105f4576000818152600860209081526040808320546001600160a01b031680845260059092529091205460ff1615610584576001600160a01b0381166000908152600660205260408120556105e3565b6001600160a01b0381166000908152600660205260408120546105a8908690610ba3565b90506105b48582610bc5565b6001600160a01b038316600090815260066020526040812080549091906105dc908490610b8b565b9091555050505b506105ed81610be4565b905061052d565b505b50506003805460ff1916600117905550505050505050565b600160035460ff16600181111561062757610627610a6f565b141561064657604051636bec07d760e11b815260040160405180910390fd5b333483111561066857604051632ca2f52b60e11b815260040160405180910390fd5b6001600160a01b0381166000908152600560209081526040808320805460ff19168615151790556006909152812080548592906106a6908490610b8b565b9091555050811515600090815260076020526040812080548592906106cc908490610b8b565b909155505060028054600090815260086020526040812080546001600160a01b0319166001600160a01b0385161790558154919061070983610be4565b9091555050604051600090309085908381818185875af1925050503d8060008114610750576040519150601f19603f3d011682016040523d82523d6000602084013e610755565b606091505b50509050806107775760405163e1452b0960e01b815260040160405180910390fd5b6040805185815284151560208201526001600160a01b038416917f35dbbfd0d3585577ae3feb7437be44befd94c36d05e086795fa0016e0d22d496910160405180910390a250505050565b600080546001600160a01b031633146107ed5760405162461bcd60e51b815260040161034e90610b40565b600060405180606001604052806001548152602001428152602001610811856109ea565b9052600180546000908152600460209081526040808320855181559185015182850155840151600290910155815492935061084b83610be4565b90915550506003805460ff19169055604080518251815260208084015190820152828201518183015290517f33552bc7117d0f403c7cf4ea5a1697573df4d94768eee2bab39ad62214f734559181900360600190a15190505b919050565b6000546001600160a01b031633146108d35760405162461bcd60e51b815260040161034e90610b40565b6001600160a01b0381166109385760405162461bcd60e51b815260206004820152602660248201527f4f776e61626c653a206e6577206f776e657220697320746865207a65726f206160448201526564647265737360d01b606482015260840161034e565b6109418161099a565b50565b600080600080600085875af19050806109955760405162461bcd60e51b815260206004820152601360248201527211551217d514905394d1915497d19052531151606a1b604482015260640161034e565b505050565b600080546001600160a01b038381166001600160a01b0319831681178455604051919092169283917f8be0079c531659141344cd1fd0a4f28419497f9722a3daafe3b4186f6b6457e09190a35050565b600080826001600160a01b03166359e02dd76040518163ffffffff1660e01b8152600401602060405180830381865afa158015610a2b573d6000803e3d6000fd5b505050506040513d601f19601f82011682018060405250810190610a4f9190610bff565b9392505050565b600060208284031215610a6857600080fd5b5035919050565b634e487b7160e01b600052602160045260246000fd5b6020810160028310610aa757634e487b7160e01b600052602160045260246000fd5b91905290565b80356001600160a01b03811681146108a457600080fd5b600060208284031215610ad657600080fd5b610a4f82610aad565b60008060408385031215610af257600080fd5b82359150610b0260208401610aad565b90509250929050565b60008060408385031215610b1e57600080fd5b8235915060208301358015158114610b3557600080fd5b809150509250929050565b6020808252818101527f4f776e61626c653a2063616c6c6572206973206e6f7420746865206f776e6572604082015260600190565b634e487b7160e01b600052601160045260246000fd5b60008219821115610b9e57610b9e610b75565b500190565b600082610bc057634e487b7160e01b600052601260045260246000fd5b500490565b6000816000190483118215151615610bdf57610bdf610b75565b500290565b6000600019821415610bf857610bf8610b75565b5060010190565b600060208284031215610c1157600080fd5b505191905056fea2646970667358221220866aa60bebf35c282ab69d6d811369c92bcae6f0039c730bfc312021590f7a8964736f6c634300080a0033",
    "linkReferences": {}
  }
}