{
  "abi": [
    {
      "inputs": [],
      "name": "EpochClosed",
      "type": "error"
    },
    {
      "inputs": [],
      "name": "EpochIsOngoing",
      "type": "error"
    },
    {
      "inputs": [],
      "name": "EpochMustHaveStarted",
      "type": "error"
    },
    {
      "inputs": [],
      "name": "FailToDeposit",
      "type": "error"
    },
    {
      "inputs": [],
      "name": "InsufficientAmount",
      "type": "error"
    },
    {
      "inputs": [],
      "name": "NothingToWithdraw",
      "type": "error"
    },
    {
      "inputs": [],
      "name": "Unauthorized",
      "type": "error"
    },
    {
      "anonymous": false,
      "inputs": [
        {
          "indexed": false,
          "internalType": "uint256",
          "name": "betId",
          "type": "uint256"
        }
      ],
      "name": "BetClosed",
      "type": "event"
    },
    {
      "anonymous": false,
      "inputs": [
        {
          "components": [
            {
              "internalType": "uint256",
              "name": "betId",
              "type": "uint256"
            },
            {
              "internalType": "uint256",
              "name": "startTime",
              "type": "uint256"
            },
            {
              "internalType": "uint256",
              "name": "assetPrice",
              "type": "uint256"
            },
            {
              "internalType": "enum Contract.Status",
              "name": "status",
              "type": "uint8"
            }
          ],
          "indexed": false,
          "internalType": "struct Contract.Bet",
          "name": "bet",
          "type": "tuple"
        }
      ],
      "name": "BetCreated",
      "type": "event"
    },
    {
      "anonymous": false,
      "inputs": [
        {
          "indexed": true,
          "internalType": "address",
          "name": "depositor",
          "type": "address"
        },
        {
          "indexed": false,
          "internalType": "uint256",
          "name": "amount",
          "type": "uint256"
        },
        {
          "indexed": false,
          "internalType": "bool",
          "name": "isBullish",
          "type": "bool"
        }
      ],
      "name": "Deposit",
      "type": "event"
    },
    {
      "anonymous": false,
      "inputs": [
        {
          "indexed": true,
          "internalType": "address",
          "name": "previousOwner",
          "type": "address"
        },
        {
          "indexed": true,
          "internalType": "address",
          "name": "newOwner",
          "type": "address"
        }
      ],
      "name": "OwnershipTransferred",
      "type": "event"
    },
    {
      "anonymous": false,
      "inputs": [
        {
          "indexed": true,
          "internalType": "address",
          "name": "depositor",
          "type": "address"
        },
        {
          "indexed": false,
          "internalType": "uint256",
          "name": "amount",
          "type": "uint256"
        }
      ],
      "name": "Withdraw",
      "type": "event"
    },
    {
      "inputs": [
        {
          "internalType": "uint256",
          "name": "",
          "type": "uint256"
        }
      ],
      "name": "bets",
      "outputs": [
        {
          "internalType": "uint256",
          "name": "betId",
          "type": "uint256"
        },
        {
          "internalType": "uint256",
          "name": "startTime",
          "type": "uint256"
        },
        {
          "internalType": "uint256",
          "name": "assetPrice",
          "type": "uint256"
        },
        {
          "internalType": "enum Contract.Status",
          "name": "status",
          "type": "uint8"
        }
      ],
      "stateMutability": "view",
      "type": "function"
    },
    {
      "inputs": [
        {
          "internalType": "uint256",
          "name": "betId",
          "type": "uint256"
        }
      ],
      "name": "closeDeposit",
      "outputs": [],
      "stateMutability": "nonpayable",
      "type": "function"
    },
    {
      "inputs": [
        {
          "internalType": "address",
          "name": "_priceFeed",
          "type": "address"
        }
      ],
      "name": "createBet",
      "outputs": [
        {
          "internalType": "uint256",
          "name": "",
          "type": "uint256"
        }
      ],
      "stateMutability": "nonpayable",
      "type": "function"
    },
    {
      "inputs": [
        {
          "internalType": "uint256",
          "name": "betId",
          "type": "uint256"
        },
        {
          "internalType": "bool",
          "name": "isBullish",
          "type": "bool"
        }
      ],
      "name": "deposit",
      "outputs": [],
      "stateMutability": "payable",
      "type": "function"
    },
    {
      "inputs": [
        {
          "internalType": "address",
          "name": "",
          "type": "address"
        }
      ],
      "name": "depositorToAmount",
      "outputs": [
        {
          "internalType": "uint256",
          "name": "",
          "type": "uint256"
        }
      ],
      "stateMutability": "view",
      "type": "function"
    },
    {
      "inputs": [
        {
          "internalType": "address",
          "name": "",
          "type": "address"
        }
      ],
      "name": "depositorToIsBullish",
      "outputs": [
        {
          "internalType": "bool",
          "name": "",
          "type": "bool"
        }
      ],
      "stateMutability": "view",
      "type": "function"
    },
    {
      "inputs": [
        {
          "internalType": "uint256",
          "name": "",
          "type": "uint256"
        }
      ],
      "name": "idToDepositor",
      "outputs": [
        {
          "internalType": "address",
          "name": "",
          "type": "address"
        }
      ],
      "stateMutability": "view",
      "type": "function"
    },
    {
      "inputs": [
        {
          "internalType": "bool",
          "name": "",
          "type": "bool"
        }
      ],
      "name": "isBullishToAmount",
      "outputs": [
        {
          "internalType": "uint256",
          "name": "",
          "type": "uint256"
        }
      ],
      "stateMutability": "view",
      "type": "function"
    },
    {
      "inputs": [],
      "name": "owner",
      "outputs": [
        {
          "internalType": "address",
          "name": "",
          "type": "address"
        }
      ],
      "stateMutability": "view",
      "type": "function"
    },
    {
      "inputs": [],
      "name": "renounceOwnership",
      "outputs": [],
      "stateMutability": "nonpayable",
      "type": "function"
    },
    {
      "inputs": [
        {
          "internalType": "uint256",
          "name": "betId",
          "type": "uint256"
        },
        {
          "internalType": "address",
          "name": "_priceFeed",
          "type": "address"
        }
      ],
      "name": "settleEpoch",
      "outputs": [],
      "stateMutability": "nonpayable",
      "type": "function"
    },
    {
      "inputs": [
        {
          "internalType": "address",
          "name": "newOwner",
          "type": "address"
        }
      ],
      "name": "transferOwnership",
      "outputs": [],
      "stateMutability": "nonpayable",
      "type": "function"
    },
    {
      "inputs": [
        {
          "internalType": "uint256",
          "name": "betId",
          "type": "uint256"
        }
      ],
      "name": "withdraw",
      "outputs": [],
      "stateMutability": "nonpayable",
      "type": "function"
    },
    {
      "stateMutability": "payable",
      "type": "receive"
    }
  ],
  "bytecode": {
    "object": "0x608060405260018055600160025534801561001957600080fd5b5061002333610028565b610078565b600080546001600160a01b038381166001600160a01b0319831681178455604051919092169283917f8be0079c531659141344cd1fd0a4f28419497f9722a3daafe3b4186f6b6457e09190a35050565b610e80806100876000396000f3fe6080604052600436106100c65760003560e01c806378c6c1571161007f5780639060db55116100595780639060db55146102795780639a408321146102b9578063a4b47b14146102cc578063f2fde38b146102ec57600080fd5b806378c6c1571461021b57806383b24c521461023b5780638da5cb5b1461025b57600080fd5b80631a8ef8c2146100d257806322af00fa146101255780632e1a7d4d1461017c5780633a6a38501461019e57806358627162146101d9578063715018a61461020657600080fd5b366100cd57005b600080fd5b3480156100de57600080fd5b506101086100ed366004610c11565b6007602052600090815260409020546001600160a01b031681565b6040516001600160a01b0390911681526020015b60405180910390f35b34801561013157600080fd5b5061016c610140366004610c11565b600360208190526000918252604090912080546001820154600283015492909301549092919060ff1684565b60405161011c9493929190610c62565b34801561018857600080fd5b5061019c610197366004610c11565b61030c565b005b3480156101aa57600080fd5b506101cb6101b9366004610c9d565b60066020526000908152604090205481565b60405190815260200161011c565b3480156101e557600080fd5b506101cb6101f4366004610ccf565b60056020526000908152604090205481565b34801561021257600080fd5b5061019c6103d3565b34801561022757600080fd5b5061019c610236366004610cea565b610412565b34801561024757600080fd5b5061019c610256366004610c11565b6106d2565b34801561026757600080fd5b506000546001600160a01b0316610108565b34801561028557600080fd5b506102a9610294366004610ccf565b60046020526000908152604090205460ff1681565b604051901515815260200161011c565b61019c6102c7366004610d16565b610788565b3480156102d857600080fd5b506101cb6102e7366004610ccf565b61094f565b3480156102f857600080fd5b5061019c610307366004610ccf565b610a64565b60026000828152600360208190526040909120015460ff16600281111561033557610335610c2a565b1461035357604051637e2b277560e11b815260040160405180910390fd5b336000818152600560205260409020548061038157604051630686827b60e51b815260040160405180910390fd5b61038b8282610aff565b816001600160a01b03167f884edad9ce6fa2440d8a54cc123490eb96d2768479d49ff9c7366125a9424364826040516103c691815260200190565b60405180910390a2505050565b6000546001600160a01b031633146104065760405162461bcd60e51b81526004016103fd90610d39565b60405180910390fd5b6104106000610b55565b565b6000546001600160a01b0316331461043c5760405162461bcd60e51b81526004016103fd90610d39565b6000828152600360205260409020600181015442908161045f62093a8083610d84565b111561047e57604051637e2b277560e11b815260040160405180910390fd5b6002830154600061048e86610ba5565b60066020527f3e5fec24aa4dc4e5aee2e025e51e1392c72a2500577559fae9665c6d52bd6a3154600080527f54cdd369e4e8a8515e52ca72ec816c2101831ad1f18bf44102ed171459c9b4f854919250908383106105d05760015b6002548110156105ca576000818152600760209081526040808320546001600160a01b031680845260049092529091205460ff1661053f576001600160a01b0381166000908152600560205260408120556105b9565b6001600160a01b0381166000908152600560205260408120548590610567906103e890610d9c565b6105719190610dbb565b90506103e86105808583610d9c565b61058a9190610dbb565b6001600160a01b038316600090815260056020526040812080549091906105b2908490610d84565b9091555050505b506105c381610ddd565b90506104e9565b506106b7565b60015b6002548110156106b5576000818152600760209081526040808320546001600160a01b031680845260049092529091205460ff161561062a576001600160a01b0381166000908152600560205260408120556106a4565b6001600160a01b0381166000908152600560205260408120548490610652906103e890610d9c565b61065c9190610dbb565b90506103e861066b8683610d9c565b6106759190610dbb565b6001600160a01b0383166000908152600560205260408120805490919061069d908490610d84565b9091555050505b506106ae81610ddd565b90506105d3565b505b50505050600392909201805460ff1916600217905550505050565b6000546001600160a01b031633146106fc5760405162461bcd60e51b81526004016103fd90610d39565b600081815260036020526040812090600382015460ff16600281111561072457610724610c2a565b1461074257604051631e42390960e01b815260040160405180910390fd5b60038101805460ff191660011790556040518281527f0eece8d5a08d055ab5110a6ecddd40f483417a5ba1e85d80db5ec862ac8209d09060200160405180910390a15050565b60016000838152600360208190526040909120015460ff1660028111156107b1576107b1610c2a565b14156107d05760405163b01c554960e01b815260040160405180910390fd5b333481318110156107f457604051632ca2f52b60e11b815260040160405180910390fd5b6001600160a01b0382166000908152600460209081526040808320805460ff1916871515179055600590915281208054839290610832908490610d84565b909155505082151560009081526006602052604081208054839290610858908490610d84565b909155505060028054600090815260076020526040812080546001600160a01b0319166001600160a01b0386161790558154919061089583610ddd565b9091555050604051600090309083908381818185875af1925050503d80600081146108dc576040519150601f19603f3d011682016040523d82523d6000602084013e6108e1565b606091505b50509050806109035760405163e1452b0960e01b815260040160405180910390fd5b6040805183815285151560208201526001600160a01b038516917f693c1828300d1cab0919b948d714897f817e305af51c026ad14233b6a8939adb910160405180910390a25050505050565b600080546001600160a01b0316331461097a5760405162461bcd60e51b81526004016103fd90610d39565b60006040518060800160405280600154815260200142815260200161099e85610ba5565b8152602001600081525090508060036000600154815260200190815260200160002060008201518160000155602082015181600101556040820151816002015560608201518160030160006101000a81548160ff02191690836002811115610a0857610a08610c2a565b0217905550506001805491506000610a1f83610ddd565b91905055507f76fcae05a8f6d87f57fc4819b1ddd1a7fb18657bb476d057b5e708a68cf592cc81604051610a539190610df8565b60405180910390a15190505b919050565b6000546001600160a01b03163314610a8e5760405162461bcd60e51b81526004016103fd90610d39565b6001600160a01b038116610af35760405162461bcd60e51b815260206004820152602660248201527f4f776e61626c653a206e6577206f776e657220697320746865207a65726f206160448201526564647265737360d01b60648201526084016103fd565b610afc81610b55565b50565b600080600080600085875af1905080610b505760405162461bcd60e51b815260206004820152601360248201527211551217d514905394d1915497d19052531151606a1b60448201526064016103fd565b505050565b600080546001600160a01b038381166001600160a01b0319831681178455604051919092169283917f8be0079c531659141344cd1fd0a4f28419497f9722a3daafe3b4186f6b6457e09190a35050565b600080826001600160a01b03166359e02dd76040518163ffffffff1660e01b8152600401602060405180830381865afa158015610be6573d6000803e3d6000fd5b505050506040513d601f19601f82011682018060405250810190610c0a9190610e31565b9392505050565b600060208284031215610c2357600080fd5b5035919050565b634e487b7160e01b600052602160045260246000fd5b60038110610c5e57634e487b7160e01b600052602160045260246000fd5b9052565b848152602081018490526040810183905260808101610c846060830184610c40565b95945050505050565b80358015158114610a5f57600080fd5b600060208284031215610caf57600080fd5b610c0a82610c8d565b80356001600160a01b0381168114610a5f57600080fd5b600060208284031215610ce157600080fd5b610c0a82610cb8565b60008060408385031215610cfd57600080fd5b82359150610d0d60208401610cb8565b90509250929050565b60008060408385031215610d2957600080fd5b82359150610d0d60208401610c8d565b6020808252818101527f4f776e61626c653a2063616c6c6572206973206e6f7420746865206f776e6572604082015260600190565b634e487b7160e01b600052601160045260246000fd5b60008219821115610d9757610d97610d6e565b500190565b6000816000190483118215151615610db657610db6610d6e565b500290565b600082610dd857634e487b7160e01b600052601260045260246000fd5b500490565b6000600019821415610df157610df1610d6e565b5060010190565b60006080820190508251825260208301516020830152604083015160408301526060830151610e2a6060840182610c40565b5092915050565b600060208284031215610e4357600080fd5b505191905056fea26469706673582212203d578d1a8a81137da0da23090def9df9b92fd86c00d1fb98d6d8ab41e464634e64736f6c634300080a0033",
    "linkReferences": {}
  }
}