{
  "abi": [
    {
      "anonymous": false,
      "inputs": [
        {
          "indexed": false,
          "internalType": "uint256",
          "name": "betId",
          "type": "uint256"
        }
      ],
      "name": "BetClosed",
      "type": "event"
    },
    {
      "anonymous": false,
      "inputs": [
        {
          "components": [
            {
              "internalType": "uint256",
              "name": "betId",
              "type": "uint256"
            },
            {
              "internalType": "uint256",
              "name": "startTime",
              "type": "uint256"
            },
            {
              "internalType": "uint256",
              "name": "assetPrice",
              "type": "uint256"
            },
            {
              "internalType": "enum Contract.Status",
              "name": "status",
              "type": "uint8"
            }
          ],
          "indexed": false,
          "internalType": "struct Contract.Bet",
          "name": "bet",
          "type": "tuple"
        }
      ],
      "name": "BetCreated",
      "type": "event"
    },
    {
      "anonymous": false,
      "inputs": [
        {
          "indexed": true,
          "internalType": "address",
          "name": "depositor",
          "type": "address"
        },
        {
          "indexed": false,
          "internalType": "uint256",
          "name": "amount",
          "type": "uint256"
        },
        {
          "indexed": false,
          "internalType": "bool",
          "name": "isBullish",
          "type": "bool"
        }
      ],
      "name": "Deposit",
      "type": "event"
    },
    {
      "anonymous": false,
      "inputs": [],
      "name": "EpochSettle",
      "type": "event"
    },
    {
      "anonymous": false,
      "inputs": [
        {
          "indexed": true,
          "internalType": "address",
          "name": "previousOwner",
          "type": "address"
        },
        {
          "indexed": true,
          "internalType": "address",
          "name": "newOwner",
          "type": "address"
        }
      ],
      "name": "OwnershipTransferred",
      "type": "event"
    },
    {
      "anonymous": false,
      "inputs": [
        {
          "indexed": true,
          "internalType": "address",
          "name": "depositor",
          "type": "address"
        },
        {
          "indexed": false,
          "internalType": "uint256",
          "name": "amount",
          "type": "uint256"
        }
      ],
      "name": "Withdraw",
      "type": "event"
    },
    {
      "inputs": [],
      "name": "bearsAmount",
      "outputs": [
        {
          "internalType": "uint256",
          "name": "",
          "type": "uint256"
        }
      ],
      "stateMutability": "view",
      "type": "function"
    },
    {
      "inputs": [
        {
          "internalType": "uint256",
          "name": "",
          "type": "uint256"
        }
      ],
      "name": "bets",
      "outputs": [
        {
          "internalType": "uint256",
          "name": "betId",
          "type": "uint256"
        },
        {
          "internalType": "uint256",
          "name": "startTime",
          "type": "uint256"
        },
        {
          "internalType": "uint256",
          "name": "assetPrice",
          "type": "uint256"
        },
        {
          "internalType": "enum Contract.Status",
          "name": "status",
          "type": "uint8"
        }
      ],
      "stateMutability": "view",
      "type": "function"
    },
    {
      "inputs": [],
      "name": "bullsAmount",
      "outputs": [
        {
          "internalType": "uint256",
          "name": "",
          "type": "uint256"
        }
      ],
      "stateMutability": "view",
      "type": "function"
    },
    {
      "inputs": [
        {
          "internalType": "uint256",
          "name": "betId",
          "type": "uint256"
        }
      ],
      "name": "closeDeposit",
      "outputs": [],
      "stateMutability": "nonpayable",
      "type": "function"
    },
    {
      "inputs": [
        {
          "internalType": "address",
          "name": "_priceFeed",
          "type": "address"
        }
      ],
      "name": "createBet",
      "outputs": [
        {
          "internalType": "uint256",
          "name": "",
          "type": "uint256"
        }
      ],
      "stateMutability": "nonpayable",
      "type": "function"
    },
    {
      "inputs": [
        {
          "internalType": "uint256",
          "name": "betId",
          "type": "uint256"
        },
        {
          "internalType": "bool",
          "name": "isBullish",
          "type": "bool"
        }
      ],
      "name": "deposit",
      "outputs": [],
      "stateMutability": "payable",
      "type": "function"
    },
    {
      "inputs": [
        {
          "internalType": "address",
          "name": "",
          "type": "address"
        }
      ],
      "name": "depositorToAmount",
      "outputs": [
        {
          "internalType": "uint256",
          "name": "",
          "type": "uint256"
        }
      ],
      "stateMutability": "view",
      "type": "function"
    },
    {
      "inputs": [
        {
          "internalType": "address",
          "name": "",
          "type": "address"
        }
      ],
      "name": "depositors",
      "outputs": [
        {
          "internalType": "bool",
          "name": "",
          "type": "bool"
        }
      ],
      "stateMutability": "view",
      "type": "function"
    },
    {
      "inputs": [],
      "name": "owner",
      "outputs": [
        {
          "internalType": "address",
          "name": "",
          "type": "address"
        }
      ],
      "stateMutability": "view",
      "type": "function"
    },
    {
      "inputs": [],
      "name": "renounceOwnership",
      "outputs": [],
      "stateMutability": "nonpayable",
      "type": "function"
    },
    {
      "inputs": [
        {
          "internalType": "uint256",
          "name": "betId",
          "type": "uint256"
        },
        {
          "internalType": "address",
          "name": "_priceFeed",
          "type": "address"
        }
      ],
      "name": "settleEpoch",
      "outputs": [],
      "stateMutability": "nonpayable",
      "type": "function"
    },
    {
      "inputs": [
        {
          "internalType": "address",
          "name": "newOwner",
          "type": "address"
        }
      ],
      "name": "transferOwnership",
      "outputs": [],
      "stateMutability": "nonpayable",
      "type": "function"
    },
    {
      "inputs": [
        {
          "internalType": "uint256",
          "name": "betId",
          "type": "uint256"
        }
      ],
      "name": "withdraw",
      "outputs": [],
      "stateMutability": "nonpayable",
      "type": "function"
    },
    {
      "stateMutability": "payable",
      "type": "receive"
    }
  ],
  "bytecode": {
    "object": "0x6080604052600180556000600255600060035534801561001e57600080fd5b506100283361002d565b61007d565b600080546001600160a01b038381166001600160a01b0319831681178455604051919092169283917f8be0079c531659141344cd1fd0a4f28419497f9722a3daafe3b4186f6b6457e09190a35050565b6112aa8061008c6000396000f3fe6080604052600436106100c65760003560e01c806378c6c1571161007f5780639a408321116100595780639a40832114610232578063a4b47b1414610245578063eed75f6d14610265578063f2fde38b146102a557600080fd5b806378c6c157146101ca57806383b24c52146101ea5780638da5cb5b1461020a57600080fd5b806303a0e032146100d2578063060e7401146100fb57806322af00fa146101115780632e1a7d4d146101665780635862716214610188578063715018a6146101b557600080fd5b366100cd57005b600080fd5b3480156100de57600080fd5b506100e860025481565b6040519081526020015b60405180910390f35b34801561010757600080fd5b506100e860035481565b34801561011d57600080fd5b5061015661012c366004611053565b60066020526000908152604090208054600182015460028301546003909301549192909160ff1684565b6040516100f294939291906110a4565b34801561017257600080fd5b50610186610181366004611053565b6102c5565b005b34801561019457600080fd5b506100e86101a33660046110e6565b60086020526000908152604090205481565b3480156101c157600080fd5b506101866103f3565b3480156101d657600080fd5b506101866101e5366004611101565b610429565b3480156101f657600080fd5b50610186610205366004611053565b610744565b34801561021657600080fd5b506000546040516001600160a01b0390911681526020016100f2565b61018661024036600461112d565b610828565b34801561025157600080fd5b506100e86102603660046110e6565b610a5e565b34801561027157600080fd5b506102956102803660046110e6565b60076020526000908152604090205460ff1681565b60405190151581526020016100f2565b3480156102b157600080fd5b506101866102c03660046110e6565b610b7c565b600260008281526006602052604090206003015460ff1660028111156102ed576102ed61106c565b146103355760405162461bcd60e51b8152602060048201526013602482015272115c1bd8da081a185cc81b9bdd08195b991959606a1b60448201526064015b60405180910390fd5b33600081815260086020526040902054806103885760405162461bcd60e51b81526020600482015260136024820152724e6f7468696e6720746f20776974686472617760681b604482015260640161032c565b6001600160a01b0382166000908152600860205260408120556103ab8282610c17565b816001600160a01b03167f884edad9ce6fa2440d8a54cc123490eb96d2768479d49ff9c7366125a9424364826040516103e691815260200190565b60405180910390a2505050565b6000546001600160a01b0316331461041d5760405162461bcd60e51b815260040161032c90611162565b6104276000610c6d565b565b6000546001600160a01b031633146104535760405162461bcd60e51b815260040161032c90611162565b6000828152600660205260409020600181015442908161047662093a80836111ad565b11156104b75760405162461bcd60e51b815260206004820152601060248201526f45706f6368206973206f6e676f696e6760801b604482015260640161032c565b600283015460006104c786610cbd565b90508181106105e85760005b60045481101561057a576000600482815481106104f2576104f26111c5565b60009182526020808320909101546001600160a01b0316808352600890915260408220546002549193509190610529908390610d29565b905061053781600354610d72565b6001600160a01b0384166000908152600860205260408120805490919061055f9084906111ad565b9250508190555050505080610573906111db565b90506104d3565b5060005b6005548110156105d657600060086000600584815481106105a1576105a16111c5565b60009182526020808320909101546001600160a01b031683528201929092526040019020556105cf816111db565b905061057e565b506105e360056000611021565b6106fb565b60005b6005548110156106925760006005828154811061060a5761060a6111c5565b60009182526020808320909101546001600160a01b0316808352600890915260408220546003549193509190610641908390610d29565b905061064f81600254610d72565b6001600160a01b038416600090815260086020526040812080549091906106779084906111ad565b925050819055505050508061068b906111db565b90506105eb565b5060005b6004548110156106ee57600060086000600484815481106106b9576106b96111c5565b60009182526020808320909101546001600160a01b031683528201929092526040019020556106e7816111db565b9050610696565b506106fb60046000611021565b6000600281815560038281558701805460ff191690911790556040517fb066eb84e90f0d010f4d59fde547951af64ef2f24fd6b125e6366e6fa03b40de9190a150505050505050565b6000546001600160a01b0316331461076e5760405162461bcd60e51b815260040161032c90611162565b600081815260066020526040812090600382015460ff1660028111156107965761079661106c565b146107d85760405162461bcd60e51b8152602060048201526012602482015271115c1bd8da081a185cc81d1bc81cdd185c9d60721b604482015260640161032c565b4260018281019190915560038201805460ff191690911790556040518281527f0eece8d5a08d055ab5110a6ecddd40f483417a5ba1e85d80db5ec862ac8209d09060200160405180910390a15050565b60008281526006602052604081206003015460ff16600281111561084e5761084e61106c565b146108925760405162461bcd60e51b815260206004820152601460248201527311195c1bdcda5d081c195c9a5bd908195b99195960621b604482015260640161032c565b336000818152600860205260408120805434928392916108b39084906111ad565b909155505082156109255780600260008282546108d091906111ad565b9091555050600480546001810182556000919091527f8a35acfbc15ff81a39ae7d344fd709f28e8600b4aa8c65c6b64bfe7fe36bd19b0180546001600160a01b0319166001600160a01b038416179055610988565b806003600082825461093791906111ad565b9091555050600580546001810182556000919091527f036b6384b5eca791c62761152d0c79bb0604c104a5fb6f4eb0703f3154bb3db00180546001600160a01b0319166001600160a01b0384161790555b604051600090309083908381818185875af1925050503d80600081146109ca576040519150601f19603f3d011682016040523d82523d6000602084013e6109cf565b606091505b5050905080610a125760405162461bcd60e51b815260206004820152600f60248201526e11985a5b081d1bc819195c1bdcda5d608a1b604482015260640161032c565b6040805183815285151560208201526001600160a01b038516917f693c1828300d1cab0919b948d714897f817e305af51c026ad14233b6a8939adb910160405180910390a25050505050565b600080546001600160a01b03163314610a895760405162461bcd60e51b815260040161032c90611162565b60006040518060800160405280600154815260200160008152602001610aae85610cbd565b8152602001600081525090508060066000600154815260200190815260200160002060008201518160000155602082015181600101556040820151816002015560608201518160030160006101000a81548160ff02191690836002811115610b1857610b1861106c565b0217905550506001805491506000610b2f836111db565b9190505550610b3c610dda565b7f76fcae05a8f6d87f57fc4819b1ddd1a7fb18657bb476d057b5e708a68cf592cc81604051610b6b91906111f6565b60405180910390a15190505b919050565b6000546001600160a01b03163314610ba65760405162461bcd60e51b815260040161032c90611162565b6001600160a01b038116610c0b5760405162461bcd60e51b815260206004820152602660248201527f4f776e61626c653a206e6577206f776e657220697320746865207a65726f206160448201526564647265737360d01b606482015260840161032c565b610c1481610c6d565b50565b600080600080600085875af1905080610c685760405162461bcd60e51b815260206004820152601360248201527211551217d514905394d1915497d19052531151606a1b604482015260640161032c565b505050565b600080546001600160a01b038381166001600160a01b0319831681178455604051919092169283917f8be0079c531659141344cd1fd0a4f28419497f9722a3daafe3b4186f6b6457e09190a35050565b600080826001600160a01b03166359e02dd76040518163ffffffff1660e01b8152600401602060405180830381865afa158015610cfe573d6000803e3d6000fd5b505050506040513d601f19601f82011682018060405250810190610d22919061122f565b9392505050565b600081610d3557600080fd5b6000610d418484610ebf565b90506f7fffffffffffffffffffffffffffffff6001600160801b0382161115610d6957600080fd5b90505b92915050565b600081610d8157506000610d6c565b600083600f0b1215610d9257600080fd5b600f83900b6001600160801b038316810260401c90608084901c026001600160c01b03811115610dc157600080fd5b60401b8119811115610dd257600080fd5b019392505050565b60005b600454811015610e4c576008600060048381548110610dfe57610dfe6111c5565b60009182526020808320909101546001600160a01b031683528201929092526040018120546002805491929091610e369084906111ad565b90915550610e459050816111db565b9050610ddd565b5060005b600554811015610c14576008600060058381548110610e7157610e716111c5565b60009182526020808320909101546001600160a01b031683528201929092526040018120546003805491929091610ea99084906111ad565b90915550610eb89050816111db565b9050610e50565b600081610ecb57600080fd5b60006001600160c01b038411610ef65782604085901b81610eee57610eee611248565b04905061100d565b60c084811c6401000000008110610f0f576020918201911c5b620100008110610f21576010918201911c5b6101008110610f32576008918201911c5b60108110610f42576004918201911c5b60048110610f52576002918201911c5b60028110610f61576001820191505b60bf820360018603901c6001018260ff0387901b81610f8257610f82611248565b0492506001600160801b03831115610f9957600080fd5b608085901c83026001600160801b038616840260c088901c604089901b82811015610fc5576001820391505b608084901b92900382811015610fdc576001820391505b829003608084901c8214610ff257610ff261125e565b88818161100157611001611248565b04870196505050505050505b6001600160801b03811115610d6957600080fd5b5080546000825590600052602060002090810190610c1491905b8082111561104f576000815560010161103b565b5090565b60006020828403121561106557600080fd5b5035919050565b634e487b7160e01b600052602160045260246000fd5b600381106110a057634e487b7160e01b600052602160045260246000fd5b9052565b8481526020810184905260408101839052608081016110c66060830184611082565b95945050505050565b80356001600160a01b0381168114610b7757600080fd5b6000602082840312156110f857600080fd5b610d22826110cf565b6000806040838503121561111457600080fd5b82359150611124602084016110cf565b90509250929050565b6000806040838503121561114057600080fd5b823591506020830135801515811461115757600080fd5b809150509250929050565b6020808252818101527f4f776e61626c653a2063616c6c6572206973206e6f7420746865206f776e6572604082015260600190565b634e487b7160e01b600052601160045260246000fd5b600082198211156111c0576111c0611197565b500190565b634e487b7160e01b600052603260045260246000fd5b60006000198214156111ef576111ef611197565b5060010190565b600060808201905082518252602083015160208301526040830151604083015260608301516112286060840182611082565b5092915050565b60006020828403121561124157600080fd5b5051919050565b634e487b7160e01b600052601260045260246000fd5b634e487b7160e01b600052600160045260246000fdfea26469706673582212206edc1e103deac4b34836155ef5a1b4b00c23e5f3d680e6f599443469a5b2508764736f6c634300080a0033",
    "linkReferences": {}
  }
}